:0200000460009A
:100000004643464200000156000000000101020084
:1000100000000000000000000000000000000000E0
:1000200000000000000000000000000000000000D0
:1000300000000000000000000000000000000000C0
:1000400000000000010403000000000000000000A8
:100050000000200000000000000000000000000080
:100060000000000000000000000000000000000090
:100070000000000000000000000000000000000080
:10008000EB04180A063204260000000000000000FD
:10009000050404240000000000000000000000002F
:1000A0000000000000000000000000000000000050
:1000B0000604000000000000000000000000000036
:1000C0000000000000000000000000000000000030
:1000D00020041808000000000000000000000000DC
:1000E0000000000000000000000000000000000010
:1000F0000000000000000000000000000000000000
:1001000000000000000000000000000000000000EF
:100110000204180804200000000000000000000095
:1001200000000000000000000000000000000000CF
:10013000600400000000000000000000000000005B
:1001400000000000000000000000000000000000AF
:10015000000000000000000000000000000000009F
:10016000000000000000000000000000000000008F
:10017000000000000000000000000000000000007F
:10018000000000000000000000000000000000006F
:10019000000000000000000000000000000000005F
:1001A000000000000000000000000000000000004F
:1001B000000000000000000000000000000000003F
:1001C000000100000010000001000000000000001D
:1001D000000000000000000000000000000000001F
:1001E000000000000000000000000000000000000F
:1001F00000000000000000000000000000000000FF
:10020000D4D4D4D4D4D4D4D4D4D4D4D4D4D4D4D4AE
:10100000D10020400020006000000000000000002F
:1010100020100060001000600000000000000000D0
:1010200000000060F0B5000000000000EFBEADDE83
:10103000124880F3088812481249016000F036F81F
:10104000114812490022814201D004C0FBE7104838
:101050001049114A814202D008CA08C0FAE70F4875
:101060004FF47001026842EA01020260BFF34F8F41
:10107000BFF36F8F00F014F800DE00000040002086
:1010800008ED00E00040002000500020A085002076
:10109000B842002058440020F0B5006088ED00E020
:1010A00040F2010CC0F2000C6047D4D41C4840F25E
:1010B000924188420CBF1B4A1B4A1C4B5360136869
:1010C00023F0800313601A481A4901BF1A480A0C1A
:1010D0008264C1F30F014164016C41F004010164B9
:1010E0001648174A824205D01649814202D008CAE2
:1010F00008C0FAE71448154A824205D014498142D3
:1011000002D008CA08C0FAE71248134A824205D042
:101110001249814202D008CA08C0FAE770470000AD
:10112000240400000080034000C00B4020C528D9E3
:1011300000C00A40AAAAFAFF00400E4000000000CA
:10114000B8220060D87D0000004000200020006030
:10115000B84200200000202090A0006060152020F0
:10116000D4D4D4D4D4D4D4D4D4D4D4D4D4D4D4D43F
:10117000D4D4D4D4D4D4D4D4D4D4D4D4D4D4D4D42F
:10118000D4D4D4D4D4D4D4D4D4D4D4D4D4D4D4D41F
:10119000D4D4D4D4D4D4D4D4D4D4D4D4D4D4D4D40F
:102000000040002031100060351B0000BF7D000043
:10201000351B0000351B0000351B000000000000D0
:10202000000000000000000000000000351B000060
:10203000351B000000000000351B0000351B0000B0
:10204000351B0000351B0000351B0000351B000050
:10205000351B0000351B0000351B0000351B000040
:10206000351B0000351B0000351B0000351B000030
:10207000351B0000351B0000351B0000351B000020
:10208000351B000000000000000000000000000000
:10209000351B0000351B0000351B0000351B000000
:1020A000351B0000351B0000351B0000351B0000F0
:1020B000351B0000351B0000351B0000351B0000E0
:1020C000351B0000351B0000351B0000351B0000D0
:1020D000351B0000351B0000351B0000351B0000C0
:1020E000351B0000351B0000351B0000351B0000B0
:1020F000351B0000351B0000351B0000351B0000A0
:10210000351B0000351B0000351B0000351B00008F
:1021100000000000351B000000000000351B00001F
:10212000351B0000351B0000351B0000351B00006F
:10213000351B0000351B000000000000351B0000AF
:10214000351B0000351B0000351B0000351B00004F
:10215000351B0000351B00000000000000000000DF
:10216000351B0000351B0000351B0000351B00002F
:10217000351B0000351B0000351B0000351B00001F
:10218000351B0000351B0000351B0000351B00000F
:10219000351B0000351B0000351B0000351B0000FF
:1021A000351B0000351B0000351B0000351B0000EF
:1021B000351B0000351B0000351B0000351B0000DF
:1021C000351B0000351B0000351B0000000000001F
:1021D000351B0000351B0000351B0000351B0000BF
:1021E000351B0000351B0000351B0000351B0000AF
:1021F000351B0000351B0000351B0000351B00009F
:10220000351B00001B140000351B0000351B0000AF
:10221000351B0000351B0000351B0000351B00007E
:10222000351B0000351B0000351B0000351B00006E
:10223000351B0000351B0000351B000000000000AE
:1022400000000000351B0000351B0000351B00009E
:10225000351B0000351B0000351B0000351B00003E
:10226000351B0000351B0000351B0000351B00002E
:10227000351B0000351B0000351B0000351B00001E
:10228000351B0000351B0000351B0000351B00000E
:10229000351B0000351B0000351B0000351B0000FE
:1022A000351B0000351B0000351B0000000000003E
:0822B000351B0000351B000086
:1022B80080B56F4600F001F8FEDE80B56F4690B03D
:1022C80002A800F09DF8039E48F29F64C0F2010442
:1022D800C6F80041D6F8080140F00100C6F8080128
:1022E800D6F80C01C0070CD1D6F80C01C00704BF02
:1022F800D6F80C015FEAC07003D1D6F80C01C0070C
:10230800EED00125C6F80C51D6F8080120F00100DE
:10231800C6F8080148F29C50C2F200000068022882
:1023280016D9002040F2A8010F9040F2E002CDE952
:102338000B5040F2B400C2F22000C2F220010A9011
:102348000AA80E91C2F220020321002306F01FFD05
:10235800DDE904B0DDE9068100F01F0001F01F018E
:1023680005FA00FA05FA01F907E0C6F80C51D6F8A3
:10237800080120F00100C6F80801DBF808001AEA95
:10238800000F1CBFD8F8080019EA000F1DD148F249
:102398009C50C2F200000068032816D340F2A8003F
:1023A8000021C2F2200040F20C120E9040F20410FC
:1023B800C2F220000F910A900AA8CDE90B5103211F
:1023C800C2F22002002306F0E2FCC6F80041D6F86B
:1023D800080140F00100C6F80801D6F80C01C00752
:1023E800C3D1D6F80C01C00704BFD6F80C015FEAC8
:1023F800C070BAD1D6F80C01C007EED0B5E7D4D476
:10240800F0B503AF2DE9000FADF2F44DCDAD01905D
:10241800284600F08CFF07A8294600F086FA0D9898
:10242800CDAE02900E98009010980390DDE911103F
:10243800139A05903046079C9B9D0692DDF884B25E
:10244800DDF894A2049101F01EF904AA07AB07CAAB
:1024580007C307A9304601F01BF9D4F808014AF26E
:102468001F16C0F2070620F00100C4F80801012079
:10247800C4F80C01D4F8080120F00400C4F80801DD
:10248800D4F8080120F00200C4F80801C4F800617B
:10249800D4F8080140F00100C4F80801D4F80C0190
:1024A800C0070CD1D4F80C01C00704BFD4F80C0144
:1024B8005FEAC07003D1D4F80C01C007EED04FF02A
:1024C800010C48F23C18C4F80CC1C4F21F08D4F837
:1024D800081148F22053C4F21F0321F00101C4F887
:1024E8000811D8F80820032161F30302C8F808206E
:1024F800D8F8082042F01002C8F8082000229A6094
:10250800D8F8040061F30300C8F80400D8F8040000
:1025180040F01000C8F804005A60D8F80C0061F3C5
:102528000300C8F80C00D8F80C0040F01000C8F8F8
:102538000C001A60D8F8000061F30300C8F8000026
:10254800D8F8000040F01000C8F800000220C8F8D1
:10255800E02328612A612A4669622869296921F0ED
:1025680001012961296E21F040412966296960F33A
:1025780000014FF00F1029614EF29021A865C0F2BA
:102588007D01C5F810C0286940F440702861D5F86D
:102598001090286920F00100286142F60010C0F26E
:1025A800DE7003F0D6FB286969F300002861C4F8DF
:1025B8000061D4F8080140F00100C4F80801D4F81B
:1025C8000C01C0070CD1D4F80C01C00704BFD4F823
:1025D8000C015FEAC07003D1D4F80C01C007EED03B
:1025E8004FF0010C0522C4F80CC14FF6E863D4F88B
:1025F8000811CFF6FF7321F00101C4F8081158F84B
:10260800781C62F3030148F8781C029E716841F057
:10261800040171600421C6F8841058F8030062F3BD
:10262800030048F8030045F20003DDF80C90C2F2FD
:1026380000030022D9F8040040F01000C9F8040093
:102648001020C9F884000220A3F820C0C6F884101E
:10265800C3E9005203F11002C3E902361E46D961EC
:10266800062182E80902D8F8400061F30300C8F89F
:102678004000D8F8440061F30300C8F84400BAF8F1
:10268800040040F40040AAF80400BAF8040040F43A
:102698008040AAF80400BAF8040020F00300AAF861
:1026A8000400BAF8040040F40050AAF80400BAF88C
:1026B800060040F0200020F05000AAF80600BAF802
:1026C80006006FF31F30AAF8060003F033FBCAB206
:1026D800022A04D1BAF8060040F0040011E041EAE9
:1026E8000002D20700F00A81BAF8062000F00100C3
:1026F80040F6044301F001019A4342EA802040EA8F
:10270800C120AAF8060042F21070554625F80E0FAF
:10271800BBF8880100075CBF4DF6F000AAF802007C
:10272800002003F00AFBC1B22846DFE801F00311DC
:1027380006090C0F0AF10A000AE00AF1120007E084
:102748000AF1160004E00AF11A0001E00AF11E007D
:1027580000210180002003F0F6FAC1B22846DFE824
:1027680001F0031106090C0F0AF10A000AE00AF148
:10277800120007E00AF1160004E00AF11A0001E06D
:102788000AF11E004FF4FA7101220180BBF88001A2
:10279800BBF88011000A21F4706162F3DF0041EA9E
:1027A8000020ABF88001012003F0C7FAC1B2284627
:1027B800DFE801F0031106090C0F0AF10A000AE02C
:1027C8000AF1120007E00AF1160004E00AF11A0003
:1027D80001E00AF11E0000210180012003F0B3FA94
:1027E800C0B2DFE800F0031106090C0F0AF10A0570
:1027F8000AE00AF1120507E00AF1160504E00AF1F9
:102808001A0501E00AF11E054FF4FA702880BBF89A
:102818008001BBF8801140F0800000F0F00021F04A
:1028280070010843ABF88001BBF8880140F008004C
:1028380020F00700ABF88801BBF88801BBF88811C5
:10284800020A012060F3DF0221F4706141EA0221EB
:102858004FF6F862ABF88811CFF6FF7258F80230DD
:10286800052161F3030348F80230D9F8042042F443
:102878008072C9F804204FF48072C9F88420D8F80F
:10288800282061F30302C8F82820009B5A6842F404
:1028980080625A604FF48062C3F884204FF6EC627D
:1028A800CFF6FF7258F8023061F3030348F802309C
:1028B800D9F8042022F02002C9F804204FF6F0626B
:1028C800CFF6FF7258F8023061F3030348F802307C
:1028D800D9F8042022F04002C9F80420019A908314
:1028E8000620C2E90064C2E90291C2E90490C2F874
:1028F80018A00DF2F44DBDE8000FF0BD002040F225
:1029080000010C90C2F2200109900120089040F2C9
:102918003400C2F220000B9140F29801079007A8FA
:10292800C2F2200106F03AFBFEDEF0B503AF2DE956
:10293800000FADF5197D13AD04464FF4E07228463B
:1029480007F093FB05F1340005F1380105F1540255
:1029580000F0E5F9459803F07FF95D98016841F0CA
:10296800010101605D98016821F002010160439E48
:102978000021C0F80811C0F81811C0F82811C4E9DE
:102988000000C4E90200C0F83811306820F00100E6
:102998003060306840F4004030603068000409D589
:1029A8003068000444BF30685FEA004002D53068F0
:1029B8000004F2D43F20B060306820F0010030609D
:1029C800DDF81081D8F8000020F00100C8F80000F8
:1029D800D8F8000040F40040C8F80000D8F800001B
:1029E80000040CD5D8F80000000444BFD8F8000053
:1029F8005FEA004003D5D8F800000004EED43F2079
:102A0800C8F80800D8F8000020F00100C8F8000055
:102A18006A9803F01BF9DDF84C90CDE9111040F2EB
:102A28006341D9F8480040F00100C9F84800D9F8D6
:102A380044000843C9F84400D9F84400012161F36F
:102A48008300C9F84400D9F8440020F08000C9F890
:102A58004400D9F8480040F02000C9F84800D9F8E7
:102A6800440040F44040C9F84400D9F8440040F418
:102A78004470C9F84400D9F8480040F08000C9F80B
:102A88004800D9F8580000070CD0D9F858000007BA
:102A98001CBFD9F858005FEA007003D0D9F8580075
:102AA8000007EED1D9F8480040F2634140F0200019
:102AB800C9F84800D9F8440020F44040C9F8440057
:102AC800D9F84400DDF850A020F4447000F588706F
:102AD800C9F84400DAF8480040F00100CAF8480094
:102AE800DAF844000843CAF84400DAF8440001213F
:102AF80061F38300CAF84400DAF8440020F080004B
:102B0800CAF84400DAF8480040F02000CAF8480043
:102B1800DAF8440040F44040CAF84400DAF84400C7
:102B280040F44470CAF84400DAF8480040F08000E5
:102B3800CAF84800DAF8580000070CD0DAF858004C
:102B480000071CBFDAF858005FEA007003D0DAF813
:102B580058000007EED1DAF8480040F02000CAF823
:102B68004800DAF8440020F44040CAF84400DAF893
:102B7800440020F4447000F58870CAF84400DDF879
:102B8800C8B103F010F8054603F00FF8034683A810
:102B980059462A4603F00BF86D9995A84FF48052D0
:102BA80003F008F93A9810903C980F903D980E90D1
:102BB8003E980D9074980C9077980B907998DDE971
:102BC8002A120A9004F1340003F047F85F9A4FF490
:102BD800704102F59070C4F8780202F1C000C4F8A0
:102BE800740202F16000C4F870020F20C4E99A224E
:102BF800A2F88C11A2F88E01209A0992219A0892C3
:102C0800289A07924B9A06924D9A0592529A0492E4
:102C1800549A0392559A02925A9A0192609A589D30
:102C280002F59073C4F88C3202F1C003DDF858B194
:102C3800C4F88832A2F88C11C4E99F22A2F88E0148
:102C48006032C4F88422619A02F1C003C4F89C324D
:102C580002F16003C4F8983202F59073C4F8A03208
:102C6800A2F88C11C4E9A422A2F88E01629A02F19A
:102C78006003C4F8AC3202F1C003C4F8B032A2F861
:102C88008C1102F59071C4F8B41283A9C4E9A92281
:102C9800A2F88E0104F53070482207F0E6F903988F
:102CA80095ABC4F85C0204F5427C0298C4F8600253
:102CB8000198C4F864021198C4F834021298C4F850
:102CC80038020998C4F83C020898C4F840020798EA
:102CD800C4F844020698C4F848020598C4E9046890
:102CE800109EC4F84C020498A6610F9EC4F85002C6
:102CF8000A98E6610E9E20630FCB26620D9E6662DF
:102D08000C9EA6620B9EC4E9AE9AC4E9955BE66286
:102D18008CE80F000DF5197DBDE8000FF0BDF0B58A
:102D280003AF4DF804BD0E4600211546044602F0D7
:102D3800CEFF284640F2E24102F0CFFF304603F0D2
:102D4800ADF840F288152146C2F220050022284637
:102D5800366803F06DF8A81C2146002203F068F8D5
:102D6800281D2146002203F063F8A81D21460022F1
:102D780003F05EF805F108002146002203F058F838
:102D880005F10A002146002203F052F805F10C0073
:102D98002146002203F04CF805F10E0021460022DE
:102DA80003F046F805F110002146002203F040F830
:102DB80005F112002146002203F03AF805F114004B
:102DC8002146002203F034F805F1160021460022BE
:102DD80003F02EF805F118002146002203F028F828
:102DE80005F11A002146002203F022F805F11C0023
:102DF8002146002203F01CF805F11E00214600229E
:102E080003F016F820684169890107D5416921F066
:102E180000714161204602F04BFF206841690122A0
:102E280021F0605141612068816962F30D3181614F
:102E3800204602F03DFF2068416941F00071416180
:102E4800204602F035FF4FF4805030606420306037
:102E58004FF4005070603068002809D430680028AA
:102E68005CBF3068002803D43068B0F1FF3FF2DC63
:102E780020680122016962F302010161204602F023
:102E880017FF2068416921F4E0514161204602F0B2
:102E98000FFF2068816941F4402181612068416900
:102EA80021F000714161204602F002FF206840F2E3
:102EB800FA15C2F220050022416941F440714161CE
:102EC8002846214602F0B4FFA81C2146002202F041
:102ED800AFFF281D2146002202F0AAFFA81D2146A7
:102EE800002202F0A5FF2068022640F2F215002217
:102EF800C2F22005816B66F3D84181632068816B3B
:102F080041F4802181632846214602F091FFA81CE4
:102F18002146002202F08CFF281D2146002202F0E3
:102F280087FFA81D2146002202F082FF206840F298
:102F3800A8150322C2F22005816966F30511816193
:102F48002068816962F39C618161284621460022DC
:102F580002F06EFFA81C2146002202F069FF281D1E
:102F68002146002202F064FFA81D2146002202F03B
:102F78005FFF05F108002146002202F059FF206892
:102F8800172240F2D215C2F22005C16962F3050189
:102F9800C16120680022C16941F04001C161284631
:102FA800214602F045FFA81C2146002202F040FFFE
:102FB800281D2146002202F03BFFA81D21460022C1
:102FC80002F036FF05F108002146002202F030FF2A
:102FD80005F10A002146002202F02AFF05F10C0043
:102FE8002146002202F024FF05F10E0021460022AE
:102FF80002F01EFF206840F20225C2F220050322DB
:10300800416A41F0400141622068416A66F3050166
:1030180041622846214602F00BFFA81C21460322E4
:1030280002F006FF281D2146032202F001FFA81D19
:103038002146032202F0FCFE05F108002146032286
:1030480002F0F6FE05F10A002146032202F0F0FE26
:1030580005F10C002146032202F0EAFE05F10E00FC
:103068002146032202F0E4FE05F110002146032266
:1030780002F0DEFE05F112002146032202F0D8FE1E
:1030880005F114002146032202F0D2FE05F11600D4
:103098002146032202F0CCFE05F118002146032246
:1030A80002F0C6FE05F11A002146032202F0C0FE16
:1030B80005F11C002146032202F0BAFE05F11E00AC
:1030C8002146032202F0B4FE05F120002146032226
:1030D80002F0AEFE05F122002146032202F0A8FE0E
:1030E80005F124002146032202F0A2FE05F1260084
:1030F8002146032202F09CFE05F128002146032206
:1031080002F096FE05F12A002146032202F090FE05
:1031180005F12C002146032202F08AFE05F12E005B
:103128002146032202F084FE05F1300021460322E5
:1031380002F07EFE05F13200214603225DF804BB51
:10314800BDE8F04002F074BEF0B503AF2DE9000F02
:1031580087B00546086C002840F0AC8091F844A080
:10316800002008640C460AF1010081F84400086850
:10317800002840F09A804FF0FF30261D91462060CD
:10318800FF20082103220290CDE90021304680214A
:10319800002204F0A7FB8B462168C00701F101015A
:1031A800216040F09980206C002840F0838094F8DA
:1031B800443000200029206403F1010284F84420EF
:1031C80073D14FF0FF31002221600221CDE90019AF
:1031D800002102903046049304F084FB2268C00763
:1031E80002F10102226040F08C80002A03915CD138
:1031F8004FF0FF30C846206002204FF000098DE8EC
:10320800010330468021002204F06CFBC00701BF97
:1032180085F82CA00222A5F81F20A97701BFA5F8E0
:103228001C80049885F82D004FF6037001BFA5F89F
:10323800070085F806B00820A88001BFA5F82E90E1
:1032480085F82A904FF40060288501BF4FF4FA50A2
:103258006862A5F81320206801BF0399A974A5F82E
:103268001080013001BF44F83C0BAC612C60EC606D
:1032780002BF07B0BDE8000FF0BD206840F2482348
:1032880007F8211CC2F220030130206040F2B4206C
:10329800A7F12102C2F22000009040F23620C2F2CB
:1032A80020000F2105F0E9FEFEDE40F2D430C2F224
:1032B800200003E040F21440C2F2200040F2244310
:1032C800009040F2C21006AAC2F22000C2F2200307
:1032D800102105F0D2FEFEDE40F2C42040F2482361
:1032E800C2F22000A7F12302009040F23620C2F279
:1032F8002000C2F2200307F823BC0F2105F0BDFE11
:10330800FEDE40F2B42040F24823C2F2200007F863
:10331800221C009040F23620C2F22000C2F22003A4
:10332800A7F122020F2105F0A8FEFEDE7047F0B5D6
:1033380003AF2DE9000F81B045F224014FF0010CD5
:10334800C2F20001BFF35F8FD1E84F2FC1E843CF2E
:10335800002BF9D1BFF35F8F002A01BF48F20001AB
:10336800C4F20D010022C4F22F0201BF02F5542C51
:1033780002F5502E02F54C28A1F5004401BFA1F535
:10338800003501F5F61601F5F413C0E9683601BFFA
:10339800C0E96A54C0E96C8EC0E96EC101F5005EEF
:1033A80001BF01F5805640F2040CC4F22E0C01F561
:1033B800021401BF0CF5FE7501F5004300F5C07855
:1033C80088E8380001BF00F5C67383E81210C0E929
:1033D800666EA1F5404C01BF01F5881E01F58618FF
:1033E80001F5841401F5821301BF01F5003602F5D9
:1033F8001025C0E9585600F5B47501BF85E81A4193
:10340800C0F87CC1A1F5804C02F51C2E01BF02F565
:10341800182802F51424A1F5E03301F5282601BF88
:1034280001F5EE15C0E9505600F5A47585E8184178
:1034380001BFC0E9562C02F5782802F5742902F577
:10344800702401BF02F56C234CF2000CC4F2070C87
:103458000CF5004601BF01F5E03E01F58E15C0E907
:10346800485EC0E94A6101BF00F5987585E8180211
:10347800C0F83C8101F5482801BF01F5442901F550
:10348800402A01F53C2B01F5382301BF01F534240E
:1034980001F5302501F52C26C0E9406501BFC0E9DA
:1034A8004243C0E944BAC0E9469802F5302801BF52
:1034B80002F52C2902F5282A02F5242B02F5861399
:1034C80001BF02F5841402F5821502F58016C0E9E1
:1034D800386501BFC0E93A43C0E93CBAC0E93E9843
:1034E80001F5F01801BF01F59219A1F5503AA1F5BF
:1034F800403BA1F5303301BF01F5901401F58C155F
:1035080001F58A16C0E9306501BFC0E93243C0E958
:1035180034BAC0E9369844F2000B01BFC4F2002B5C
:103528000BF500490BF5804A4FF0844801BF01F5BF
:103538006C2601F5682401F56425A1F5C03301BFA7
:10354800C0E9283500F1A80383E85009C0E92EA98D
:1035580001BF01F5602801F5E61901F5E81AA1F5A2
:10356800203601BF0BF5E03301F5582401F5542549
:10357800C0E9205401BF00F1880484E84804C0E988
:10358800259EC0F89C8001BFA1F5103E01F5FE18EC
:1035980001F5001902F5642A01BF02F5602302F55E
:1035A8005C2602F5582501F5A03401BF00F1600B37
:1035B8008BE87000C0E91B3AC0E91D9801BFC0F84C
:1035C8007CE001F5803E02F540480CF5804901BFDA
:1035D80001F5804A01F5F21344F20806C4F209061F
:1035E80001BF06F1100506F10804C0E91064C0E93E
:1035F800125301BFC0E914A9C0E9168E0CF5C03EEC
:1036080001F5103801BF01F5801901F57C2401F599
:10361800782302F57C2601BF02F54825C0E9085643
:1036280000F1280585E8180201BFC0E90D81C0F83E
:103638003CE002F5442E02F50C2601BF01F5D21537
:1036480001F5242402F54022A1F5803301BFA1F53C
:10365800A031C0E90013C0E9022C103001BF80E896
:10366800704001B0BDE8000FF0BD40F2D42040F238
:103678006832C2F22000C2F22002352105F0A4FC13
:10368800FEDE7047704780B56F4600F0ACFB80BD2A
:1036980080B56F464EF20C1C4FF4003ECEF2000C83
:1036A80044F2B822CCF880E0C2F20002BFF35F8F88
:1036B800D0E900318068C2E900319060BFF35F8FC4
:1036C800CCF800E1CCF800E080BDF0B503AF4DF8D0
:1036D80004BD88B045F22806C2F20006306828B159
:1036E80008B05DF804BBBDE8F040004744F2B820DC
:1036F800C2F200000068062817D149F2000005A9A7
:10370800C4F20D00012207900020C4F22E00CDE97A
:10371800050002A800F07CF80298002850D1039D0B
:10372800356008B05DF804BBF0BD00F041FC00F066
:103738003EFC48F278150290C2F2000505F21240EC
:103748000122BFF35F8FD0E84F1FC0E8432F002B43
:10375800F9D10029BFF35F8F3ED105F110004FF476
:10376800806106F080FC05F060FB44F2B821044655
:10377800C2F20001284602F0F8F850BB49F20000F6
:1037880048F27812C4F20D0002AB07900020C4F290
:103798002E00C2F20002CDE9050005A8012100F0C3
:1037A80083F841F64D30C0F2000002F0DEF905461C
:1037B800204605F045FB356008B05DF804BBF0BD58
:1037C80002AA05AB07CA07C340F2CC40C2F22000E8
:1037D80010E0204605F034FB49F20000C4F20D0069
:1037E80007900020C4F22E00CDE9050040F2DC402D
:1037F800C2F2200040F26043009040F2344005AA33
:10380800C2F22000C2F220032B2105F036FCFEDEB6
:10381800F0B503AF2DE9000B84B090460E46044680
:1038280000F0C6FB00F0C3FB48F278150090C2F226
:10383800000505F212400122BFF35F8FD0E84F1F49
:10384800C0E8432F002BF9D1BFF35F8F31B196E861
:10385800070007C404B0BDE8000BF0BD05F1100077
:103868004FF4806106F0FFFB05F0DFFA8146284639
:1038780002F07CF996E8070001AB07C301A86B4684
:1038880041462A4600F010F841F64D30C0F20000DB
:1038980002F06BF90021C4E90010484605F0D0FA9F
:1038A80004B0BDE8000BF0BDF0B503AF2DE9000F83
:1038B800C9B08B4648F23411C2F200011D460A60B5
:1038C8008DF80BB0D0F800A0866805F0CBFA46F268
:1038D800000441F23810C2F200042118BFF35F8FD0
:1038E80051E8000F40F0004241E80023002BF7D1D7
:1038F800B0F1FF3FBFF35F8F40F3E18045F22C004A
:103908000122C2F20000BFF35F8F00F5A060D0E88B
:103918004F1FC0E8432F002BF9D101950029BFF3B1
:103928005F8F40F0D88045F22C004FF4A061C2F2BE
:10393800000004F051FC41F23812CDE93DA60DF12A
:10394800F40A224404F58653CDE93F014792062242
:103958004FF0000950460121CDE9442304F5805376
:1039680046924393CDE94142ADF8209102F0BCFA6A
:10397800BAE87E000DF10C0808F104007EC09AE850
:103988007E007EC0012059468DF840004046CDF8A3
:103998000C9003F071FD019B0DF10B0240460021D4
:1039A80000F096F9414648F2000A5CC9C2F2000AE2
:1039B8000AF104005CC07CC97CC091E87C005146D7
:1039C8007CC04FF480604FF40072AAF8440040466F
:1039D800CAE90F99CAF80090FFF7B6FBB8E87E006D
:1039E80048F23810C2F200007EC098E87E007EC01F
:1039F8004FF0485003ACCDF816010220C4F2000085
:103A08003DAACDF812011020ADF8100145F62400AA
:103A1800C2F2DD70514643900920409040F2EC40DC
:103A2800C2F22000CDF804913F902046CDF8F490E2
:103A380000F065F8039D8121284603F078FD2846AB
:103A4800012103F074FD2846822103F070FD284609
:103A5800022103F06CFD2846832103F068FD284607
:103A6800032103F064FD2846842103F060FD284605
:103A7800042103F05CFD2846852103F058FD284603
:103A8800052103F054FD2846862103F050FD284601
:103A9800062103F04CFD2846872103F048FD2846FF
:103AA800072103F044FD48F248002146C2F2000015
:103AB800E82206F0DAFA49B0BDE8000FF0BD40F29E
:103AC800F54040F28452C2F22000C2F220021F21C7
:103AD80005F0E7F9FEDE40F2681040F27452C2F2D7
:103AE8002000C2F22002202105F0DBF9FEDE0846A4
:103AF80040F29451C2F22001122205F07DBEF0B5C9
:103B080003AF2DE9000F89B004460868002840F08B
:103B1800968092F821604FF0FF3001F104080860A8
:103B2800002091468A46CDE90006029040460021D1
:103B38000122002303F0D6FE0D46DAF80010C00774
:103B480001F10101CAF800107ED1002977D14FF0A8
:103B5800FF308021CAF800000020CDE900060122CC
:103B680002904046802303F0BDFEDAF80020C0072B
:103B780002F10102CAF8002078D1DAF840000028E2
:103B880040F089804FF0FF30002ACAF8400040F02A
:103B98008780CAF80000404604968B46059503F0D6
:103BA80039FFDAF800000130CAF800007DD34FF081
:103BB800FF304AF83C0B201DBFF35F8FCAF8008026
:103BC800BFF35F8FB9E86E006EC099E86E006EC0F3
:103BD800002517F8230C049B37F8251C059A84F850
:103BE800430004F1600084F83220BDF81820A4F8DE
:103BF80041108021A38723869DF81A3084F83EB0AF
:103C0800A4F83F50C4F838A0A4F83350C4F82CA046
:103C180084F83730A4F8352006F025FA4FF0806094
:103C2800C4E913556564A4F8545084F8E450C4F802
:103C3800E000C4F8008009B0BDE8000FF0BD40F214
:103C4800D430C2F2200034E040F2186040F2A853A9
:103C5800C2F22000A7F12202009040F22810C2F21E
:103C68002000C2F2200307F8225C10E040F228602E
:103C780040F2A853C2F2200007F8211C009040F23D
:103C88002810C2F22000C2F22003A7F1210220214D
:103C980005F0F3F9FEDE40F2E430C2F2200008E05D
:103CA80040F2F430C2F2200003E040F20440C2F2D5
:103CB800200040F22443009040F2C21008AAC2F249
:103CC8002000C2F22003102105F0D7F9FEDE70476C
:103CD800F0B503AF2DE9000784B0044690F834002E
:103CE8001D4691460E4678B32068002867D14FF0EC
:103CF800FF3031462060201D03F0A5FA02AECDE961
:103D08000201D5F80080304699F8005003F0B2FA65
:103D1800304603F0F5FA002D18BF01253046294634
:103D280003F0FAFA3046012103F0BCFA3046414666
:103D380003F0C4FA304603F0A9FA20680130206085
:103D480004B0BDE80007F0BD05F089F8804605F02D
:103D58007CF805F087F8206888BB4FF0FF303146C3
:103D68002060201D03F06FFA02AECDE90201D5F8FC
:103D780000A0304699F8005003F07CFA304603F072
:103D8800BFFA002D18BF01253046294603F0C4FAB2
:103D98003046012103F086FA3046514603F08EFA88
:103DA800304603F073FA2068013020605FEAC8707B
:103DB80008BF05F04CF804B0BDE80007F0BD40F2BC
:103DC800946040F2A463C2F2200002AA009040F27C
:103DD800C210C2F22000C2F22003102105F04DF9F2
:103DE800FEDE7047FEE740F2B4620021C2F2200214
:103DF8000523C0E90032816070477047F0B503AF12
:103E08004DF8048D84B040F2B46048F2301848F29E
:103E18004805C2F220000390C2F2000808F1080029
:103E2800C2F2000502A902902846012200F02CFBEC
:103E380004462868002101F0C7F8064695F8E01006
:103E480098F80000022933D148B9286803F009FD21
:103E58002868002101F033F9012088F80000D8F81B
:103E680014000168BFF35F8F002900F094800020E0
:103E780098F81A2040F2E863009002A8C2F22003E2
:103E8800344303F06BFF7CB1D8F804000123BFF37F
:103E98005F8F00F58261D1E84F2FC1E8463F002EC1
:103EA800F9D1BFF35F8F7AB104B05DF8048BF0BD30
:103EB80018B12868002101F065F9002088F8000091
:103EC80004B05DF8048BF0BD0668BFF35F8F8268AD
:103ED800BFF35F8F4368BFF35F8F934205D19E4264
:103EE8003EBFBFF35F8F002343609E4228BF324628
:103EF8009A4207D10020BFF35F8F087004B05DF8C5
:103F0800048BF0BDD8F82010D8F804400968BFF336
:103F18005F8F00293FD0D61A184498F8262000F160
:103F2800100302A83546B6F5007F28BF4FF4007588
:103F3800009503F057FE9DF8080078B194F8100436
:103F4800BFF35F8F0028AFD0201DBFF35F8F50E80D
:103F5800001F40E80012002AF9D113E0039894F8F2
:103F68001014BFF35F8F00299ED0211D864238BFF1
:103F78003046BFF35F8F51E8002F024441E8002329
:103F8800002BF8D10020BFF35F8F84F8100404B031
:103F98005DF8048BF0BD40F2747040F2F872C2F222
:103FA8002000C2F22002222105F00EF8FEDE704742
:103FB8004FF47A607047F0B503AF2DE9000F83B076
:103FC80000F12C0B1E4688468246D4006FF002058D
:103FD8008946029264B1F9E8020132464B6A5946B1
:103FE8009847BAF85400083C04382842F2D008E050
:103FF800F07950B1BAF854006FF002010438084261
:104008002BD003B0BDE8000FF0BD317A707A0229D9
:104018004FD0012961D00029ECD1002800F086801A
:10402800062800F0A280082804BFBAF85400042823
:10403800E0D19AF8E0000121AAF8541000220238D1
:10404800BAF85A10B0FA80F0002918BF01214009C7
:10405800CAE913218AF8600083E0DAF82C00092104
:10406800AAF854100068BFF35F8FB0B19AF8321005
:10407800012203F02FFFDAF838000068BFF35F8FE2
:1040880000281FBF9AF83E10012203B0BDE8000FB8
:104098001CBFBDE8F04003F01DBF40F2747040F251
:1040A800F872C2F22000C2F22002222104F08CFF32
:1040B800FEDE00289ED17188DAF8000001F08F0139
:1040C80003F08AFFBAF85410042993D1AAF86000C3
:1040D8000120AAF8540000201EE090B10A2804BF6D
:1040E800BAF8540004287FF485AFBAF85A100020B3
:1040F80001228AF86000AAF85420002918BF01217B
:104108000FE0BAF8540004287FF474AF00200121AE
:10411800AAF86000AAF85410BAF85A10022928BF61
:104128000221CAF84C00CAF850101AE0BAF8540034
:1041380004287FF45FAF9AF8E1000122AAF854201E
:1041480000229AF8E210002818BF0120BAF85A3065
:1041580041EA4000AAF86000022B28BF0223CAE9FE
:104168001323584600F015FC44E700960AF10400B2
:10417800029A41465B4600F0D7F83BE7F0B503AF3B
:104188002DE9000784B000F12C0A99460C468046B8
:10419800D5006FF0020665B1F4E802014A460B6AE1
:1041A80051469847B8F85400083D04383042F2D0D8
:1041B80009E099F8070050B1B8F854006FF002010F
:1041C800043808421ED004B0BDE80007F0BD99F8D5
:1041D800082099F80900B9F80010AAB3012A44D0B8
:1041E800022AE9D103286AD0012808BF0029E3D1AF
:1041F800B9F802100022D8F8000001F08F0103F08E
:1042080069FE86E0D8F82C000921A8F85410006847
:10421800BFF35F8F002846D098F83210012203F0D0
:1042280059FED8F838000068BFF35F8F00281FBF19
:1042380098F83E10012204B0BDE800071CBFBDE895
:10424800F04003F047BE2EE001380828B4D8DFE874
:1042580000F0060543054A0505055400ACE70129A9
:10426800AAD1002088F8E10053E00B28A4D1002946
:1042780004BFB8F8540006287FF49EAFD8F8380079
:104288000168BFF35F8F71B198F83E20002040F6B7
:104298000803009002A8C2F2200303F0A3FC082040
:1042A800A8F8540088E740F2747040F2F872C2F23D
:1042B8002000C2F22002222104F086FEFEDE002940
:1042C8007FF47AAFB9F802100122D8F8000001F0A3
:1042D8008F0103F0FFFD1CE001297FF46DAF012081
:1042E80088F8E10015E0481E80B27F28BFF464AF6B
:1042F800D8F8000003F041FB08E021B101297FF460
:104308005BAF022003E098F8E00038B1012088F89C
:10431800E0005046494600F02EFE4DE7504649461B
:1043280000F0FCFD48E7D4D4F0B503AF2DE9000B4D
:1043380088B00646B86814460D4698460196018925
:1043480002684068ADF81010CDE9022002A804F018
:10435800A1FB4FF0FF3252FA80F00E2800F2638082
:10436800DFE800F008101C616161616161616161F1
:1043780061612A0001A9404600F0FFFC08B0BDE8D1
:10438800000BF0BD01A805A905904046CDE90654EB
:1043980000F04CFD08B0BDE8000BF0BDC8B2032822
:1043A80013D8DFE800F002262A3A404600F0B4FBB2
:1043B80008B0BDE8000BF0BD40462946224600F093
:1043C80009FC08B0BDE8000BF0BD084604F043FB4B
:1043D8004CB38146BDF80A6005EBC404D5E9000179
:1043E80032464B694946984768B90835A542F5D120
:1043F80019E0311D306828B915E006F10C010836BE
:10440800306880B10968CDE9050105A9404600F08A
:1044180059FC08B0BDE8000BF0BD06F114011036D8
:1044280030680028EED1B8F828006FF0020104388F
:104438000842A3D1D8F800000921A8F8281000687C
:10444800BFF35F8F98B198F80610012203F042FD80
:10445800D8F80C000068BFF35F8F40B198F81210CD
:10446800012203F037FD08B0BDE8000BF0BD40F2B3
:10447800747040F2F872C2F22000C2F220022221C7
:1044880004F0A2FDFEDED4D4F0B503AF2DE9000F91
:104498008DB00468064605A888469246214603F072
:1044A80054FE96F8E000BDF81450032816D1002DEC
:1044B8004FF0000018BF032D03D10DB0BDE8000F69
:1044C800F0BD204603F040FE96F8E300042800F013
:1044D8000881042186F8E00086F8E31005F007005B
:1044E800DFE800F003082448030000200DB0BDE811
:1044F800000FF0BD306803F0D1FA00200421BAF1B2
:10450800000FA6F8E000A6F8E310A6F85400ECD0D7
:1045180008EBCA04A8F1080555F8080F6968896905
:10452800884705F10800A042F6D1DEE7BDF816007D
:10453800BDF81810BDF81A200290084340EA020995
:10454800049103925FEAC97054D00498C0071CBF55
:1045580006F12C0000F078FA0398C00719D10298E8
:10456800C00720D104208DF823009DF823000428DB
:1045780022D13DE0306803F0E7FD96F8E00086F8C8
:10458800E300032086F8E00000200DB0BDE8000F2E
:10459800F0BD06F12C0107A800F045F99DF82300AD
:1045A800042809D124E006F12C0107A800F0A5F899
:1045B8009DF8230004281BD09DF8220000287AD0FB
:1045C800802815D1DDE907010AABBDF82420CDE923
:1045D8000A013046ADF8302041465246FFF7EBFC61
:1045E80029F00109B9F1000FCDE9008A07D14DE0A2
:1045F80029F00109B9F1000FCDE9008A46D00199E7
:10460800002953D0009801264FF0020B00EBC10897
:10461800A0F1080503981BEA000F0BD02C4654F8AC
:10462800080F61688A6A3146904704F108004045DE
:10463800F5D10EE002981BEA000F0AD02C4654F878
:10464800080F6168CA6A3146904704F1080040457E
:10465800F5D104981BEA000F0DD066F07F04AA4636
:104668005AF8080FDAF804100A6B214690470AF145
:1046780008004045F4D129EA0B095FEA094005D052
:10468800701C0F2E4FEA4B0B0646C3D3019969B134
:10469800009800EBC104A0F1080555F8080F6968F7
:1046A800C969884705F10800A042F6D101200DB07C
:1046B800BDE8000FF0BDDDE907010AABBDF8242015
:1046C800CDE90A013046ADF8302041465246FFF7A1
:1046D80055FD29F00109B9F1000FCDE9008A8ED105
:1046E800D4E740F2E86040F26472C2F22000C2F2FD
:1046F80020021C2104F0D5FBFEDEF0B503AF4DF817
:1047080004BD86B00446088D0D46411E032927D3F3
:10471800052825D0072835D1286AD5F82E30698E86
:104728008128D5F82A20ADF80C10CDE9012372D2E2
:1047380029680968BFF35F8F002960D0C0F1800342
:10474800AA792844009300F1340304A803F006FB77
:104758009DF8100000283ED09DF8110008BB34E0F9
:1047680028680168BFF35F8F002948D0AA7940F60E
:10477800080301A80026C2F22003009603F0EEFA0F
:104788002E8522E028680168BFF35F8FB9B3002047
:10479800AA7940F60803009001A8C2F2200303F0AA
:1047A800DDFA2868092129850068BFF35F8F30B3D7
:1047B800A979012203F08EFBE8680068BFF35F8FD8
:1047C800E8B1A97C012203F085FB0420E07106B062
:1047D8005DF804BBF0BD0598D5E9081208442862C5
:1047E8009042F2D3DDE901010623BDF80C202B85A8
:1047F80020606160228106B05DF804BBF0BD40F224
:10480800747040F2F872C2F22000C2F22002222133
:1048180004F0DAFBFEDE40F66C028021C2F22002D0
:1048280004F0F6FFFEDEF0B503AF2DE9000B86B00D
:104838000E46804656F8340B0D460168BFF35F8F6D
:10484800002900F09080AA7903AC802033460090BC
:10485800204603F083FA9DF80C0018B19DF80D006E
:1048680060B921E0049A812A80F089802046314687
:1048780004F0F2F89DF8130004281CD128680921D7
:1048880029850068BFF35F8F00286CD0A9790122C1
:1048980003F020FBE8680068BFF35F8F002862D050
:1048A800A97C012203F016FB042088F8070006B053
:1048B800BDE8000BF0BDE01D9DF81240BDF810608A
:1048C800018880788DF80A002868ADF80810DDF8AE
:1048D8000C900068BFF35F8F002844D0A9790022AC
:1048E80003F0F8FAE4B19DF80A000422BDF80810B4
:1048F80085F83040EE85C5F82A902A85A5F831104C
:1049080085F8330088F80640A8F80460A8F807106E
:10491800C8F8009088F8090006B0BDE8000BF0BDA3
:10492800A6B1802EAAD800229DF80A00BDF808106A
:10493800072385F83020EE85C5F82A902B85C5E930
:104948000826A5F8311085F83300ADE79DF80A0070
:104958000622BDF808102A8500226A6288F8062017
:10496800A8F80420D2E740F2747040F2F872C2F25C
:104978002000C2F22002222104F026FBFEDE40F6CF
:104988007C031046C2F2200380211A4604F065FF1A
:10499800FEDEB0B502AF84B00446D0E90651006A25
:1049A800D4F824C0002D238AAE46ACEB000208BF21
:1049B80004F1340E9A4238BF1346002D03EB000C65
:1049C80008BF80219C4523D38C4529D8E168096814
:1049D800BFF35F8F61B3A27C00930EEB000302A8C4
:1049E80003F000F99DF8080008B104B0B0BD0398C1
:1049F800D4E90812014421629142F6D30021228AA7
:104A0800A1610321904208BF0221218504B0B0BDF5
:104A180040F68C026146C2F2200204F043FFFEDE3B
:104A280040F68C026046C2F2200204F016FFFEDE59
:104A380040F2747040F2F872C2F22000C2F2200212
:104A4800222104F0C1FAFEDEB0B502AF84B00446FC
:104A5800008D0138072835D8DFE800F0040B25342D
:104A68003434344C2046FFF794FF0025284604B020
:104A7800B0BDE0680168BFF35F8F002940D0A27C19
:104A880040F6080302A80025C2F22003009503F0AF
:104A9800A9F89DF808000028E8D103200025208502
:104AA800284604B0B0BD20680068BFF35F8F38B3F4
:104AB800A1790022002503F00DFA0520208528465B
:104AC80004B0B0BD2068092121850068BFF35F8F5D
:104AD800B0B1A179012203F0FDF9E0680068BFF3E5
:104AE8005F8F68B1A17C012203F0F4F90025284604
:104AF80004B0B0BD002001252085284604B0B0BD13
:104B080040F2747040F2F872C2F22000C2F2200241
:104B1800222104F059FAFEDEF0B503AF4DF804BDCA
:104B28008AB00446008D042833D101AD04F1340164
:104B38008022E68D284603F0B2FB40F20940A7F137
:104B4800120227F8120C28460321022303F0B0FBB7
:104B5800C0B2082819D101A803F0A8FB80281DD9E4
:104B68002068092121850068BFF35F8F30B3A179E0
:104B7800012203F0AFF9E0680068BFF35F8FE8B186
:104B8800A17C012203F0A6F902200AB05DF804BB5B
:104B9800F0BD07200AB05DF804BBF0BD0121B042AA
:104BA800218538BF064600212046C4E90816FFF7CC
:104BB800F0FE08200AB05DF804BBF0BD40F2747046
:104BC80040F2F872C2F22000C2F22002222104F060
:104BD800FBF9FEDEF0B503AF2DE9000F8BB083467D
:104BE800008D042826D10D46E9460BF13401904684
:104BF80048468022BBF82EA003F051FB08AE494678
:104C0800304603F03FFE304603F040FEC0B20828AD
:104C18000CD108AE4FEAC8048CB1F5E802010A6964
:104C280031469047083CC0B20828F5D00BB0BDE823
:104C3800000FF0BD07200BB0BDE8000FF0BD08A8BD
:104C480003F0F5FE684603F031FB80281DD9DBF838
:104C580000000921ABF828100068BFF35F8F28B364
:104C68009BF80610012203F035F9DBF80C00006808
:104C7800BFF35F8FD0B19BF81210012203F02AF91D
:104C880002200BB0BDE8000FF0BD01215045ABF884
:104C9800281038BF824600215846CBE9081AFFF78A
:104CA80078FE08200BB0BDE8000FF0BD40F274702C
:104CB80040F2F872C2F22000C2F22002222104F06F
:104CC80083F9FEDEF0B503AF2DE9000B88B004468A
:104CD800008D042830D1D1E90056E84604F13401AA
:104CE80040468022B4F82E9003F0D9FA404629466F
:104CF800324603F005FDC0B2082819D1684603F012
:104D0800D5FA80281DD92068092121850068BFF3BC
:104D18005F8F30B3A179012203F0DCF8E068006806
:104D2800BFF35F8FE8B1A17C012203F0D3F8022022
:104D380008B0BDE8000BF0BD072008B0BDE8000BC7
:104D4800F0BD01214845218538BF81460021204614
:104D5800C4E90819FFF71DFE082008B0BDE8000BDC
:104D6800F0BD40F2747040F2F872C2F22000C2F254
:104D78002002222104F028F9FEDEF0B503AF4DF839
:104D8800048D88B00446008D04282ED10D686E4627
:104D980004F1340130468022B4F82E8003F07FFA03
:104DA8003046294603F0D1FAC0B2082819D168461E
:104DB80003F07CFA80281DD9206809212185006824
:104DC800BFF35F8F30B3A179012203F083F8E06865
:104DD8000068BFF35F8FE8B1A17C012203F07AF885
:104DE800022008B05DF8048BF0BD072008B05DF81C
:104DF800048BF0BD01214045218538BF8046002144
:104E08002046C4E90818FFF7C4FD082008B05DF87B
:104E1800048BF0BD40F2747040F2F872C2F22000C8
:104E2800C2F22002222104F0CFF8FEDEF0B503AF73
:104E38002DE9000788B08246008D04284CD191E8FE
:104E480050026D460AF1340128468022BAF82E80B5
:104E580003F025FA2168284603F011FBC0B20828A0
:104E680036D1B9F1000F10D006EBC9046D46D6E96A
:104E78000001CA6829469047C0B2082828D12846A8
:104E880003F065FB0836A642F1D16D46284603F0CB
:104E980061FB284603F00AFA802822D9DAF80000D4
:104EA8000921AAF828100068BFF35F8F50B39AF859
:104EB8000610012203F00EF8DAF80C000068BFF3C0
:104EC8005F8FF8B19AF81210012203F003F802205C
:104ED80008B0BDE80007F0BD072008B0BDE800072E
:104EE800F0BD01214045AAF8281038BF80460021AE
:104EF8005046CAE90818FFF74CFD082008B0BDE87D
:104F08000007F0BD40F2747040F2F872C2F220005F
:104F1800C2F22002222104F057F8FEDED0B502AF1B
:104F28000446008D6FF00201043808421CBF0720B8
:104F3800D0BD2068092121850068BFF35F8F70B15B
:104F4800A179012202F0C6FFE0680068BFF35F8F15
:104F580028B1A17C012202F0BDFF0820D0BD40F29B
:104F6800747040F2F872C2F22000C2F220022221CC
:104F780004F02AF8FEDED0B502AF84B00446008DF6
:104F8800062812D1E0680168BFF35F8F81B1002065
:104F9800A27C40F60803009002A8C2F2200302F0A7
:104FA80021FE0820208504B0D0BD072004B0D0BD64
:104FB80040F2747040F2F872C2F22000C2F220028D
:104FC800222104F001F8FEDEF0B503AF4DF804BD70
:104FD80084B0044690F834000D46D8B12068002803
:104FE8005BD14FF0FF31204640F8041B294602F000
:104FF8002AF9CDE9020102A802F072F970B302ADF4
:10500800284602F07DF9284602F06AF90028F7D10F
:10501800012528E003F023FF064603F016FF03F0FE
:1050280021FF2068C8BB4FF0FF31204640F8041B21
:10503800294602F008F9CDE9020102A806F00106A6
:1050480002F04EF9B8B102AD284602F059F92846E7
:1050580002F046F90028F7D1012511E002A802F074
:10506800FFF880F00105206801302060284604B070
:105078005DF804BBF0BD02A802F0F2F880F001056B
:105088002068002E00F10100206008BF03F0DFFE59
:10509800284604B05DF804BBF0BD40F6081040F6A1
:1050A8001813C2F2200002AA009040F2C210C2F205
:1050B8002000C2F22003102103F0DFFFFEDEF0B56E
:1050C80003AF4DF804BD84B0044690F834000D4693
:1050D800E0B12068002843D14FF0FF31204640F866
:1050E800041B294602F0AFF8CDE9020102A802F03C
:1050F8002BF900281CBF0DF1080002F0A5F8206864
:105108000130206004B05DF804BBF0BD03F0A7FED9
:10511800064603F09AFE03F0A5FE206800BB4FF098
:10512800FF31204640F8041B294602F08CF8CDE9EF
:10513800020102A806F0010502F006F900281CBFCA
:105148000DF1080002F080F82068002D00F1010040
:10515800206008BF03F07BFE04B05DF804BBF0BD1F
:1051680040F6081040F61813C2F2200002AA009078
:1051780040F2C210C2F22000C2F22003102103F054
:105188007CFFFEDEF0B503AF4DF804BD84B00446E5
:1051980090F834000D46A0B1206890BB4FF0FF3066
:1051A80029462060201D02F04EF8CDE9020102A830
:1051B80002F060F820680130206004B05DF804BB9C
:1051C800F0BD03F04CFE064603F03FFE03F04AFE36
:1051D8002068B0B94FF0FF3029462060201D02F04A
:1051E80032F8CDE9020102A802F044F82068013043
:1051F8002060F00708BF03F02AFE04B05DF804BB86
:10520800F0BD40F6081040F61813C2F2200002AABA
:10521800009040F2C210C2F22000C2F22003102116
:1052280003F02BFFFEDE7047002070477047082010
:1052380070477047F0B503AF4DF8048D0546D07937
:10524800012802BF1646107A012802D05DF8048BA7
:10525800F0BD95F82C008846748803F0FCFBC0B2BA
:105268008442F3D1707A212804BFB088072831D04E
:10527800B8F828006FF0020104380842E6D1D8F8DF
:1052880000000921A8F828100068BFF35F8FA8B1B3
:1052980098F80610012202F01DFED8F80C000068EC
:1052A800BFF35F8F00281FBF98F8121001225DF826
:1052B800048BBDE8F04018BF02F00CBE40F27470D9
:1052C80040F2F872C2F22000C2F22002222103F05A
:1052D8007BFEFEDEB8F828000428B7D1B8F82E0007
:1052E800012395F8291095F82A200728A8F82830CE
:1052F80095F828306E6A4FF00005C8F8346088F8D1
:10530800383088F8392088F83A1028BF0720C8E9CB
:10531800085040465DF8048BBDE8F040FFF739BB04
:10532800F0B503AF4DF8048D84B00546D079012857
:1053380002BF1646107A012803D004B05DF8048B2A
:10534800F0BD95F82C008846748803F084FBC0B241
:105358008442F2D1707A88B1202814D022284AD108
:105368003078B8F8281000F0010285F82E20C0F334
:10537800400085F82F000629DFD124E0B8F828007E
:105388000628DAD11FE0D8F82400812866D206283A
:1053980031D998F83800D8F83410696200F0F0FB79
:1053A80098F83910C0B285F82800084600F0EDFBDF
:1053B80098F83A20C0B2B8F8281085F82A0085F87D
:1053C80029200629B9D1D8F80C000168BFF35F8FEE
:1053D800C1B398F81220002040F60803009002A8F4
:1053E800C2F2200302F0FEFB0820A8F8280004B04F
:1053F8005DF8048BF0BDB8F828006FF0020104389E
:1054080008429AD1D8F800000921A8F828100068A5
:10541800BFF35F8FB0B198F80610012202F05AFD71
:10542800D8F80C000068BFF35F8F00281FBF98F8FA
:105438001210012204B05DF8048B1CBFBDE8F040D7
:1054480002F048BD40F2747040F2F872C2F22000D7
:10545800C2F22002222103F0B7FDFEDE40F69C02D4
:105468008021C2F2200204F0F8F9FEDEF0B503AFA5
:105478002DE9000B84B090F82C60814600250220AD
:10548800CDE900050C46084631460222022303F006
:1054980072F8C0B208286ED1204631460222022393
:1054A800009503F0BEF8C0B2082864D140F628126F
:1054B8002046C2F220022421032302F0F9FEC0B2E2
:1054C800082858D140F62B122046C2F22002242187
:1054D800022302F0EDFEC0B208284CD1304603F09A
:1054E800BAFA99F82D800646404603F0B4FA07F850
:1054F8001C0C0620A7F11E0207F81E0C20462421CA
:10550800032307F81D6C02F0D3FEC0B2082832D17D
:10551800404603F0A0FA07F8190C0120A7F11B0276
:1055280027F81B0C20462421032302F0C1FEC0B239
:10553800082820D12046494600F039F8C0B208288A
:1055480019D199F82D100020009020460A22002336
:1055580003F067F8C0B208280DD109F118012046F8
:1055680000F025F8C0B2082805D109F10C01204641
:1055780000F01DF8C0B204B0BDE8000BF0BDD0B516
:1055880002AF82B00446684600F004FBDDE9000182
:10559800C4E909010020E08502B0D0BD0A46D0E97F
:1055A8000031184604F02EB9006803F08CBDF0B540
:1055B80003AF4DF804BD8C46416959B3416883690E
:1055C8008B4244D20268D0F808E0D45C0134D45449
:1055D8000EF102038B4219D80EF58074A14238BF30
:1055E8000C469C4243D3E41A052C0FD3BCF8065052
:1055F800BCF80440D55213449CF808601E71260A72
:105608009C700EF107048C42DE7007D902205DF809
:1056180004BBF0BD07205DF804BBF0BD8E451ED26B
:10562800072302F80E300EF101038B423FBF05211C
:10563800D154846008203CBF5DF804BBF0BD40F63F
:10564800B012C2F22002184603F0F7FCFEDE40F664
:10565800C012C2F22002184603F0EFFCFEDE40F64C
:10566800A0127046C2F2200203F0E7FCFEDE40F60C
:1056780090121846C2F22002214604F013F9FEDE09
:105688007047F0B503AF4DF804BD84B000688029B9
:1056980006684FF00000029003D201248DF808102C
:1056A80034E0B1F5006F09D20224084664F39F1074
:1056B8008DF80900C02040EA911025E002200A4632
:1056C80060F39F12B1F5803F0DD28DF80A208A0948
:1056D80060F39F12E02040EA11308DF809208DF820
:1056E8000800032412E08DF80B208A0960F39F124A
:1056F8008DF80A200A0B042460F39F12880C1E21DF
:105708008DF8092061F3DF008DF8080003F08DFBA8
:1057180005463068B0B94FF0FF30321D306002A83E
:10572800214600F040F904463068013030602846D0
:1057380003F086FBE0B2033818BF012004B05DF81F
:1057480004BBF0BD40F6842040F6E813C2F2200006
:1057580003AA009040F2C210C2F22000C2F2200355
:10576800102103F08AFCFEDEF0B503AF4DF804BD4E
:1057780088B0006802AA019091E87850104640F677
:10578800D011C2F2200180E8785001A803F0AFFCE4
:1057980008B05DF804BBF0BDF0B503AF4DF8048D5B
:1057A80082B0006815460E46046803F03EFB80464A
:1057B8002068B0B94FF0FF30221D206030462946DE
:1057C80000F0F1F80546206801302060404603F0FB
:1057D80037FBE8B2033818BF012002B05DF8048B2C
:1057E800F0BD40F6842040F6E813C2F2200001AA7A
:1057F800009040F2C210C2F22000C2F22003102131
:1058080003F03BFCFEDEF0B503AF2DE9000748F2DC
:105818009C52D1F80080C2F200021268904503D968
:105828000020BDE80007F0BDC2683AB380680025D3
:10583800D1E9019A02EB4201061D8C0005E00C3CFF
:1058480006F10C0605F10105EAD030685045F6D19D
:1058580056F8040C4946524604F03DFA0028EED1A9
:10586800706800218045A0F10600B0FA80F098BF6A
:10587800012140090843BDE80007F0BD0120BDE84B
:105888000007F0BDF0B503AF2DE9000F93B000900D
:1058980048F29C50C2F20000D1F80090006881459F
:1058A80023D88A460099C86818B3896800EB400075
:1058B800DAE901B54FF000080C1D860005E00C3E42
:1058C80004F10C0408F101080FD02068A842F6D1B1
:1058D80054F8040C59462A4604F0FDF90028EED184
:1058E8006068062818BF814505D913B0BDE8000FC8
:1058F800F0BDDAE901B5009840F6D011019043F205
:10590800F920C0F200000DAA07900BA8069043F2F8
:10591800ED20C0F20000C2F22001059009A8049011
:1059280046F62920C0F20000CDF82090039008A880
:1059380002900AF10C000B9001A80C900320129021
:1059480002A8119000200F9004200E9040F600202D
:10595800C2F22000CDE909B50D900CA803F0C7FBF1
:1059680013B0BDE8000FF0BD7047D0B502AF48F2E4
:1059780068120C46D1E901C3C2F200020021C2E953
:1059880002C3C2E9001040F6A021C2F2200110466D
:1059980003F0B4F9002801BF216848F29C52C2F212
:1059A80000021160D0BDF0B503AF2DE900078046B5
:1059B800106892460D4600F211430122BFF35F8F33
:1059C800D3E84F1FC3E8462F002EF9D1BFF35F8FEE
:1059D80019B10120BDE80007F0BD0168BFF35F8F72
:1059E8004268BFF35F8F8A4204D9CE4312EB06099F
:1059F8000BD172E0B1F5806F05D1012A6DD9A2F102
:105A08000109002101E0C1F580692E46A94538BF8A
:105A18004E467218BFF35F8FC2600844414610308B
:105A28003246DAF8004004F01CFB94F81104BFF386
:105A38005F8F40B3206804F10C01BFF35F8FBFF3A1
:105A48005F8F51E8002F41E80023002BF9D1BFF305
:105A58005F8FB0F5806FA268BFF35F8FE168BFF317
:105A68005F8F01D0814203D3914204D94FF4806003
:105A7800BFF35F8FA060BFF35F8F21600020BFF38B
:105A88005F8F84F81104A9456BD2DAF80000AA1BCD
:105A980008EB0601012500F21143BFF35F8FD3E83D
:105AA8004F6FC3E8445F002CF9D1002EBFF35F8F1E
:105AB8008FD10668BFF35F8F4568BFF35F8FB5422C
:105AC80003D9F4432D1912D107E0B6F5806F0CD134
:105AD800012D02D9013D002609E000200021BFF375
:105AE8005F8F1970BDE80007F0BDC6F58065954267
:105AF80038BF2A469319BFF35F8FC3603044103014
:105B0800DAF8004004F0ADFA94F81104BFF35F8F9F
:105B180038B3206804F2114304F10C01BFF35F8F1E
:105B2800BFF35F8F51E8002F41E80026002EF9D11E
:105B3800BFF35F8FB0F5806FA268BFF35F8FE16836
:105B4800BFF35F8F01D0814203D3914204D94FF450
:105B58008060BFF35F8FA0600320BFF35F8F216079
:105B6800BCE70320BDE80007F0BD704748F28C5140
:105B7800C2F2000188600120BFF35F8F0870704790
:105B8800C1B2032928BF00207047C1B2052928BF28
:105B980000207047002181714FF4006181804FF42B
:105BA800FA5101607047022070470F207047B0B566
:105BB80002AF054608680C4640F480300860086863
:105BC80040F040000860222063F31340486040F230
:105BD8006850C0F20C10086240F29510C0F2B20092
:105BE8004862DC20C0F27A0088627D20C0F258004A
:105BF800C8624B20C0F2400008632F20C0F22E007C
:105C08004863886346F62010C86040F6A310886091
:105C18004FF4C840C8614FF4C860886140F6C410AA
:105C2800C0F6804008613F204861086862F30100BF
:105C38000860086820F480300860C86F4021281D7B
:105C480004F011FA10202C606864B0BD00F1340231
:105C580000F15001104670477047F0B503AF2DE9C9
:105C6800000B84B04FF40071044604F0FCF944F2D0
:105C7800C429103CC2F2000909F108060025E846CB
:105C8800D9E9000103960291CDE90050404602F09F
:105C98004DFF9DE80F0001350C3644F8100F202DFC
:105CA80004F104000EC0EBD104B0BDE8000BF0BD58
:105CB800006803E0816C002908BF7047816C29B136
:105CC800816C00291CBF816C0029F3D170470068E2
:105CD800426D61F301024265704740F227629142CA
:105CE80038BF0A46B2F5487F98BF4FF44872A2F50C
:105CF800487144F2AF7300688AB25A43C368A1EB93
:105D0800124189B2490801EB124123F01F0242EA0D
:105D18001111C16004E00168B1F1FF3FD8BF7047BD
:105D28000168002905D4016800295CBF01680029C1
:105D3800F1D570470120002170470221002818BFC3
:105D48000421084670470321002818BF052108468A
:105D5800704780B56F46C1B181421FD8B0FBF1F3DF
:105D6800B0FBF3F0884288BF0133981E38BF00208B
:105D7800FF2828BFFF2000F0FE0140EAC11040F0D4
:105D8800F85040F4F810106480BD40F6303040F60A
:105D98001832C2F22000C2F2200207E040F630308A
:105DA80040F64C32C2F22000C2F22002192103F060
:105DB8000BF9FEDEF0B503AF2DE9000B44F2E0432A
:105DC800C4F21F031B68C3F30B2E4FEA135CE645AE
:105DD8001FBF0124C1F88841DBB24FF47A781FBF96
:105DE80003FB08F9ACEB0E04D1F8906149F658654D
:105DF8001FBFCFF6FF7513FB085393FBF4F3C2EAFA
:105E080006021FBFC1F8902180E80A40C0F80C9034
:105E1800BDE8000B18BFF0BD40F6D03040F6C032E8
:105E2800C2F22000C2F22002192103F0CDF8FEDEF2
:105E380090F800C0DFE80CF004080C1014181C20BF
:105E4800096801F1680C1AE0096801F16C0C16E0A8
:105E5800096801F1700C12E0096801F1740C0EE098
:105E6800096801F1780C0AE0096801F17C0C06E088
:105E7800096801F1800C02E0096801F1840C40789E
:105E88000321DCF800304000C0B2824001FA00F083
:105E980023EA00001043CCF80000704780B56F4635
:105EA80000684FF400514FF480524FF0400C4FF40B
:105EB800803E00E0416103699B04FBD50369DB0474
:105EC80001D44261F7E70369B3F1FF3FF3DC0369EB
:105ED800DB0306D403695B0648BF80BDC0F814C065
:105EE800E9E7C0F818E0E6E780B56F46D0E9002E8C
:105EF8004FF0004C4FF08043CEF834C0CEF838C095
:105F0800CEF838300023CEF800300223C2F84031F2
:105F1800D2F840319B070CD5D2F840319B0744BFDB
:105F2800D2F840315FEA837303D5D2F840319B073A
:105F3800EED44FF0000C0A23C2F840C10029C2F881
:105F4800A831D2F8843123F0807308BF03F180733D
:105F5800C2F88431D2F844110069C2F84411C2F879
:105F680048C1C2F8580180BD80B56F4602464369F2
:105F7800C8B2490041EAD011C8B2834216D9936A1F
:105F880001F00F011B68BFF35F8F9BB223FA01F189
:105F9800C9070BD0516A814284BF012080BD40F6F9
:105FA800C052C2F2200203F048F8FEDE002080BD95
:105FB800F0B503AF2DE9000F83B08046486900288B
:105FC8001FBF886A0068BFF35F8F5FEAC0700BD19C
:105FD80040F6464040F67442C2F22000C2F2200267
:105FE8002B2102F0F1FFFEDE486A002800F015813F
:105FF800086A01260C6890F910E0D4F8AC510EF04C
:106008001F0C06FA0CF62E4218BF072B06D8456857
:106018006D6815F0680F6CD0072074E0D0F800C0E8
:10602800C4F8AC61D4F8403143F40053C4F84031AB
:10603800DCE90A36D4F84051AD0425D4D4F840310F
:1060480043F40053C4F84031DCE90A36D4F840512F
:10605800AD045FBFD4F8403143F40053C4F8403175
:10606800DCE90A365CBFD4F840515FEA85450BD4B9
:10607800D4F8403143F40053C4F84031DCE90A361F
:10608800D4F84051AD04CDD5D4F8405125F400558D
:10609800C4F84051566001251360027CD4F8B861F9
:1060A80053B202F01F02002B48BF360C95402E4019
:1060B800360614D14FF48036B3F1FF3FC8BF01262E
:1060C8004FF47F0306FA02F2C8BFFF231A40C4F850
:1060D800782102681268C2F30A4200F01CFE082008
:1060E800C8F80400002088F8000003B0BDE8000FDD
:1060F800F0BDD4F8B851BEF1000F48BF2D0C3540A3
:106108002D0609D0002088F80100012088F8000039
:1061180003B0BDE8000FF0BD4FF48036BEF1FF3F7D
:10612800C8BF01264FF47F0506FA0CF6C8BFFF2545
:106138002E40C4F8BC6190F910604FF480394FF4D8
:106148007F0EB6F1FF3F06F01F06C4BF4FF0FF0EEB
:106158004FF0010909FA06F606EA0E06C4F8786156
:10616800D0E900C5DCF800406E68ED69C4F30A4464
:10617800C6F30E469C42A5EB060628BF1C46B44251
:1061880028BF34469C4251D8D0F80CA0544538BF9B
:10619800A246BAF1000F18BF002C35D0AAF10406A8
:1061A800D0F808B00196AAF103061319AAF101095B
:1061B800AAF1020E029600261BF806509419B14562
:1061C80004F8015B1ED09C421FBF0BEB060C9CF829
:1061D800015004F8015BB64514D09C421FBF9CF8DF
:1061E800025004F8015B029DB5420BD09C421FBFD0
:1061F8009CF8035004F8015B019DB54202D00436B7
:106208009C42D9D1D0F800C0DCF80020C2F30A4281
:1062180000F081FDC8F804A064E740F6D0520020E1
:10622800C2F22002002102F008FFFEDE40F65452BE
:106238002046C2F22002194603F00FFBFEDEF0B53D
:1062480003AF2DE9000F83B0824648690228C0F0E9
:106258003981886A0D460068BFF35F8F800740F177
:106268003181696A012940F21C81D5F820E0DEF805
:106278001810496811F0680F01D0072012E09EF845
:1062880024600120D5F800C074B206F01F06DCF8BF
:10629800B811002C00FA06F048BF090C08400006A7
:1062A80009D000208AF8010001208AF8000003B014
:1062B800BDE8000FF0BD0EF1140000904FF48030DF
:1062C800B4F1FF3FC8BF01204FF47F0100FA06F088
:1062D800C8BFFF210840CCF87801DEF81400DEF8CA
:1062E80020100068C0F30A40984238BF03468B422A
:1062F80038BF19460029019118BF002B40F0928041
:10630800DDF804B0BBF1000F2ED0ABF1010601207F
:10631800DEF81C9000EB561404F0030802F099FD17
:106328004EF6707029F01F01CEF20000602E0FD3D8
:1063380024F0030201F120030160036001F140032E
:10634800036001F16003043A01F180010360F1D1B7
:10635800B8F1000F1CBF0160B8F1010F40F0988040
:1063680002F077FD02F078FD009829465A4600F0C1
:10637800D2FC686900281FBFA86A0068BFF35F8F56
:106388005FEAC0700BD140F6464040F68442C2F244
:106398002000C2F220022B2102F016FEFEDE686AFF
:1063A800002800F08680286A01242968027CD1F838
:1063B800B86153B202F01F02002B48BF360C94405C
:1063C8002640360625D1B3F1FF3F4FF48033C8BFCE
:1063D80001234FF47F0603FA02F2C8BFFF263240BA
:1063E800C1F8BC2190F910204FF4803C4FF47F0491
:1063F800B2F1FF3F02F01F02C4BFFF244FF0010CAF
:106408000CFA02F22240C1F878212946002200F055
:1064180082FCCAF804B000208AF8000003B0BDE886
:10642800000FF0BD0198D1180026031F0293DEF873
:106438001C30A0F1010B841EA0F1030C02EB06082E
:10644800B34518F8010B98553FF45AAF88451FBF5C
:1064580003EB060918F8010B89F80100B4423FF470
:106468004FAF88451EBF18F8010B89F80200B445E4
:106478003FF446AF88451FBF18F8010B89F80300A1
:106488000298B0423FF43CAF04368845D6D137E78E
:1064980001F120020260B8F1020F1CBF4031016017
:1064A8005EE740F6D0520120C2F2200202F0C5FD9C
:1064B800FEDE40F6D0520020C2F22002002102F097
:1064C800BCFDFEDE40F6464040F69442C2F2200093
:1064D800C2F220022B2102F077FDFEDEF0B503AFF9
:1064E8002DE9000F83B08046387A4D69460046EAA8
:1064F800D016F0B2854240F2CA808D6A06F00F06C7
:106508002D68BFF35F8FADB225FA06F6F60700F0E7
:10651800BE804C6A844240F2B2800E6A00EB800072
:1065280006EB80004668766816F0680F01D00720F1
:1065380011E0047CD1F800C004F01F0E65B20124FC
:10654800DCF8B86104FA0EF4002D48BF360C34406C
:10655800240609D0002088F80100012088F80000EE
:1065680003B0BDE8000FF0BD8C8D05F00F06F440B8
:10657800E407EFD0B5F1FF3F4FF48035C8BF0125E0
:106588004FF47F0405FA0EF5C8BFFF242540CCF868
:10659800BC5190F910504FF480394FF47F06B5F193
:1065A800FF3F05F01F05C4BFFF264FF0010909FA98
:1065B80005F52E40CCF87861D0E900C5DCF800403C
:1065C8006E68ED69C4F30A44C6F30E469C42A5EB17
:1065D800060628BF1C46B44228BF34469C4262D8EF
:1065E800D0F80CA0544538BFA246BAF1000F18BF26
:1065F800002C35D0AAF10406D0F808B00196AAF10B
:1066080003061319AAF10109AAF1020E029600263F
:106618001BF806509419B14504F8015B1ED09C4242
:106628001FBF0BEB060C9CF8015004F8015BB64544
:1066380014D09C421FBF9CF8025004F8015B029DD5
:10664800B5420BD09C421FBF9CF8035004F8015B75
:10665800019DB54202D004369C42D9D1D0F800C081
:10666800DCF80020C2F30A4200F055FBC8F804A089
:10667800002088F8000003B0BDE8000FF0BD40F628
:10668800D0522146C2F2200202F0D7FCFEDE40F6CC
:10669800464040F6A442C2F22000C2F220022B215A
:1066A80002F092FCFEDE40F654522046C2F220026E
:1066B800194603F0D2F8FEDEF0B503AF2DE9000F5E
:1066C80083B08346387A0D464E69410041EAD011BD
:1066D800C8B2864240F2DD80AE6A01F00F0136682A
:1066E800BFF35F8FB6B226FA01F1C90700F0D18077
:1066F800696A814240F2C680296A00EB800001EB9A
:106708008009D9F80400406810F0680F01D007200C
:1067180012E099F810100120D5F800C04CB201F031
:106728001F01DCF8B861002C00FA01F048BF360CF4
:106738003040000609D000208BF8010001208BF8BA
:10674800000003B0BDE8000FF0BD4FF48030B4F195
:10675800FF3FC8BF01204FF47F0600FA01F0C8BF11
:10676800FF263040CCF87801D9F80000D9F80C8021
:106778000068C0F30A40984238BF0346434538BF13
:106788009846B8F1000F18BF002B3FD1B8F1000FA1
:106798002ED0A8F1010A0120D9F8086000EB5A149C
:1067A80004F00300029002F054FB4EF6707026F0DD
:1067B8001F01CEF20000BAF1600F0FD324F00302DC
:1067C80001F120030160036001F14003036001F15E
:1067D8006003043A01F180010360F1D1029B002BB0
:1067E8001CBF0160012B45D102F033FB02F034FBE2
:1067F80048462946424600F08EFACBF8048000202D
:106808008BF8000003B0BDE8000FF0BDA8F104014B
:106818000191A8F103010291D9F80810D018A8F144
:10682800010AA8F1020E0023D4189A4514F8016B46
:10683800CE54ABD084421FBF01EB030C14F8016B9C
:106848008CF801609E45A1D084421FBF14F8016BEB
:106858008CF80260029E9E4298D084421FBF14F8B2
:10686800016B8CF80360019E9E428FD004338442F2
:10687800DAD18BE701F120020260022B1CBF403104
:106888000160B1E740F6D052C2F2200202F0D5FB17
:10689800FEDE40F6464040F6B442C2F22000C2F2A4
:1068A80020022B2102F090FBFEDEF0B503AF4DF87D
:1068B800048D15460E4604464269E8B2690041EA6D
:1068C800D011C8B2824242D9A26A01F00F011268FF
:1068D800BFF35F8F92B222FA01F1C90737D0616A1C
:1068E80081422DD9216A00EB8000324601EB8008F5
:1068F8002146404600F094FA96B968B200280FD4B1
:1069080020680122D0F8B80198F91010002901F088
:106918001F0148BF000C02FA01F10840000602D02E
:106928005DF8048BF0BDD8F8000021460068C0F37C
:106938000A4240465DF8048BBDE8F04000F0EBB930
:1069480040F6D052C2F2200202F077FBFEDE40F69B
:10695800464040F6C442C2F22000C2F220022B2177
:1069680002F032FBFEDED4D4F0B503AF2DE9000708
:10697800A2B0002600F1100A0446082001ADCDE9B6
:106988000260012005F130090DF16808019000202E
:106998000F960D96CDF830A00896049609E0284683
:1069A80041464A4600F056FB90B1214600F0C2FA33
:1069B8000D9801281A9507D10E980E9600281CBF2D
:1069C800017C5FEA4161F0D101980D960228E6D179
:1069D8000F980D96012807D11098109600281CBF13
:1069E800017C5FEA4161E0D100260820CDE9026020
:1069F80001200DF16808019000200F96CDE90CA642
:106A08000896049601281A950CD103E00D980128E0
:106A18001A9507D10E980E9600281CBF017C11F01C
:106A28007F021AD101980D9602280AD028464146BD
:106A38004A4600F00FFB20B1017C11F07F020CD117
:106A48003AE00F980D96012847D110981096002823
:106A58001CBF017C11F07F023FD01192013A062A37
:106A68003FD8DFE802F004080C1014181C00226854
:106A780002F5E27216E0226802F5E47212E022687A
:106A880002F5E6720EE0226802F5E8720AE0226872
:106A980002F5EA7206E0226802F5EC7202E022686A
:106AA80002F5EE724BB21268B3F1FF3F4FF40003E8
:106AB800C8BF80231A42A9D049B2B1F1FF3FA5DD72
:106AC80001680968C1F30A42214600F024F90D98CB
:106AD80001281A953FF49EAFA4E722B0BDE800074D
:106AE800F0BD18A9012016910021179040F6F06218
:106AF800CDE91301C2F220021F9020A81E900220A7
:106B08001B9040F61C70C2F2200012921A9047F6B1
:106B1800DF00C0F2000046F61762219011A81C9110
:106B280040F68871209012A8C0F20002C2F220013B
:106B3800CDE9188202F032FAFEDEF0B503AF2DE996
:106B4800000F91B0804608680D46D0F844A15FEA6E
:106B58004A6149D45FEA4A713CD504210024C0F84F
:106B6800441105F110000B900820CDE901400120E7
:106B78006E4606F1300B0DF14009009000200E948E
:106B88000C940794039403E0294600F059F80C98F4
:106B98000128109607D10D980D9400281CBF017C80
:106BA8005FEA4161F0D100980C94022806D0304683
:106BB80049465A4600F04EFA0028E5D10E980C9442
:106BC800012807D10F980F9400281CBF017C5FEAA9
:106BD8004161D9D15FEACA7010D10020A8F800003D
:106BE80011B0BDE8000FF0BD4021C0F844110120EC
:106BF800A8F8000011B0BDE8000FF0BD2868012119
:106C0800C0F844112868D0F8BC11C9B2A985D0F8D9
:106C1800BC11C1F307410A04C0F8BC212868D0F8A8
:106C2800AC01A8F80600A88DA8F802000220A8F870
:106C38000410A8F8000011B0BDE8000FF0BDD4D4CE
:106C480080B56F4692B0007C10F07F0234D001927C
:106C5800013A062A32D8DFE802F004080C101418AA
:106C68001C00096801F5E27116E0096801F5E47194
:106C780012E0096801F5E6710EE0096801F5E871AE
:106C88000AE0096801F5EA7106E0096801F5EC71A6
:106C980002E0096801F5EE7140B24FF40022B0F14C
:106CA800FF3FC8BF082208686FF40C03C8BF6FF025
:106CB8008C0318401043086012B080BD08A9012059
:106CC80006910021079040F6F062CDE90301C2F277
:106CD80020020F9010A80E9002200B9040F61C7016
:106CE800C2F2200002920A9047F6DF00C0F20000CC
:106CF80046F61762119001A80C9140F68871109021
:106D080002A8C0F20002C2F2200109920AAA08925F
:106D180002F044F9FEDEF0B503AF4DF8048D82B001
:106D28000546D0E901608846012131607168F26149
:106D380062F31E417160CAB1B06040F6FF71B0687D
:106D480000F580508843F060F06800F580506FF3DC
:106D58000B003061306900F580506FF30B007061F3
:106D6800706900F580506FF30B0004E00020B060FC
:106D7800F06030617061B0618021706840F400405B
:106D88007060706861F307007060009602F061F847
:106D98004EF670746846CEF2000420F01C002060A5
:106DA80002F057F802F058F828688660C16821F0A8
:106DB800FF01C160019002F04CF801A820F01C000E
:106DC80020602030206002F044F802F045F895F980
:106DD80010204FF47F01D8F800004FF48033B2F14F
:106DE800FF3F02F01F02C8BFFF21C8BF012303FAFB
:106DF80002F21140C0F8B011D0F8B01159B1D0F872
:106E0800B01100291CBFD0F8B011002903D0D0F868
:106E1800B0110029F0D102B05DF8048BF0BDD4D4D4
:106E280080B56F4692B0007C00F07F030193072B7A
:106E380052D84FFA80FCDFE803F004240C141C2C11
:106E48003442086800F5E0710B68BCF1000F3DD5CD
:106E58002EE0086800F5E4710B68BCF1000F35D529
:106E680026E0086800F5E6710B68BCF1000F2DD527
:106E78001EE0086800F5E8710B68BCF1000F25D525
:106E880016E0086800F5E2710B68BCF1000F1DD52B
:106E98000EE0086800F5EA710B68BCF1000F15D523
:106EA80006E0086800F5EC710B68BCF1000F0DD521
:106EB80023F4803062F31040086012B080BD086887
:106EC80000F5EE710B68BCF1000FF1D423F001005E
:106ED8001044086012B080BD08A901200691002165
:106EE800079040F6F062CDE90301C2F220020F904C
:106EF80010A80E9002200B9040F61C70C2F22000E1
:106F080002920A9047F6DF00C0F2000046F61762C8
:106F1800119001A80C9140F68871109002A8C0F257
:106F28000002C2F2200109920AAA089202F036F879
:106F3800FEDED4D480B56F4692B090F810C01CF035
:106F48007F0358D00193013B062B56D8DFE803F0A6
:106F5800040D161F28314100096801F5E2710B681C
:106F68004FFA8CF2002A3CD52BE0096801F5E47150
:106F78000B684FFA8CF2002A33D522E0096801F534
:106F8800E6710B684FFA8CF2002A2AD519E00968D5
:106F980001F5E8710B684FFA8CF2002A21D510E050
:106FA800096801F5EA710B684FFA8CF2002A18D5C6
:106FB80007E0096801F5EC710B684FFA8CF2002ABA
:106FC8000FD5407C23F44C0242EA804040F4400054
:106FD80010E0096801F5EE710B684FFA8CF2002A8F
:106FE800EFD4407C23F00C0200F00F0042EA80004E
:106FF80040F0C000086012B080BD08A901200691C9
:107008000021079040F6F062CDE90301C2F22002A8
:107018000F9010A80E9002200B9040F61C70C2F240
:10702800200002920A9047F6DF00C0F2000046F600
:107038001762119001A80C9140F68871109002A86F
:10704800C0F20002C2F2200109920AAA089201F0D5
:10705800A5FFFEDEF0B503AF2DE9000F85B0C168CE
:10706800012903D1D0E904138B4274D102AE8446BE
:107078004ACE4CF8101F0168C0E90536012953D1E2
:10708800D0E90191894501914ED200F118050221FC
:107098004FF0010E4FF0000B04E001998A454FF0C4
:1070A800020141D0416149F0800109F1010A5FFA0A
:1070B80089F343EA01210183C0F80CE00021C0F8FC
:1070C80004A0D1460BE00021C2E900EB19B10B7C0A
:1070D8005B0640F0AB80D0E904138B42DDD04B1C3B
:1070E8000361695CC46A4B0043EAD111D4F8048097
:1070F800CBB29845E7D9A66901F00F013668BFF30E
:107108005F8FB6B226FA01F1C907DCD061699942EE
:1071180040F29180216903EB830301EB830100298D
:10712800C2E900EBD3D1D6E702AE0025C5604ACE4E
:107138008CE84A00C169012903D1D0E908138B42C0
:107148003FD102AE00211C304CCE4EC0084605B0DF
:10715800BDE8000FF0BD00F118064FF0000C4FF02D
:10716800010E0BE00021C2E900EC11B10B7C5B06BB
:107178005CD1D0E904138B423FF478AF4B1C036118
:10718800715CC56A4B0043EAD1116C68CBB29C4272
:10719800E8D9AC6901F00F012468BFF35F8FA4B28E
:1071A80024FA01F1C907DDD06969994243D92969EF
:1071B80003EB830301EB83010029C2E900ECD5D17D
:1071C800D7E700F128064FF0000C4FF0010E0AE057
:1071D8000021C2E900EC11B10B7C5B0626D1D0E995
:1071E80008138B42ADD04B1C0362715CC56A4B001F
:1071F80043EAD1116C68CBB29C42E9D9AC6901F081
:107208000F012468BFF35F8FA4B224FA01F1C90704
:10721800DED0696999420ED9296903EB830301EB32
:1072280083010029C2E900ECD6D1D8E7084605B0A9
:10723800BDE8000FF0BD40F6D0521846C2F2200259
:1072480001F0FBFEFEDE7047D0E900108C2200281A
:10725800096808BF8422885840F000408850704769
:10726800D0E900108C220028096808BF84228858B9
:10727800C00F7047D0E900108C220028096808BFA9
:107288008422885820F0004088507047D0E90010C8
:107298008C220028096808BF8422885840F0804062
:1072A80088507047D0E900208C230028126808BF56
:1072B8008423D05861F31860D0507047D0E900207B
:1072C8008823002808BF80236FF07F40814212681E
:1072D80038BF0846012898BF01200138D0507047B0
:1072E800D0E900104FF0007200280968D1F8441165
:1072F80008BF4FF0807211EA020018BF01207047E2
:10730800D0E900104FF000720028096808BF4FF05C
:107318008072C1F844217047D0E900204FF0007313
:1073280000286FF00070126808BF4FF08073D2F821
:1073380048C108BF6FF08070002900EA0C0018BF30
:107348001843C2F848017047D0E900104FF00072A6
:1073580000280968D1F8481108BF4FF0807211EA77
:10736800020018BF01207047F0B503AF2DE9000BEC
:1073780084464668C8B24D0045EAD014E0B2864259
:1073880017D9DCF8189004F00F04D7F80880012604
:1073980006FA04FEBFF35F8F59E8006F46EA0E0451
:1073A80049E80045002DF7D116EA0E0FBFF35F8FAD
:1073B80003D00020BDE8000BF0BDDCF804E08645F2
:1073C80047D9DCF80CE0864548D9DCF814E0864556
:1073D80049D9DCF800601D46B3F5806F06EB8014D0
:1073E800266846F000562660266828BF4FF4806558
:1073F8006FF31A4646EA0546266026684DB2B5F18F
:10740800FF3FDCF808E026F40049DCF810C04D46E0
:10741800C8BF05F500455FEA086618BF4D462560F8
:10742800450101264EF805600EEB401600EB800082
:10743800756825F0FF0575604CF820400CEB80005E
:1074480080F811800174C0E90162C360BDE8000BD7
:10745800F0BD40F6E052C2F2200208E040F6F052D9
:10746800C2F2200203E040F60062C2F22002714636
:1074780001F0E3FDFEDE7047F0B503AF4DF804BD43
:1074880082B0044690F834000D46A8B12068E0BBED
:107498004FF0FF3020606068D0F8481121F04501B6
:1074A80065F3000165F3820165F38611C0F84811A0
:1074B80020680130206024E001F0D1FC064601F08C
:1074C800C4FC01F0CFFC2068F8B94FF0FF30206011
:1074D8006068D0F8481121F0450165F3000165F3B3
:1074E800820165F38611C0F84811206801302060D8
:1074F800F00706D102B05DF804BBBDE8F04001F02A
:10750800A6BC02B05DF804BBF0BD40F6B46040F61E
:107518001063C2F2200001AA009040F2C210C2F229
:107528002000C2F22003102101F0A7FDFEDEF0B515
:1075380003AF4DF804BD82B0044690F834000E46FF
:1075480040B32068002869D14FF0FF3071002060F7
:10755800F0B241EAD011A269C8B2824216D9E26AF1
:1075680001F00F011268BFF35F8F92B222FA01F1A6
:10757800C9070BD0A16A814249D9616A00EB800032
:1075880051F82000016821F00051016020680130A5
:10759800206038E001F063FC054601F056FC01F07C
:1075A80061FC2068D0BB4FF0FF3071002060F0B262
:1075B80041EAD011A269C8B2824216D9E26A01F042
:1075C8000F011268BFF35F8F92B222FA01F1C90767
:1075D8000BD0A16A81421AD9616A00EB800051F888
:1075E8002000016821F00051016015F001002068B9
:1075F80000F10100206006D102B05DF804BBBDE8CF
:10760800F04001F024BC02B05DF804BBF0BD40F6C8
:10761800D052C2F2200201F010FDFEDE40F6B46046
:1076280040F61063C2F2200001AA009040F2C21096
:10763800C2F22000C2F22003102101F01EFDFEDE7E
:10764800F0B503AF2DE9000782B00668316800295C
:1076580040F0E9804FF0FF31354645F8041BD0E98A
:107668000119D0F80C800A78DAB14C78B269600058
:1076780040EAD411C8B2824240F2B080F26A01F006
:107688000F011268BFF35F8F92B222FA01F1C907A6
:1076980000F0A480B16A814240F2BE800120052139
:1076A800B3E0D0F810A0B2699AF8000040F00104E5
:1076B800C0F3C01040EA4401C8B2824240F28E8052
:1076C800F26A01F00F011268BFF35F8F92B222FADB
:1076D80001F1C90700F08280B16A814240F29C80C2
:1076E8009AF80000B26940F00204C0F3C01040EA02
:1076F8004401C8B2824271D9F26A01F00F011268DE
:10770800BFF35F8F92B222FA01F1C90766D0B16A5E
:10771800814240F281809AF80000B26940F0030487
