:0200000460009A
:100000004643464200000156000000000101020084
:1000100000000000000000000000000000000000E0
:1000200000000000000000000000000000000000D0
:1000300000000000000000000000000000000000C0
:1000400000000000010403000000000000000000A8
:100050000000200000000000000000000000000080
:100060000000000000000000000000000000000090
:100070000000000000000000000000000000000080
:10008000EB04180A063204260000000000000000FD
:10009000050404240000000000000000000000002F
:1000A0000000000000000000000000000000000050
:1000B0000604000000000000000000000000000036
:1000C0000000000000000000000000000000000030
:1000D00020041808000000000000000000000000DC
:1000E0000000000000000000000000000000000010
:1000F0000000000000000000000000000000000000
:1001000000000000000000000000000000000000EF
:100110000204180804200000000000000000000095
:1001200000000000000000000000000000000000CF
:10013000600400000000000000000000000000005B
:1001400000000000000000000000000000000000AF
:10015000000000000000000000000000000000009F
:10016000000000000000000000000000000000008F
:10017000000000000000000000000000000000007F
:10018000000000000000000000000000000000006F
:10019000000000000000000000000000000000005F
:1001A000000000000000000000000000000000004F
:1001B000000000000000000000000000000000003F
:1001C000000100000010000001000000000000001D
:1001D000000000000000000000000000000000001F
:1001E000000000000000000000000000000000000F
:1001F00000000000000000000000000000000000FF
:10020000D4D4D4D4D4D4D4D4D4D4D4D4D4D4D4D4AE
:10100000D10020400020006000000000000000002F
:1010100020100060001000600000000000000000D0
:1010200000000060B0D9000000000000EFBEADDE9F
:10103000124880F3088812481249016000F036F81F
:10104000114812490022814201D004C0FBE7104838
:101050001049114A814202D008CA08C0FAE70F4875
:101060004FF47001026842EA01020260BFF34F8F41
:10107000BFF36F8F00F014F800DE00000040002086
:1010800008ED00E00040002000500020A085002076
:10109000B842002058440020B8D9006088ED00E034
:1010A00041F6773CC0F2000C6047D4D41C4840F2B3
:1010B000924188420CBF1B4A1B4A1C4B5360136869
:1010C00023F0800313601A481A4901BF1A480A0C1A
:1010D0008264C1F30F014164016C41F004010164B9
:1010E0001648174A824205D01649814202D008CAE2
:1010F00008C0FAE71448154A824205D014498142D3
:1011000002D008CA08C0FAE71248134A824205D042
:101110001249814202D008CA08C0FAE770470000AD
:10112000240400000080034000C00B4020C528D9E3
:1011300000C00A40AAAAFAFF00400E4000000000CA
:10114000B8220060D09D0000004000200020006018
:10115000B84200200000202090C000602819202004
:10116000D4D4D4D4D4D4D4D4D4D4D4D4D4D4D4D43F
:10117000D4D4D4D4D4D4D4D4D4D4D4D4D4D4D4D42F
:10118000D4D4D4D4D4D4D4D4D4D4D4D4D4D4D4D41F
:10119000D4D4D4D4D4D4D4D4D4D4D4D4D4D4D4D40F
:1020000000400020311000601D3A0000B79D000024
:102010001D3A00001D3A00001D3A000000000000BB
:102020000000000000000000000000001D3A000059
:102030001D3A0000000000001D3A00001D3A00009B
:102040001D3A00001D3A00001D3A00001D3A000034
:102050001D3A00001D3A00001D3A00001D3A000024
:102060001D3A00001D3A00001D3A00001D3A000014
:102070001D3A00001D3A00001D3A00001D3A000004
:102080001D3A0000000000000000000000000000F9
:102090001D3A00001D3A00001D3A00001D3A0000E4
:1020A0001D3A00001D3A00001D3A00001D3A0000D4
:1020B0001D3A00001D3A00001D3A00001D3A0000C4
:1020C0001D3A00001D3A00001D3A00001D3A0000B4
:1020D0001D3A00001D3A00001D3A00001D3A0000A4
:1020E0001D3A00001D3A00001D3A00001D3A000094
:1020F0001D3A00001D3A00001D3A00001D3A000084
:102100001D3A00001D3A00001D3A00001D3A000073
:10211000000000001D3A0000000000001D3A000011
:102120001D3A00001D3A00001D3A00001D3A000053
:102130001D3A00001D3A0000000000001D3A00009A
:102140001D3A00001D3A00001D3A00001D3A000033
:102150001D3A00001D3A00000000000000000000D1
:102160001D3A00001D3A00001D3A00001D3A000013
:102170001D3A00001D3A00001D3A00001D3A000003
:102180001D3A00001D3A00001D3A00001D3A0000F3
:102190001D3A00001D3A00001D3A00001D3A0000E3
:1021A0001D3A00001D3A00001D3A00001D3A0000D3
:1021B0001D3A00001D3A00001D3A00001D3A0000C3
:1021C0001D3A00001D3A00001D3A0000000000000A
:1021D0001D3A00001D3A00001D3A00001D3A0000A3
:1021E0001D3A00001D3A00001D3A00001D3A000093
:1021F0001D3A00001D3A00001D3A00001D3A000083
:102200001D3A0000033300001D3A00001D3A000093
:102210001D3A00001D3A00001D3A00001D3A000062
:102220001D3A00001D3A00001D3A00001D3A000052
:102230001D3A00001D3A00001D3A00000000000099
:10224000000000001D3A00001D3A00001D3A000089
:102250001D3A00001D3A00001D3A00001D3A000022
:102260001D3A00001D3A00001D3A00001D3A000012
:102270001D3A00001D3A00001D3A00001D3A000002
:102280001D3A00001D3A00001D3A00001D3A0000F2
:102290001D3A00001D3A00001D3A00001D3A0000E2
:1022A0001D3A00001D3A00001D3A00000000000029
:0822B0001D3A00001D3A000078
:1022B800F0B503AF4DF8048D84B004680646606934
:1022C800C00113D41546B2B120698846082140F4EC
:1022D8004070206101A805F0A1FC019802280FD1E7
:1022E8009DF8080004B05DF8048BF0BD042004B02C
:1022F8005DF8048BF0BD052004B05DF8048BF0BDDB
:102308009DF8080008EB050C9DF809109DF80A20B7
:102318009DF80C3061F30B209DF80EE0766840EADA
:1023280082504FF2000240EA83404FEA0E55CFF642
:102338000372F105464608F1010863691B0553D489
:10234800E36DDB0611D563691B054DD4E36DDB0630
:102358000BD563691B0547D4E36DDB0605D56369B7
:102368001B0541D4E36DDB06E7D4236E0543134018
:102378000B432B4343F42013236663691B0533D4B3
:10238800E36DDB0611D563691B052DD4E36DDB0610
:102398000BD563691B0527D4E36DDB0605D5636997
:1023A8001B0521D4E36DDB06E7D433784FF48015A1
:1023B800E0456366BED10EE0E36DDB0619D56369BF
:1023C8001B0511D4E36DDB0613D563691B050BD41C
:1023D800E36DDB060DD563691B0505D4E36DDB06EC
:1023E80007D563691B05E7D5002004B05DF8048BA9
:1023F800F0BD236E1A401143084340F400202066C4
:10240800062004B05DF8048BF0BDF0B503AF2DE9EC
:10241800000F85B00D6883466869C00111D49946DC
:102428008BB128690E460821904640F44070286117
:1024380002A805F0F3FB0298022806D19DF80C00CB
:10244800ABE00420A9E00520A7E09DF810404FF07C
:10245800010E9DF80C009DF80D109DF80E20A404A7
:102468009DF80F3061F30B207668012140EA825015
:102478009DF812C044EAC34300221843002340EAEF
:10248800C65A4FF20006CFF6037601200BE04B4503
:102498004FF0000138BF01214A454FF0000034BF1A
:1024A80001204B456FD2C0074ED0604618F802C0D5
:1024B8000132B2EB090408BFA6466C6924056BD447
:1024C800EC6DE40611D56C69240565D4EC6DE40661
:1024D8000BD56C6924055FD4EC6DE40605D56C69F1
:1024E800240559D4EC6DE406E7D42C6EC0B24AEA50
:1024F8000050CDF804A034405FFA8EF640EA46500A
:10250800204328666869000546D4E86DC00611D5E1
:102518006869000540D4E86DC0060BD568690005F8
:102528003AD4E86DC00605D56869000534D4E86D6D
:10253800C006E7D4C5F864C04FF200064FF0010C9E
:10254800DDF804A0CFF60376C807A0D06869C004F8
:102558002CD4286F80079AD4686FFF2828BFFF20E3
:1025680008F80300013392E7E86DC00620D56869D2
:10257800000511D4E86DC0061AD5686900050BD4AA
:10258800E86DC00614D56869000505D4E86DC00675
:102598000ED568690005E7D5002000218BF80400F6
:1025A800CBF8001005B0BDE8000FF0BD0120F4E73E
:1025B800286ECBE90089304040EA0A00286605B059
:1025C800BDE8000FF0BD80B56F468EB00A46042105
:1025D800059106A90491002102910521019140F27B
:1025E8002001C2F2200100F10E03009140F69F2164
:1025F800C0F20001CDE90C0149F65F01C0F200010B
:10260800CDE9091300F10D030C3006900B9110462B
:10261800CDE90713694609F06DF80EB080BD80B5A5
:102628006F468EB00A460421059106A9049100213F
:1026380002910521019140F22001C2F2200100F12E
:102648000A03009140F29F61C0F20001CDE90C013C
:1026580049F65F01C0F20001CDE9091300F1090351
:10266800083006900B911046CDE90713694609F02A
:1026780041F80EB080BDF0B503AF2DE9000FADF203
:10268800EC4DCAAC204602F0C6FD04A8214600F075
:1026980064F9DDE90F02CAADDDE90D81DDE904A6C3
:1026A800CDE9011028460A9CDDF86092039202F0F9
:1026B8005EFF01AA04AB07CA07C304A9284602F0B3
:1026C8005BFFDAF8080120F00100CAF808010120D0
:1026D800CAF80C01DAF8080120F00400CAF8080169
:1026E800DAF8080120F00200CAF808014AF21F10BF
:1026F800C0F20700CAF80001DAF8080140F001004A
:10270800CAF80801DAF80C01C0070CD1DAF80C0194
:10271800C00704BFDAF80C015FEAC07003D1DAF829
:102728000C01C007EED04FF0010C48F23C15CAF876
:102738000CC1C4F21F05DAF8081148F22053C4F29C
:102748001F0321F00101CAF80811AA68032161F3E7
:102758000302AA60AA6842F01002AA6000229A60E6
:10276800686861F303006860686840F0100068609A
:102778005A60E86861F30300E860E86840F0100018
:10278800E8601A60286861F303002860286840F050
:10279800100028600220C5F8E023C9F81000C9F825
:1027A80010204A46C9F82410D9F81000D9F810109A
:1027B80021F00101C9F81010D9F8601021F040414A
:1027C800C9F86010D9F8101060F300014FF00F102D
:1027D800C9F810104EF29021C9F85800C0F27D01D6
:1027E800C9F810C0D9F8100040F44070C9F81000BA
:1027F800D9F810B0D9F8100020F00100C9F810007D
:1028080042F60010C0F2DE7005F01BFAD9F810008D
:102818006BF30000C9F810004AF21F10C0F207005D
:10282800CAF80001DAF8080140F00100CAF8080106
:10283800DAF80C01C0070CD1DAF80C01C00704BFA4
:10284800DAF80C015FEAC07003D1DAF80C01C007AE
:10285800EED04FF0010C0522CAF80CC14FF6E86320
:10286800DAF80811CFF6FF7345F2000B21F00101E9
:10287800CAF8081155F8781CC2F2000B62F303017C
:1028880045F8781C616841F0040161600421C4F8CE
:102898008410E85862F30300E850D8F8040040F0C8
:1028A8001000C8F804001020C8F8840055F8200C5F
:1028B80062F3030045F8200C60685A4640F08070C7
:1028C8006060D6F8180120F00100C6F81801C6F8B3
:1028D8001CC1D6F8180120F00400C6F81801D6F873
:1028E800180120F00200C6F818011820C4F8841056
:1028F800CDE904810DF11008CDE906400094CAAC79
:1029080041460896204601F079FC6ECC08F1040097
:102918006EC094E86E006EC00220CBF810000098DC
:10292800CBE902B00BF11400B8E86E006EC098E86D
:102938007E007EC000205146CBE9009058460DF23B
:10294800EC4DBDE8000FF0BD006809F0E0B80A469C
:10295800D0E90031184608F0E2BEF0B503AF2DE922
:10296800000FADF5197D13AD04464FF4E07228460B
:1029780009F077FB05F1340005F1380105F154023F
:1029880002F041F9459805F0DBF85D98016841F0DF
:10299800010101605D98016821F002010160439E18
:1029A8000021C0F80811C0F81811C0F82811C4E9AE
:1029B8000000C4E90200C0F83811306820F00100B6
:1029C8003060306840F4004030603068000409D559
:1029D8003068000444BF30685FEA004002D53068C0
:1029E8000004F2D43F20B060306820F0010030606D
:1029F800DDF81081D8F8000020F00100C8F80000C8
:102A0800D8F8000040F40040C8F80000D8F80000EA
:102A180000040CD5D8F80000000444BFD8F8000022
:102A28005FEA004003D5D8F800000004EED43F2048
:102A3800C8F80800D8F8000020F00100C8F8000025
:102A48006A9805F077F8DDF84C90CDE9111040F25E
:102A58006341D9F8480040F00100C9F84800D9F8A6
:102A680044000843C9F84400D9F84400012161F33F
:102A78008300C9F84400D9F8440020F08000C9F860
:102A88004400D9F8480040F02000C9F84800D9F8B7
:102A9800440040F44040C9F84400D9F8440040F4E8
:102AA8004470C9F84400D9F8480040F08000C9F8DB
:102AB8004800D9F8580000070CD0D9F8580000078A
:102AC8001CBFD9F858005FEA007003D0D9F8580045
:102AD8000007EED1D9F8480040F2634140F02000E9
:102AE800C9F84800D9F8440020F44040C9F8440027
:102AF800D9F84400DDF850A020F4447000F588703F
:102B0800C9F84400DAF8480040F00100CAF8480063
:102B1800DAF844000843CAF84400DAF8440001210E
:102B280061F38300CAF84400DAF8440020F080001A
:102B3800CAF84400DAF8480040F02000CAF8480013
:102B4800DAF8440040F44040CAF84400DAF8440097
:102B580040F44470CAF84400DAF8480040F08000B5
:102B6800CAF84800DAF8580000070CD0DAF858001C
:102B780000071CBFDAF858005FEA007003D0DAF8E3
:102B880058000007EED1DAF8480040F02000CAF8F3
:102B98004800DAF8440020F44040CAF84400DAF863
:102BA800440020F4447000F58870CAF84400DDF849
:102BB800C8B104F06CFF054604F06BFF034683A818
:102BC80059462A4604F067FF6D9995A84FF480523C
:102BD80005F068F83A9810903C980F903D980E9040
:102BE8003E980D9074980C9077980B907998DDE941
:102BF8002A120A9004F1340004F0A3FF5F9A4FF4FC
:102C0800704102F59070C4F8780202F1C000C4F86F
:102C1800740202F16000C4F870020F20C4E99A221D
:102C2800A2F88C11A2F88E01209A0992219A089292
:102C3800289A07924B9A06924D9A0592529A0492B4
:102C4800549A0392559A02925A9A0192609A589D00
:102C580002F59073C4F88C3202F1C003DDF858B164
:102C6800C4F88832A2F88C11C4E99F22A2F88E0118
:102C78006032C4F88422619A02F1C003C4F89C321D
:102C880002F16003C4F8983202F59073C4F8A032D8
:102C9800A2F88C11C4E9A422A2F88E01629A02F16A
:102CA8006003C4F8AC3202F1C003C4F8B032A2F831
:102CB8008C1102F59071C4F8B41283A9C4E9A92251
:102CC800A2F88E0104F53070482209F0CAF9039879
:102CD80095ABC4F85C0204F5427C0298C4F8600223
:102CE8000198C4F864021198C4F834021298C4F820
:102CF80038020998C4F83C020898C4F840020798BA
:102D0800C4F844020698C4F848020598C4E904685F
:102D1800109EC4F84C020498A6610F9EC4F8500295
:102D28000A98E6610E9E20630FCB26620D9E6662AE
:102D38000C9EA6620B9EC4E9AE9AC4E9955BE66256
:102D48008CE80F000DF5197DBDE8000FF0BD80B5CA
:102D58006F468EB00A460421059106A90491002108
:102D680002910521019140F25401C2F2200100F1C3
:102D78000A03009140F29F61C0F20001CDE90C0105
:102D880049F65F01C0F20001CDE9091300F109031A
:102D9800083006900B911046CDE90713694608F0F4
:102DA800A9FC0EB080BDF0B503AF2DE9000B88B0CB
:102DB80048F29C540646C2F2000440F248082068D3
:102DC80091460D46C2F22008022813D9002040F28D
:102DD800F402CDE90680C2F220020490012003909B
:102DE80040F29C00C2F220000321029002A80023B6
:102DF80007F045FF366830684169C90109D541695E
:102E0800C90144BF41695FEAC11102D54169C901DD
:102E1800F2D42068032813D3002040F22812CDE909
:102E28000680C2F2200204900120039040F2201094
:102E3800C2F220000321029002A8002307F01FFF1E
:102E4800304629464A4608B0BDE8000BBDE8F040C8
:102E5800FFF72EBAF0B503AF2DE9000B88B0044692
:102E6800D0E9035000F01F02012048F29C5901F0FC
:102E78007F0100FA02F60022C5F88860C2F2000954
:102E880007F8312C40F2480807F8321CC2F2200833
:102E9800D9F80010022911D9CDE9030240F29C00AB
:102EA800C2F22000CDE9068240F2F402029002A8A4
:102EB800C2F220020321002307F0E1FEA468206883
:102EC8004169C90109D54169C90144BF41695FEA3E
:102ED800C11102D54169C901F2D4D9F8000003280B
:102EE80013D3002040F22812CDE90680C2F2200256
:102EF80004900120039040F22010C2F22000032128
:102F0800029002A8002307F0BAFE02A8A7F1320235
:102F180021460223FFF779FA17F8310CC5F88460C7
:102F28000002063008B0BDE8000BF0BDF0B503AFF5
:102F38002DE9000B88B00446D0E9035000F01F03C8
:102F4800012048F29C5941F0800100FA03F6C2F2D0
:102F58000009C5F8886040F2480807F8312CC2F229
:102F6800200807F8321CD9F80010022912D90021CC
:102F780040F2F402CDE9030140F29C00C2F22000C5
:102F8800CDE90681029002A8C2F2200203210023A3
:102F980007F075FEA46820684169C90109D541692F
:102FA800C90144BF41695FEAC11102D54169C9013C
:102FB800F2D4D9F80000032813D3002040F22812D5
:102FC800CDE90680C2F2200204900120039040F26D
:102FD8002010C2F220000321029002A8002307F06B
:102FE8004EFEA7F1320120460222FFF761F9C1B275
:102FF800062912BF0420C5F88460062008B0BDE881
:10300800000BF0BDF0B503AF2DE9000F8BB00446FF
:103018000120CDE90221012501F0F4FDD4E9038165
:1030280048F29C5B01F01F0100F07F00C2F2000B28
:1030380004F1080A05FA01F90021C8F8889007F890
:10304800351C07F8360CDBF80000022815D940F2C9
:10305800480040F2F402C2F220000A91099040F2BE
:103068009C00C2F22000CDE90651059005A8C2F2E5
:1030780020020321002307F002FEDAF8006030681E
:103088004169C90109D54169C90144BF41695FEA7C
:10309800C11102D54169C901F2D4DBF80000032847
:1030A80017D3002040F248010A9040F228120790F6
:1030B8000120069040F22010C2F22000C2F2200146
:1030C800059005A80991C2F220020321002307F008
:1030D800D6FD05A8A7F1360231460223FFF795F978
:1030E800032017F8355CC8F8849001F08AFD054084
:1030F800032001F086FDC0B2854204D105200BB043
:10310800BDE8000FF0BD122001F07CFD0021C8F8D9
:10311800889000F07F0007F8351C07F8360CDBF8BC
:103128000000022816D940F2480040F2F402C2F228
:1031380020000A9109900120069040F29C00C2F2FA
:1031480020000791059005A8C2F220020321002360
:1031580007F095FD30684169C90109D54169C90180
:1031680044BF41695FEAC11102D54169C901F2D47E
:10317800DBF80000032817D3002040F248010A902A
:1031880040F2281207900120069040F22010C2F267
:103198002000C2F22001059005A80991C2F2200280
:1031A8000321002307F06BFD05A8A7F1360231467D
:1031B8000223FFF72AF9082017F8355CC8F884902D
:1031C80001F020FD2840012860D1122001F01AFDED
:1031D8000546082001F016FDC8F8889007F8350C58
:1031E80045F0800007F8360CDBF80000022817D9F4
:1031F800002040F248010A9040F2F40207900120B2
:10320800069040F29C00C2F22000C2F22001059014
:1032180005A80991C2F220020321002307F02FFD1F
:1032280030684169C90109D54169C90144BF41698B
:103238005FEAC11102D54169C901F2D4DBF8000087
:10324800032817D3002040F248010A9040F22812C0
:1032580007900120069040F22010C2F22000C2F22E
:103268002001059005A80991C2F22002032100233C
:1032780007F005FDA7F1360130460222FFF718F8DE
:10328800C1B2062940F02881C8F88490204601215F
:1032980000F034FDC2B2062A7FF431AF94F8200062
:1032A80038B1204600F01DF9C2B2062A7FF427AFD4
:1032B80006E0204600F0E1F9C2B2062A7FF41FAF0B
:1032C800122001F09FFCD4E9039101F01F020121B3
:1032D80040F0800001FA02F50022C9F8885007F88A
:1032E800352C07F8360CDBF80000022815D940F217
:1032F8004800CDE90612C2F220000A92099040F275
:103308009C00C2F2200040F2F402059005A8C2F227
:1033180020020321002307F0B2FCDAF800603068CD
:103328004169C90109D54169C90144BF41695FEAD9
:10333800C11102D54169C901F2D4DBF800000328A4
:1033480017D3002040F248010A9040F22812079053
:103358000120069040F22010C2F22000C2F22001A3
:10336800059005A80991C2F220020321002307F065
:1033780086FCA7F1360130460222FEF799FFC1B25A
:10338800062940F0A9800D20C9F8845001F03AFCC4
:103398000021C9F888508DF8151040F0800005A963
:1033A8008DF8140050460222FFF7FDFCC1B2062931
:1033B80040F092802220C9F8845001F023FC014695
:1033C80020460022FFF7B2FDC2B2062A7FF497AE6C
:1033D800029800286CD0DDF808804FF0000ABAF196
:1033E800FF0F65D0002001F00DFC039940F080002C
:1033F80011F80A10C9F8885007F8351C07F8360C78
:10340800DBF80000022817D9002040F248010A9092
:1034180040F2F40207900120069040F29C00C2F2AC
:103428002000C2F22001059005A809910321C2F2EB
:103438002002002307F023FC3068A8F10108416945
:10344800C90109D54169C90144BF41695FEAC11190
:1034580002D54169C901F2D4DBF80000032817D36B
:10346800002040F248010A9040F2281207900120FB
:10347800069040F22010C2F22000C2F2200105900E
:1034880005A809910321C2F22002002307F0F7FBE7
:10349800A7F1360130460222FEF70AFFC1B206291B
:1034A8001AD10AF1010AB8F1000FC9F8845096D16F
:1034B800222001F0A7FB029A01462046FFF736FDBD
:1034C800C2B2062A7FF41BAE2046032100F016FC88
:1034D8000BB0BDE8000FF0BD04200BB0BDE8000F35
:1034E800F0BDF0B503AF2DE9000F89B080461D206F
:1034F80001F088FBD8E9036101F01F02012148F2BD
:103508009C5A01FA02F40022C6F8884000F07F00B5
:1035180007F8352CC2F2000A07F8360C40F24809C1
:10352800DAF80000C2F22009022840F29C00C2F238
:1035380020000CD903ABCDE9079207C340F2F4028F
:1035480003A8C2F220020321002307F098FBD8F851
:10355800085028684169C90109D54169C90144BFB2
:1035680041695FEAC11102D54169C901F2D4DAF8AB
:103578000000032813D3002040F22812CDE9079059
:10358800C2F2200205900120049040F22010C2F2FD
:1035980020000321039003A8002307F070FB03A871
:1035A800A7F1360229460223FEF72FFF1D2017F840
:1035B80035BCC6F8844001F025FBC6F888400BF0FE
:1035C800FE0140F0800007F8351C07F8360CDAF8E1
:1035D8000000022813D9002040F2F402CDE9079038
:1035E800C2F2200205900120049040F29C00C2F231
:1035F80020000321039003A8002307F040FB28685C
:103608004169C90109D54169C90144BF41695FEAF6
:10361800C11102D54169C901F2D4DAF800000328C2
:1036280013D3002040F22812CDE90790C2F22002FD
:1036380005900120049040F22010C2F220000321DE
:10364800039003A8002307F01AFBA7F136012846C8
:103658000222FEF72DFEC1B2062909D10120C6F8C3
:10366800844088F82000062009B0BDE8000FF0BDAE
:10367800042009B0BDE8000FF0BDF0B503AF2DE997
:10368800000F89B080461D2001F0BCFAD8E903611B
:1036980001F01F02012148F29C5A01FA02F40022AB
:1036A800C6F8884000F07F0007F8352CC2F2000AFF
:1036B80007F8360C40F24809DAF80000C2F220098F
:1036C800022840F29C00C2F220000CD903ABCDE9DD
:1036D800079207C340F2F40203A8C2F220020321B2
:1036E800002307F0CCFAD8F8085028684169C901C6
:1036F80009D54169C90144BF41695FEAC11102D5D1
:103708004169C901F2D4DAF80000032813D3002074
:1037180040F22812CDE90790C2F22002059001205C
:10372800049040F22010C2F220000321039003A865
:10373800002307F0A4FA03A8A7F1360229460223BA
:10374800FEF763FE1D2017F835BCC6F8844001F06B
:1037580059FAC6F888400BF0010140F0800007F8DC
:10376800351C07F8360CDAF80000022813D90020B7
:1037780040F2F402CDE90790C2F220020590012040
:10378800049040F29C00C2F220000321039003A899
:10379800002307F074FA28684169C90109D541690D
:1037A800C90144BF41695FEAC11102D54169C90134
:1037B800F2D4DAF80000032813D3002040F22812CC
:1037C800CDE90790C2F2200205900120049040F252
:1037D8002010C2F220000321039003A8002307F061
:1037E8004EFAA7F1360128460222FEF761FDC1B262
:1037F800062909D10020C6F8844088F82000062050
:1038080009B0BDE8000FF0BD042009B0BDE8000F05
:10381800F0BDF0B503AF2DE9000F93B09146D7E99D
:1038280002C4BD6904F01F024FF0010E42F20F7688
:103838000EFA02F28B46CCF88820C5F81061D7F84A
:1038480010A07969D5F8186146F00106C5F8186125
:10385800CDE902A1CDE90845CDE9063CCDE904B999
:10386800ADF828E0D5F81C61F6070CD1D5F81C6135
:10387800F60704BFD5F81C615FEAC67603D1D5F810
:103888001C61F607EED001260190C5F81C6142F2D2
:103898000F71D5F8186126F00106C5F81861CCF843
:1038A8008420C5F81011D5F8181141F00101C5F8A8
:1038B8001811D5F81C11C9070CD1D5F81C11C90766
:1038C80004BFD5F81C115FEAC17103D1D5F81C11EA
:1038D800C907EED04FF0010803F01F00C5F81C819E
:1038E800D5F8181108FA00F4422021F00101C5F8B2
:1038F800181101F087F948F29C550021C9F8884051
:1039080000F07F0007F8351CC2F2000507F8360CF6
:103918002868022815D940F2480040F2F402C2F2A1
:1039280020001291119040F29C00C2F22000CDE9D3
:103938000E810D900DA8C2F220020321002307F08A
:103948009EF9DBF800004169C90109D54169C9013F
:1039580044BF41695FEAC11102D54169C901F2D486
:103968002868032817D3002040F24801129040F23B
:1039780028120F9001200E9040F22010C2F2200071
:10398800C2F220010D900DA81191C2F2200203216C
:10399800002307F074F90DA8A7F13602594602234F
:1039A8004FF00208FEF731FD17F8350CC9F88440CE
:1039B800122840F08E8102A80021A84600F09EF946
:1039C8000E46C1B2062940F08F817869039006201F
:1039D800CDF808A001F016F9DDE905B101F01F02E4
:1039E800012140F0800001FA02F44FEA9A02CBF874
:1039F8008840464607F8360C4FEA5A3007F8352C07
:103A08004FEAC069D8F800006AF39A39022816D933
:103A1800002040F24802CDE90E10C2F220021290B6
:103A280040F29C00C2F22000119240F2F4020D9084
:103A38000DA8C2F220020321002307F020F9049DFB
:103A480028684169C90109D54169C90144BF41696B
:103A58005FEAC11102D54169C901F2D4306803286F
:103A680017D3002040F24801129040F228120F901C
:103A780001200E9040F22010C2F22000C2F2200174
:103A88000D900DA81191C2F220020321002307F026
:103A9800F6F8A7F1360128460222FEF709FCC6B25D
:103AA800062E40F020810720CBF8844001F0AAF8C8
:103AB8004FEA1921CBF8884040F0800007F8351C00
:103AC80007F8360C4646D8F80000022817D9002017
:103AD80040F24801129040F2F4020F9001200E903B
:103AE80040F29C00C2F22000C2F220010D900DA805
:103AF8001191C2F220020321002307F0C0F82868C0
:103B08004169C90109D54169C90144BF41695FEAF1
:103B1800C11102D54169C901F2D43068032817D30D
:103B2800002040F24801129040F228120F90012024
:103B38000E9040F22010C2F22000C2F220010D9037
:103B48000DA81191C2F220020321002307F097F873
:103B5800A7F1360128460222FEF7AAFBC6B2062EB6
:103B680040F0C1800820CBF8844001F04BF8CBF836
:103B7800884040F0800007F8359C07F8360CD8F8E4
:103B88000000022817D9002040F24801129040F2A4
:103B9800F4020F9001200E9040F29C00C2F2200027
:103BA800C2F220010D900DA81191C2F2200203214A
:103BB800002307F064F828684169C90109D54169FB
:103BC800C90144BF41695FEAC11102D54169C90110
:103BD800F2D4D8F80000032817D3002040F2480197
:103BE800129040F228120F9001200E9040F22010FF
:103BF800C2F22000C2F220010D900DA81191C2F26C
:103C080020020321002307F03AF8A7F136012846DD
:103C18000222FEF74DFBC6B2062E64D10E20CBF869
:103C2800844000F0EFFF014602A80022FFF77EF96A
:103C38000E46C1B2062957D10F2000F0E3FF014616
:103C480002A80022FFF772F90E46C1B206294BD12D
:103C58000C2000F0D7FF014602A8FFF7FBF8C0F3DD
:103C68000726C1B206293FD10C2000F0CBFF014640
:103C780046F0030202A8FFF759F90E46C1B2062919
:103C880032D1262000F0BEFF014602A80422FFF729
:103C98004DF90E46C1B2062926D102AD01210124F3
:103CA800284600F02BF80E46C1B206291CD1DDE9E2
:103CB800050101F01F0104FA01F1C0F88410019C0C
:103CC8004FCD4FC495E84F004FC413B0BDE8000F67
:103CD800F0BD01994870012081F82080087013B068
:103CE800BDE8000FF0BD0420019A022182F82010DF
:103CF8005670107013B0BDE8000FF0BDF0B503AFFB
:103D08002DE9000F89B0054690F82000884648B193
:103D18002846FFF7E6FBC2B2062A09D009B0BDE87B
:103D2800000FF0BD2846FFF7A8FCC2B2062AF5D15D
:103D380001204FF0010B00F065FF0646802000F0DF
:103D480060FF0446404600F05CFFD5E9039120433C
:103D580001F01F0148F29C54C2F200040BFA01FA68
:103D6800C9F888A007F8350C46F0800007F8360C2B
:103D78002068022816D9002040F24801089040F235
:103D8800F402CDE904B040F29C00C2F22000C2F275
:103D98002001039003A80791C2F220020321002307
:103DA80006F06DFFAE6830684169C90109D54169FF
:103DB800C90144BF41695FEAC11102D54169C9011E
:103DC800F2D42068032817D3002040F24801089055
:103DD80040F2281205900120049040F22010C2F20F
:103DE8002000C2F22001039003A80791C2F220022A
:103DF8000321002306F043FFA7F1360130460222D3
:103E0800FEF756FAC1B2062908D1C9F884A00620DF
:103E180085F8218009B0BDE8000FF0BD042009B085
:103E2800BDE8000FF0BD80B56F4600F001F8FEDE7A
:103E380080B56F46CEB0FEF71EFC054648F29F607F
:103E4800C0F201000DF1280AC1F8000105F10808C7
:103E5800D1F808010C4640F00100C1F808010AF148
:103E6800080002900AF10C000390D4F80C01C00776
:103E78000CD1D4F80C01C00704BFD4F80C015FEAD8
:103E8800C07003D1D4F80C01C007EED0012048F26D
:103E98009C5BC4F80C01C2F2000BD4F8081121F0A5
:103EA8000101C4F80811DBF80010022916D9002115
:103EB80040F24412CDE90F0140F25010C2F2200244
:103EC800C2F22000129240F27C120E900EA81391BA
:103ED800C2F220020321002306F0D1FE222040F284
:103EE800E419069040F29810C2F22000C2F22009AC
:103EF8000590DBF80000022816D9012040F2EC12E8
:103F0800CDE912A00021CDE90E9040F29F60C0F2E9
:103F1800000010910B9005A80A900EA8C2F220028A
:103F28000321002306F0ABFE404600F051FA064696
:103F3800DBF8000066B103283DD300F05EFE0821DF
:103F4800ADF82400089140F2CA11C2F220010BE03A
:103F5800032830D300F04EFE0C21ADF82400089160
:103F680040F21C21C2F22001079140F29F61C0F289
:103F7800000100220D9105A90C9140F26F31C0F2A9
:103F88000001000C0B9107A90A910221139100234B
:103F98000F9140F20C21109240F2EC12C2F2200173
:103FA8008DF826000EA80E91C2F220020321CDF84A
:103FB80048A006F064FE1720069040F22820C2F2BE
:103FC80020000590DBF80000022816D9012040F2F5
:103FD800EC12CDE912A00021CDE90E9040F29F60CD
:103FE800C0F2000010910B9005A80A900EA8C2F22A
:103FF80020020321002306F042FE05F11800049078
:10400800404600F088FADBF8001090B3032963D328
:1040180000F0F3FD08210022089140F2CA11C2F213
:104028002001ADF82400079140F29F61C0F2000121
:10403800000C0D9105A90C9140F26F31C0F20001FE
:104048008DF826000B9107A90A910221CDE90F12DC
:1040580040F2EC12CDE912A140F20C21C2F220018B
:104068000EA80E91C2F220020321002306F007FEDB
:1040780032E003292FD300F0BDFD0C210022089166
:1040880040F21C21C2F22001ADF82400079140F251
:104098009F61C0F20001000C0D9105A90C9140F23E
:1040A8006F31C0F200018DF826000B9107A90A9123
:1040B8000221CDE90F1240F2EC12CDE912A140F233
:1040C8000C21C2F220010EA80E91C2F22002032197
:1040D800002306F0D4FDBEB1DBF80000032847D367
:1040E80000F08BFD0546060C00F082FD02998E70EB
:1040F8000D8003990880000C887015200B9040F201
:104108005C20C2F2200016E0DBF8000003282FD361
:1041180000F070FD0546060C00F06AFD02998E70ED
:104128000D8003990880000C887014200B9040F2D1
:104138004820C2F220000A9040F21730C0F2000076
:1041480007A908900120139040F2EC120F9040F25A
:104158004020C2F22000129100210E900EA810916A
:10416800C2F2200203210023CDF81CA006F087FD2F
:104178000EA846F6724A42F26F0B46F248564AF2C9
:104188001F1900F10C05C2F2641AC6F6577BC6F671
:104198006C46C0F207094FF0010807E0C4F80C812B
:1041A800D4F8080120F00100C4F808012846F321DA
:1041B800CDF840A0CDE90E6B07F051FF04980EA989
:1041C8000C22FEF71FFFC4F80091D4F8080140F054
:1041D8000100C4F80801D4F80C01C007DED1D4F8F6
:1041E8000C01C00704BFD4F80C015FEAC070D5D138
:1041F800D4F80C01C007EED0D0E7D4D4F0B503AFA3
:104208004DF804BD9AB00446D1E902059446D1E9B7
:1042180000234FF0000E40F293368DE8614006AD62
:104228000969284604916146FFF7F3FA9DF83800BA
:1042380002281FBF4FCD4FC495E84F004FC41EBF83
:104248001AB05DF804BBF0BD9DF818009DF8191070
:104258008DF8411010A98DF840000131DFE800F019
:10426800031E3F59738D48F29C50C2F2000000684B
:104278000328C0F0A180002040F27421199040F278
:10428800D43216900120159040F2CC30C2F22001B1
:10429800C2F220001891C2F2200287E048F29C5036
:1042A8001191C2F200000068022840F2858012A92C
:1042B800012018910021199040F29C32CDE9150196
:1042C80040F29430C2F22000C2F22002149040F270
:1042D8009960C0F20000139011A8129067E048F2AC
:1042E8009C50C2F200000068032865D3002040F209
:1042F8007421199040F2683216900120159040F20E
:104308006030C2F22001C2F220001891C2F22002ED
:104318004CE048F29C50C2F20000006803284BD3DE
:10432800002040F27421199040F244321690012086
:10433800159040F23C30C2F22001C2F220001891E0
:10434800C2F2200232E048F29C50C2F2000000683B
:10435800032831D3002040F27421199040F214321E
:1043680016900120159040F20C30C2F22001C2F2E2
:1043780020001891C2F2200218E048F29C50C2F2C4
:1043880000000068032817D3002040F27421199018
:1043980040F2E42216900120159040F28420C2F2E7
:1043A8002001C2F22000C2F220021891149014A831
:1043B8000321002306F063FC40F2F03040F2004293
:1043C800C2F22000C2F220020E2106F075FDFEDEC8
:1043D800F0B503AF2DE9000B8CB00446D0E90160BD
:1043E80000F01F01012048F29C58902200FA01F5C4
:1043F8000021C6F88850C2F20008CDF8091040F232
:1044080048098DF80820C2F220098DF80D10D8F857
:104418000020022A11D9CDE9070140F29C00C2F21E
:10442800200040F2F402069006A8CDE90A91C2F2F3
:1044380020020321002306F022FC24682068416939
:10444800C90109D54169C90144BF41695FEAC11180
:1044580002D54169C901F2D4D8F80000032813D362
:10446800002040F22812CDE90A90C2F220020890FA
:104478000120079040F22010C2F22000032106908C
:1044880006A8002306F0FBFB0DF1080906A8214643
:1044980006234A46FDF7B9FF9DF80C009DF80D105C
:1044A800C6F8845007F8420C80F0EF0007F8411C6A
:1044B80081F015010843C0B2B0FA80F14FEA5114F7
:1044C80018B3D8F8000003281FD302200021CDE933
:1044D8000701A7F14101CDE90A9040F23C40C2F240
:1044E800200040F2A442069049F2F970C0F20000A0
:1044F800C2F22002CDE9030103210590A7F1420091
:10450800029006A8002306F0BAFB84F001000CB064
:10451800BDE8000BF0BDF0B503AF2DE9000F8DB07D
:104528000446D0E9019000F01F01012000FA01F8CB
:104538000621C9F888808DF8081048F29C51C2F20B
:1045480000010968022916D9002140F24802CDE984
:10455800080140F29C00C2F22002C2F220000B9235
:1045680040F2F402079007A80C91C2F2200203213E
:10457800002306F084FB246820684169C90109D535
:104588004169C90144BF41695FEAC11102D5416966
:10459800C901F2D448F29C50C2F200000068032816
:1045A80017D3002040F248010C9040F228120990DD
:1045B8000120089040F22010C2F22000C2F220012F
:1045C800079007A80B91C2F220020321002306F0EE
:1045D80056FB07A802AA214601230125FDF715FF6E
:1045E8002020C9F88480C9F88880029048F29C503D
:1045F800C2F200000068022816D9002040F24801E3
:104608000C9040F2F402CDE9085040F29C00C2F24E
:104618002000C2F22001079007A80B91C2F22002E5
:104628000321002306F02BFB20684169C90109D545
:104638004169C90144BF41695FEAC11102D54169B5
:10464800C901F2D448F29C50C2F200000068032865
:1046580017D3002040F248010C9040F2281209902C
:104668000120089040F22010C2F22000C2F220017E
:10467800079007A80B91C2F220020321002306F03D
:10468800FEFA07AD02AA214604232846FDF7BDFE1F
:104698004FF0050B00264FF0010AC9F884800BE0A3
:1046A80002AA284621460223FDF7AFFE9DF809001D
:1046B800C9F88480C0074CD048F29C50C9F888805B
:1046C800ADF808B0C2F200000068022815D940F21F
:1046D800480040F2F402C2F2200003210B9040F29D
:1046E8009C00C2F22000C2F2200207902846002354
:1046F8000C96CDE908A606F0C2FA20684169C901FE
:1047080009D54169C90144BF41695FEAC11102D5B0
:104718004169C901F2D448F29C50C2F20000006815
:104728000328BDD340F2480040F22812C2F220000C
:1047380003210B9040F22010C2F22000C2F22002A6
:104748000790284600230C96CDE908A606F097FAAC
:10475800A6E7302007F8490C0620C9F888808DF8AC
:10476800080048F29C50C2F200000068022817D9DD
:10477800002040F248010C9040F2F4020990012018
:10478800089040F29C00C2F22000C2F2200107907B
:1047980007A80B91C2F220020321002306F06FFA4A
:1047A80020684169C90109D54169C90144BF416906
:1047B8005FEAC11102D54169C901F2D448F29C509F
:1047C800C2F200000068032817D3002040F2480115
:1047D8000C9040F2281209900120089040F2201015
:1047E800C2F22000C2F22001079007A80B91C2F282
:1047F80020020321002306F042FA07A802AA214654
:1048080001230125FDF701FE3020C9F8848007F84F
:10481800350C0220C9F88880029048F29C50C2F2F8
:1048280000000068022816D9002040F248010C90C8
:1048380040F2F402CDE9085040F29C00C2F2200098
:10484800C2F22001079007A80B91C2F220020321AF
:10485800002306F014FA20684169C90109D54169A5
:10486800C90144BF41695FEAC11102D54169C90163
:10487800F2D448F29C50C2F200000068032817D313
:10488800002040F248010C9040F2281209900120C3
:10489800089040F22010C2F22000C2F220010790D6
:1048A80007A80B91C2F220020321002306F0E7F9C2
:1048B80007A802AA21460423FDF7A7FD48F29C5049
:1048C800C2F200000068022817D9002040F248010F
:1048D8000C9040F2F40209900120089040F29C00EC
:1048E800C2F22000C2F22001079007A80B91C2F281
:1048F80020020321002306F0C2F920684169C9019A
:1049080009D54169C90144BF41695FEAC11102D5AE
:104918004169C901F2D448F29C50C2F20000006813
:10492800032817D3002040F248010C9040F22812C7
:1049380009900120089040F22010C2F22000C2F233
:104948002001079007A80B91C2F22002032100233F
:1049580006F095F907ADA7F135022146012328464F
:10496800FDF753FD0DF1080A4FF0050B0026C9F8B5
:1049780084800BE02846214652460223FDF745FD78
:104988009DF80900C9F88480C0074ED048F29C50B1
:10499800C9F88880ADF808B0C2F2000000680228A3
:1049A80016D940F2480040F2F402C2F22000032176
:1049B8000B900120089040F29C00C2F22000C2F245
:1049C80020020790284600230C96099606F057F90E
:1049D80020684169C90109D54169C90144BF4169D4
:1049E8005FEAC11102D54169C901F2D448F29C506D
:1049F800C2F2000000680328BCD340F2480040F22D
:104A08002812C2F2200003210B900120089040F2E6
:104A18002010C2F22000C2F220020790284600238C
:104A28000C96099606F02BF9A4E70321C9F88880AB
:104A38000020029148F29C5107F8350CC2F200019F
:104A48000968022916D90C9040F248010990012002
:104A5800089040F29C00C2F2200040F2F402C2F238
:104A68002001079007A80B91C2F22002032100231E
:104A780006F005F920684169C90109D54169C901EC
:104A880044BF41695FEAC11102D54169C901F2D445
:104A980048F29C50C2F200000068032817D3002097
:104AA80040F248010C9040F2281209900120089029
:104AB80040F22010C2F22000C2F22001079007A89D
:104AC8000B91C2F220020321002306F0D8F802AEAF
:104AD80007A8214604233246FDF797FC48F29C506C
:104AE800C2F200000068022817D9002040F24801ED
:104AF8000C9040F2F40209900120089040F29C00CA
:104B0800C2F22000C2F22001079007A80B91C2F25E
:104B180020020321002306F0B2F820684169C90188
:104B280009D54169C90144BF41695FEAC11102D58C
:104B38004169C901F2D448F29C50C2F200000068F1
:104B4800032817D3002040F248010C9040F22812A5
:104B580009900120089040F22010C2F22000C2F211
:104B68002001079007A80B91C2F22002032100231D
:104B780006F085F8A7F1350507A8214601232A463E
:104B8800FDF743FC17F8354CC9F88480302C07F83A
:104B9800354C25D048F29C50C2F20000006803282A
:104BA8001ED3022040F2F442CDE90B6000200990A8
:104BB8000320089040F2DC40C2F22000A7F149012E
:104BC800079049F2F970C0F2000004910590C2F212
:104BD8002002CDE9025007A80321002306F04FF870
:104BE800B4F1300018BF01200DB0BDE8000FF0BDD2
:104BF800002070474FF47F407047FF20C0F28000CC
:104C0800704770477047F0B503AF4DF804BD0E46C6
:104C180000211546044602F0CEFF284640F2E24144
:104C280002F0CFFF304603F0B1F840F2705521464C
:104C3800C2F2200500222846366803F071F8A81C45
:104C48002146002203F06CF8281D2146002203F0BB
:104C580067F8A81D2146002203F062F805F1080054
:104C68002146002203F05CF805F10A0021460022E3
:104C780003F056F805F10C002146002203F050F825
:104C880005F10E002146002203F04AF805F1100054
:104C98002146002203F044F805F1120021460022C3
:104CA80003F03EF805F114002146002203F038F81D
:104CB80005F116002146002203F032F805F118002C
:104CC8002146002203F02CF805F11A0021460022A3
:104CD80003F026F805F11C002146002203F020F815
:104CE80005F11E002146002203F01AF820684169E8
:104CF800890107D5416921F000714161204602F020
:104D08004BFF20684169012221F060514161206810
:104D1800816962F30D318161204602F03DFF206810
:104D2800416941F000714161204602F035FF4FF4BE
:104D380080503060642030604FF4005070603068FC
:104D4800002809D4306800285CBF3068002803D4E4
:104D58003068B0F1FF3FF2DC20680122016962F39C
:104D680002010161204602F017FF2068416921F421
:104D7800E0514161204602F00FFF2068816941F44B
:104D8800402181612068416921F00071416120461C
:104D980002F002FF206840F2C215C2F2200500228C
:104DA800416941F4407141612846214602F0B8FF4B
:104DB800A81C2146002202F0B3FF281D214600222C
:104DC80002F0AEFFA81D2146002202F0A9FF2068CC
:104DD800022640F2BA150022C2F22005816B66F362
:104DE800D84181632068816B41F480218163284622
:104DF800214602F095FFA81C2146002202F090FFF0
:104E0800281D2146002202F08BFFA81D2146002202
:104E180002F086FF206840F290550322C2F2200576
:104E2800816966F3051181612068816962F39C617B
:104E3800816128462146002202F072FFA81C214603
:104E4800002202F06DFF281D2146002202F068FFB3
:104E5800A81D2146002202F063FF05F10800214643
:104E6800002202F05DFF2068172240F2BA55C2F214
:104E78002005C16962F30501C16120680022C1698A
:104E880041F04001C1612846214602F049FFA81CB3
:104E98002146002202F044FF281D2146002202F08C
:104EA8003FFFA81D2146002202F03AFF05F1080045
:104EB8002146002202F034FF05F10A0021460022B3
:104EC80002F02EFF05F10C002146002202F028FF17
:104ED80005F10E002146002202F022FF206840F270
:104EE800DA55C2F220050322416A41F040014162CD
:104EF8002068416A66F3050141622846214602F0AE
:104F08000FFFA81C2146032202F00AFF281D214694
:104F1800032202F005FFA81D2146032202F000FF2C
:104F280005F108002146032202F0FAFE05F10A0005
:104F38002146032202F0F4FE05F10C00214603226B
:104F480002F0EEFE05F10E002146032202F0E8FE13
:104F580005F110002146032202F0E2FE05F11200DD
:104F68002146032202F0DCFE05F11400214603224B
:104F780002F0D6FE05F116002146032202F0D0FE0B
:104F880005F118002146032202F0CAFE05F11A00B5
:104F98002146032202F0C4FE05F11C00214603222B
:104FA80002F0BEFE05F11E002146032202F0B8FE03
:104FB80005F120002146032202F0B2FE05F122008D
:104FC8002146032202F0ACFE05F12400214603220B
:104FD80002F0A6FE05F126002146032202F0A0FEFB
:104FE80005F128002146032202F09AFE05F12A0065
:104FF8002146032202F094FE05F12C0021460322EB
:1050080002F08EFE05F12E002146032202F088FEF2
:1050180005F130002146032202F082FE05F132003C
:10502800214603225DF804BBBDE8F04002F078BEDB
:10503800F0B503AF2DE9000F87B00546086C0028CE
:1050480040F0AC8091F844A0002008640C460AF1B6
:10505800010081F844000868002840F09A804FF069
:10506800FF30261D91462060FF2008210322029070
:10507800CDE9002130468021002204F0ABFB8B46AD
:105088002168C00701F10101216040F09980206C7E
:10509800002840F0838094F84430002000292064E0
:1050A80003F1010284F8442073D14FF0FF3100224C
:1050B80021600221CDE900190021029030460493B5
:1050C80004F088FB2268C00702F10102226040F068
:1050D8008C80002A03915CD14FF0FF30C8462060D5
:1050E80002204FF000098DE801033046802100229C
:1050F80004F070FBC00701BF85F82CA00222A5F8B8
:105108001F20A97701BFA5F81C80049885F82D00F9
:105118004FF6037001BFA5F8070085F806B0082010
:10512800A88001BFA5F82E9085F82A904FF400605A
:10513800288501BF4FF4FA506862A5F8132020684B
:1051480001BF0399A974A5F81080013001BF44F884
:105158003C0BAC612C60EC6002BF07B0BDE8000FEF
:10516800F0BD206840F2206307F8211CC2F220033A
:105178000130206040F28C60A7F12102C2F22000C9
:10518800009040F20E60C2F220000F2105F0EDFE03
:10519800FEDE40F2AC70C2F2200003E040F2EC7098
:1051A800C2F2200040F2FC73009040F2AA5006AA16
:1051B800C2F22000C2F22003102105F0D6FEFEDE66
:1051C80040F29C6040F22063C2F22000A7F1230263
:1051D800009040F20E60C2F22000C2F2200307F8ED
:1051E80023BC0F2105F0C1FEFEDE40F28C6040F2C8
:1051F8002063C2F2200007F8221C009040F20E60E3
:10520800C2F22000C2F22003A7F122020F2105F00A
:10521800ACFEFEDE7047F0B503AF2DE9000F81B09C
:1052280045F240014FF0010CC2F20001BFF35F8F5D
:10523800D1E84F2FC1E843CF002BF9D1BFF35F8FDF
:10524800002A01BF48F20001C4F20D010022C4F295
:105258002F0201BF02F5542C02F5502E02F54C28FE
:10526800A1F5004401BFA1F5003501F5F61601F5D9
:10527800F413C0E9683601BFC0E96A54C0E96C8E0E
:10528800C0E96EC101F5005E01BF01F5805640F22C
:10529800040CC4F22E0C01F5021401BF0CF5FE75C6
:1052A80001F5004300F5C07888E8380001BF00F533
:1052B800C67383E81210C0E9666EA1F5404C01BFC1
:1052C80001F5881E01F5861801F5841401F582138D
:1052D80001BF01F5003602F51025C0E9585600F562
:1052E800B47501BF85E81A41C0F87CC1A1F5804CAE
:1052F80002F51C2E01BF02F5182802F51424A1F5A9
:10530800E03301F5282601BF01F5EE15C0E9505636
:1053180000F5A47585E8184101BFC0E9562C02F5CF
:10532800782802F5742902F5702401BF02F56C2370
:105338004CF2000CC4F2070C0CF5004601BF01F555
:10534800E03E01F58E15C0E9485EC0E94A6101BF3B
:1053580000F5987585E81802C0F83C8101F54828E1
:1053680001BF01F5442901F5402A01F53C2B01F55F
:10537800382301BF01F5342401F5302501F52C2629
:10538800C0E9406501BFC0E94243C0E944BAC0E989
:10539800469802F5302801BF02F52C2902F5282A83
:1053A80002F5242B02F5861301BF02F5841402F5D9
:1053B800821502F58016C0E9386501BFC0E93A4395
:1053C800C0E93CBAC0E93E9801F5F01801BF01F503
:1053D8009219A1F5503AA1F5403BA1F5303301BF30
:1053E80001F5901401F58C1501F58A16C0E93065B0
:1053F80001BFC0E93243C0E934BAC0E9369844F283
:10540800000B01BFC4F2002B0BF500490BF5804AD5
:105418004FF0844801BF01F56C2601F5682401F5B9
:105428006425A1F5C03301BFC0E9283500F1A80300
:1054380083E85009C0E92EA901BF01F5602801F5EC
:10544800E61901F5E81AA1F5203601BF0BF5E0339E
:1054580001F5582401F55425C0E9205401BF00F195
:10546800880484E84804C0E9259EC0F89C8001BFF0
:10547800A1F5103E01F5FE1801F5001902F5642AA0
:1054880001BF02F5602302F55C2602F5582501F5F7
:10549800A03401BF00F1600B8BE87000C0E91B3A33
:1054A800C0E91D9801BFC0F87CE001F5803E02F517
:1054B80040480CF5804901BF01F5804A01F5F21317
:1054C80044F20806C4F2090601BF06F1100506F108
:1054D8000804C0E91064C0E9125301BFC0E914A967
:1054E800C0E9168E0CF5C03E01F5103801BF01F574
:1054F800801901F57C2401F5782302F57C2601BF8B
:1055080002F54825C0E9085600F1280585E8180283
:1055180001BFC0E90D81C0F83CE002F5442E02F558
:105528000C2601BF01F5D21501F5242402F540220D
:10553800A1F5803301BFA1F5A031C0E90013C0E98E
:10554800022C103001BF80E8704001B0BDE8000FA8
:10555800F0BD40F2AC6040F24072C2F22000C2F2EC
:105568002002352105F0A8FCFEDE7047704780B5A3
:105578006F4600F0ACFB80BD80B56F464EF20C1C48
:105588004FF4003ECEF2000C44F2B822CCF880E092
:10559800C2F20002BFF35F8FD0E900318068C2E930
:1055A80000319060BFF35F8FCCF800E1CCF800E0E9
:1055B80080BDF0B503AF4DF804BD88B045F2440690
:1055C800C2F20006306828B108B05DF804BBBDE837
:1055D800F040004744F2B820C2F2000000680628F4
:1055E80017D149F2000005A9C4F20D000122079065
:1055F8000020C4F22E00CDE9050002A800F07CF8D6
:105608000298002850D1039D356008B05DF804BBAE
:10561800F0BD00F041FC00F03EFC48F27815029025
:10562800C2F2000505F212400122BFF35F8FD0E8F5
:105638004F1FC0E8432F002BF9D10029BFF35F8F1C
:105648003ED105F110004FF4806106F008FD05F029
:1056580064FB44F2B8210446C2F20001284602F075
:10566800F8F850BB49F2000048F27812C4F20D0075
:1056780002AB07900020C4F22E00C2F20002CDE96E
:10568800050005A8012100F083F843F63520C0F293
:10569800000002F0DEF90546204605F049FB3560BA
:1056A80008B05DF804BBF0BD02AA05AB07CA07C382
:1056B80040F6A400C2F2200010E0204605F038FBB6
:1056C80049F20000C4F20D0007900020C4F22E0039
:1056D800CDE9050040F6B400C2F2200040F63803D8
:1056E800009040F60C0005AAC2F22000C2F2200386
:1056F8002B2105F03AFCFEDEF0B503AF2DE9000BD7
:1057080084B090460E46044600F0C6FB00F0C3FB8A
:1057180048F278150090C2F2000505F21240012205
:10572800BFF35F8FD0E84F1FC0E8432F002BF9D19C
:10573800BFF35F8F31B196E8070007C404B0BDE836
:10574800000BF0BD05F110004FF4806106F087FCF6
:1057580005F0E3FA8146284602F07CF996E807004E
:1057680001AB07C301A86B4641462A4600F010F872
:1057780043F63520C0F2000002F06BF90021C4E9BD
:105788000010484605F0D4FA04B0BDE8000BF0BD9F
:10579800F0B503AF2DE9000FC9B08B4648F23411BC
:1057A800C2F200011D460A608DF80BB0D0F800A0C7
:1057B800866805F0CFFA46F2000441F23810C2F2CA
:1057C80000042118BFF35F8F51E8000F40F000423A
:1057D80041E80023002BF7D1B0F1FF3FBFF35F8F03
:1057E80040F3E18045F248000122C2F20000BFF315
:1057F8005F8F00F5A060D0E84F1FC0E8432F002B53
:10580800F9D101950029BFF35F8F40F0D88045F2A8
:1058180048004FF4A061C2F2000004F055FC41F2C8
:105828003812CDE93DA60DF1F40A224404F5865359
:10583800CDE93F01479206224FF000095046012169
:10584800CDE9442304F5805346924393CDE9414280
:10585800ADF8209102F0C0FABAE87E000DF10C080C
:1058680008F104007EC09AE87E007EC001205946F7
:105878008DF840004046CDF80C9003F075FD019B73
:105888000DF10B024046002100F096F9414648F21E
:10589800000A5CC9C2F2000A0AF104005CC07CC9B3
:1058A8007CC091E87C0051467CC04FF480604FF486
:1058B8000072AAF844004046CAE90F99CAF8009055
:1058C800FFF7B6FBB8E87E0048F23810C2F20000D5
:1058D8007EC098E87E007EC04FF0485003ACCDF8FB
:1058E80016010220C4F200003DAACDF812011020D2
:1058F800ADF8100145F62400C2F2DD705146439020
:105908000920409040F6C400C2F22000CDF804916E
:105918003F902046CDF8F49000F065F8039D812172
:10592800284603F07CFD2846012103F078FD28462F
:10593800822103F074FD2846022103F070FD2846F9
:10594800832103F06CFD2846032103F068FD2846F7
:10595800842103F064FD2846042103F060FD2846F5
:10596800852103F05CFD2846052103F058FD2846F3
:10597800862103F054FD2846062103F050FD2846F1
:10598800872103F04CFD2846072103F048FD48F223
:1059980048002146C2F20000E82206F062FB49B046
:1059A800BDE8000FF0BD40F6CD0040F65C12C2F233
:1059B8002000C2F220021F2105F0EBF9FEDE40F2C2
:1059C800505040F64C12C2F22000C2F220022021B0
:1059D80005F0DFF9FEDE084640F66C11C2F2200140
:1059E800122205F081BEF0B503AF2DE9000F89B092
:1059F80004460868002840F0968092F821604FF02D
:105A0800FF3001F104080860002091468A46CDE97C
:105A180000060290404600210122002303F0DAFE2E
:105A28000D46DAF80010C00701F10101CAF80010AC
:105A38007ED1002977D14FF0FF308021CAF80000CD
:105A48000020CDE90006012202904046802303F0A1
:105A5800C1FEDAF80020C00702F10102CAF80020EE
:105A680078D1DAF84000002840F089804FF0FF3004
:105A7800002ACAF8400040F08780CAF80000404673
:105A880004968B46059503F03DFFDAF800000130D7
:105A9800CAF800007DD34FF0FF304AF83C0B201DB8
:105AA800BFF35F8FCAF80080BFF35F8FB9E86E005D
:105AB8006EC099E86E006EC0002517F8230C049B91
:105AC80037F8251C059A84F8430004F1600084F82F
:105AD8003220BDF81820A4F841108021A38723861E
:105AE8009DF81A3084F83EB0A4F83F50C4F838A0A6
:105AF800A4F83350C4F82CA084F83730A4F8352023
:105B080006F0ADFA4FF08060C4E913556564A4F857
:105B1800545084F8E450C4F8E000C4F8008009B098
:105B2800BDE8000FF0BD40F2AC70C2F2200034E0D6
:105B380040F6F01040F68013C2F22000A7F12202CE
:105B4800009040F21050C2F22000C2F2200307F881
:105B5800225C10E040F6002040F68013C2F22000DC
:105B680007F8211C009040F21050C2F22000C2F247
:105B78002003A7F12102202105F0F7F9FEDE40F20B
:105B8800BC70C2F2200008E040F2CC70C2F22000E3
:105B980003E040F2DC70C2F2200040F2FC73009097
:105BA80040F2AA5008AAC2F22000C2F22003102133
:105BB80005F0DBF9FEDE7047F0B503AF2DE900070D
:105BC80084B0044690F834001D4691460E4678B3DA
:105BD8002068002867D14FF0FF3031462060201D33
:105BE80003F0A9FA02AECDE90201D5F800803046EB
:105BF80099F8005003F0B6FA304603F0F9FA002D90
:105C080018BF01253046294603F0FEFA3046012127
:105C180003F0C0FA3046414603F0C8FA304603F0B4
:105C2800ADFA20680130206004B0BDE80007F0BD7F
:105C380005F08DF8804605F080F805F08BF82068AF
:105C480088BB4FF0FF3031462060201D03F073FA07
:105C580002AECDE90201D5F800A0304699F800500F
:105C680003F080FA304603F0C3FA002D18BF01256F
:105C78003046294603F0C8FA3046012103F08AFA73
:105C88003046514603F092FA304603F077FA20681E
:105C9800013020605FEAC87008BF05F050F804B012
:105CA800BDE80007F0BD40F66C2040F67C23C2F248
:105CB800200002AA009040F2AA50C2F22000C2F2CC
:105CC8002003102105F051F9FEDE7047FEE740F68B
:105CD8008C220021C2F220020523C0E90032816033
:105CE80070477047F0B503AF4DF8048D84B040F6A7
:105CF8008C2048F2301848F24805C2F22000039080
:105D0800C2F2000808F10800C2F2000502A90290D8
:105D18002846012200F02CFB04462868002101F0E7
:105D2800C7F8064695F8E01098F80000022933D124
:105D380048B9286803F00DFD2868002101F033F9FF
:105D4800012088F80000D8F814000168BFF35F8FBD
:105D5800002900F09480002098F81A2040F6C0230B
:105D6800009002A8C2F22003344303F06FFF7CB115
:105D7800D8F804000123BFF35F8F00F58261D1E8F2
:105D88004F2FC1E8463F002EF9D1BFF35F8F7AB19C
:105D980004B05DF8048BF0BD18B12868002101F04B
:105DA80065F9002088F8000004B05DF8048BF0BDA8
:105DB8000668BFF35F8F8268BFF35F8F4368BFF3E6
:105DC8005F8F934205D19E423EBFBFF35F8F002392
:105DD80043609E4228BF32469A4207D10020BFF353
:105DE8005F8F087004B05DF8048BF0BDD8F8201000
:105DF800D8F804400968BFF35F8F00293FD0D61A4E
:105E0800184498F8262000F1100302A83546B6F584
:105E1800007F28BF4FF40075009503F05BFE9DF8E6
:105E2800080078B194F81004BFF35F8F0028AFD052
:105E3800201DBFF35F8F50E8001F40E80012002AC2
:105E4800F9D113E0039894F81014BFF35F8F002979
:105E58009ED0211D864238BF3046BFF35F8F51E880
:105E6800002F024441E80023002BF8D10020BFF3A3
:105E78005F8F84F8100404B05DF8048BF0BD40F621
:105E88004C3040F6D032C2F22000C2F22002222169
:105E980005F012F8FEDE70474FF47A607047F0B5EF
:105EA80003AF2DE9000F83B000F12C0B1E46884686
:105EB8008246D4006FF002058946029264B1F9E87F
:105EC800020132464B6A59469847BAF85400083CD2
:105ED80004382842F2D008E0F07950B1BAF85400FA
:105EE8006FF00201043808422BD003B0BDE8000F60
:105EF800F0BD317A707A02294FD0012961D000298A
:105F0800ECD1002800F08680062800F0A28008283E
:105F180004BFBAF854000428E0D19AF8E00001213F
:105F2800AAF8541000220238BAF85A10B0FA80F0D1
:105F3800002918BF01214009CAE913218AF8600025
:105F480083E0DAF82C000921AAF854100068BFF39E
:105F58005F8FB0B19AF83210012203F033FFDAF8FC
:105F680038000068BFF35F8F00281FBF9AF83E1003
:105F7800012203B0BDE8000F1CBFBDE8F04003F0EC
:105F880021BF40F64C3040F6D032C2F22000C2F2B7
:105F98002002222104F090FFFEDE00289ED17188A5
:105FA800DAF8000001F08F0103F08EFFBAF8541000
:105FB800042993D1AAF860000120AAF8540000200F
:105FC8001EE090B10A2804BFBAF8540004287FF4F0
:105FD80085AFBAF85A10002001228AF86000AAF8A2
:105FE8005420002918BF01210FE0BAF854000428F2
:105FF8007FF474AF00200121AAF86000AAF85410B9
:10600800BAF85A10022928BF0221CAF84C00CAF867
:1060180050101AE0BAF8540004287FF45FAF9AF8D9
:10602800E1000122AAF8542000229AF8E210002880
:1060380018BF0120BAF85A3041EA4000AAF86000B7
:10604800022B28BF0223CAE91323584600F015FC87
:1060580044E700960AF10400029A41465B4600F0C4
:10606800D7F83BE7F0B503AF2DE9000784B000F19E
:106078002C0A99460C468046D5006FF0020665B199
:10608800F4E802014A460B6A51469847B8F85400AA
:10609800083D04383042F2D009E099F8070050B1C1
:1060A800B8F854006FF00201043808421ED004B05A
:1060B800BDE80007F0BD99F8082099F80900B9F87B
:1060C8000010AAB3012A44D0022AE9D103286AD0D1
:1060D800012808BF0029E3D1B9F802100022D8F836
:1060E800000001F08F0103F06DFE86E0D8F82C0067
:1060F8000921A8F854100068BFF35F8F002846D024
:1061080098F83210012203F05DFED8F838000068D4
:10611800BFF35F8F00281FBF98F83E10012204B01C
:10612800BDE800071CBFBDE8F04003F04BBE2EE001
:1061380001380828B4D8DFE800F0060543054A0509
:1061480005055400ACE70129AAD1002088F8E10030
:1061580053E00B28A4D1002904BFB8F8540006283E
:106168007FF49EAFD8F838000168BFF35F8F71B134
:1061780098F83E20002040F6E033009002A8C2F2D2
:10618800200303F0A7FC0820A8F8540088E740F68D
:106198004C3040F6D032C2F22000C2F22002222156
:1061A80004F08AFEFEDE00297FF47AAFB9F8021007
:1061B8000122D8F8000001F08F0103F003FE1CE073
:1061C80001297FF46DAF012088F8E10015E0481E31
:1061D80080B27F28BFF464AFD8F8000003F045FB15
:1061E80008E021B101297FF45BAF022003E098F8B1
:1061F800E00038B1012088F8E0005046494600F038
:106208002EFE4DE75046494600F0FCFD48E7D4D441
:10621800F0B503AF2DE9000B88B00646B868144600
:106228000D4698460196018902684068ADF810103D
:10623800CDE9022002A804F0A5FB4FF0FF3252FA84
:1062480080F00E2800F26380DFE800F008101C617F
:10625800616161616161616161612A0001A9404612
:1062680000F0FFFC08B0BDE8000BF0BD01A805A9CF
:1062780005904046CDE9065400F04CFD08B0BDE855
:10628800000BF0BDC8B2032813D8DFE800F00226DF
:106298002A3A404600F0B4FB08B0BDE8000BF0BD58
:1062A80040462946224600F009FC08B0BDE8000B2C
:1062B800F0BD084604F047FB4CB38146BDF80A60C0
:1062C80005EBC404D5E9000132464B6949469847B5
:1062D80068B90835A542F5D119E0311D306828B9EB
:1062E80015E006F10C010836306880B10968CDE97F
:1062F800050105A9404600F059FC08B0BDE8000BAF
:10630800F0BD06F11401103630680028EED1B8F857
:1063180028006FF0020104380842A3D1D8F8000021
:106328000921A8F828100068BFF35F8F98B198F882
:106338000610012203F046FDD8F80C000068BFF3F0
:106348005F8F40B198F81210012203F03BFD08B0AE
:10635800BDE8000BF0BD40F64C3040F6D032C2F23A
:106368002000C2F22002222104F0A6FDFEDED4D4D1
:10637800F0B503AF2DE9000F8DB00468064605A8F7
:1063880088469246214603F058FE96F8E000BDF88C
:106398001450032816D1002D4FF0000018BF032D0C
:1063A80003D10DB0BDE8000FF0BD204603F044FE58
:1063B80096F8E300042800F00881042186F8E0003C
:1063C80086F8E31005F00700DFE800F0030824482A
:1063D800030000200DB0BDE8000FF0BD306803F0E9
:1063E800D5FA00200421BAF1000FA6F8E000A6F8BB
:1063F800E310A6F85400ECD008EBCA04A8F108058D
:1064080055F8080F69688969884705F10800A042AE
:10641800F6D1DEE7BDF81600BDF81810BDF81A2051
:106428000290084340EA0209049103925FEAC970A6
:1064380054D00498C0071CBF06F12C0000F078FA6D
:106448000398C00719D10298C00720D104208DF8FD
:1064580023009DF82300042822D13DE0306803F092
:10646800EBFD96F8E00086F8E300032086F8E000EC
:1064780000200DB0BDE8000FF0BD06F12C0107A803
:1064880000F045F99DF82300042809D124E006F11D
:106498002C0107A800F0A5F89DF8230004281BD0BC
:1064A8009DF8220000287AD0802815D1DDE907015F
:1064B8000AABBDF82420CDE90A013046ADF83020FA
:1064C80041465246FFF7EBFC29F00109B9F1000FEC
:1064D800CDE9008A07D14DE029F00109B9F1000F93
:1064E800CDE9008A46D00199002953D000980126A9
:1064F8004FF0020B00EBC108A0F1080503981BEA56
:10650800000F0BD02C4654F8080F61688A6A314690
:10651800904704F108004045F5D10EE002981BEAC7
:10652800000F0AD02C4654F8080F6168CA6A314631
:10653800904704F108004045F5D104981BEA000F84
:106548000DD066F07F04AA465AF8080FDAF804104E
:106558000A6B214690470AF108004045F4D129EA20
:106568000B095FEA094005D0701C0F2E4FEA4B0B50
:106578000646C3D3019969B1009800EBC104A0F1A4
:10658800080555F8080F6968C969884705F10800C2
:10659800A042F6D101200DB0BDE8000FF0BDDDE945
:1065A80007010AABBDF82420CDE90A013046ADF851
:1065B800302041465246FFF755FD29F00109B9F14F
:1065C800000FCDE9008A8ED1D4E740F6C02040F60E
:1065D8003C32C2F22000C2F220021C2104F0D9FB96
:1065E800FEDEF0B503AF4DF804BD86B00446088D55
:1065F8000D46411E032927D3052825D0072835D164
:10660800286AD5F82E30698E8128D5F82A20ADF869
:106618000C10CDE9012372D229680968BFF35F8F96
:10662800002960D0C0F18003AA792844009300F1C2
:10663800340304A803F00AFB9DF8100000283ED09C
:106648009DF8110008BB34E028680168BFF35F8F2C
:10665800002948D0AA7940F6E03301A80026C2F202
:106668002003009603F0F2FA2E8522E028680168DC
:10667800BFF35F8FB9B30020AA7940F6E0330090EA
:1066880001A8C2F2200303F0E1FA2868092129854C
:106698000068BFF35F8F30B3A979012203F092FB42
:1066A800E8680068BFF35F8FE8B1A97C012203F0B6
:1066B80089FB0420E07106B05DF804BBF0BD0598C5
:1066C800D5E90812084428629042F2D3DDE90101B5
:1066D8000623BDF80C202B8520606160228106B05E
:1066E8005DF804BBF0BD40F64C3040F6D032C2F243
:1066F8002000C2F22002222104F0DEFBFEDE40F67A
:1067080044428021C2F2200205F00FF8FEDEF0B507
:1067180003AF2DE9000B86B00E46804656F8340BC1
:106728000D460168BFF35F8F002900F09080AA79B9
:1067380003AC802033460090204603F087FA9DF88A
:106748000C0018B19DF80D0060B921E0049A812A67
:1067580080F089802046314604F0F6F89DF8130051
:1067680004281CD12868092129850068BFF35F8F98
:1067780000286CD0A979012203F024FBE86800689E
:10678800BFF35F8F002862D0A97C012203F01AFBB7
:10679800042088F8070006B0BDE8000BF0BDE01D36
:1067A8009DF81240BDF81060018880788DF80A00C5
:1067B8002868ADF80810DDF80C900068BFF35F8F0B
:1067C800002844D0A979002203F0FCFAE4B19DF82E
:1067D8000A000422BDF8081085F83040EE85C5F897
:1067E8002A902A85A5F8311085F8330088F80640E4
:1067F800A8F80460A8F80710C8F8009088F80900FD
:1068080006B0BDE8000BF0BDA6B1802EAAD80022C4
:106818009DF80A00BDF80810072385F83020EE859A
:10682800C5F82A902B85C5E90826A5F8311085F802
:106838003300ADE79DF80A000622BDF808102A8546
:1068480000226A6288F80620A8F80420D2E740F6F9
:106858004C3040F6D032C2F22000C2F2200222218F
:1068680004F02AFBFEDE40F654431046C2F2200331
:1068780080211A4604F07EFFFEDEB0B502AF84B078
:106888000446D0E90651006AD4F824C0002D238AB2
:10689800AE46ACEB000208BF04F1340E9A4238BF92
:1068A8001346002D03EB000C08BF80219C4523D321
:1068B8008C4529D8E1680968BFF35F8F61B3A27C72
:1068C80000930EEB000302A803F004F99DF80800FA
:1068D80008B104B0B0BD0398D4E90812014421629C
:1068E8009142F6D30021228AA1610321904208BF78
:1068F8000221218504B0B0BD40F664426146C2F26F
:10690800200204F05CFFFEDE40F664426046C2F2FC
:10691800200204F02FFFFEDE40F64C3040F6D03265
:10692800C2F22000C2F22002222104F0C5FAFEDEE3
:10693800B0B502AF84B00446008D0138072835D8B9
:10694800DFE800F0040B25343434344C2046FFF7DC
:1069580094FF0025284604B0B0BDE0680168BFF385
:106968005F8F002940D0A27C40F6E03302A80025C2
:10697800C2F22003009503F0ADF89DF80800002846
:10698800E8D1032000252085284604B0B0BD206842
:106998000068BFF35F8F38B3A1790022002503F0A8
:1069A80011FA05202085284604B0B0BD20680921C9
:1069B80021850068BFF35F8FB0B1A179012203F090
:1069C80001FAE0680068BFF35F8F68B1A17C01221B
:1069D80003F0F8F90025284604B0B0BD00200125D1
:1069E8002085284604B0B0BD40F64C3040F6D03281
:1069F800C2F22000C2F22002222104F05DFAFEDE7B
:106A0800F0B503AF4DF804BD8AB00446008D0428E4
:106A180033D101AD04F134018022E68D284603F01C
:106A2800B6FB40F20940A7F1120227F8120C2846DB
:106A38000321022303F0B4FBC0B2082819D101A82E
:106A480003F0ACFB80281DD9206809212185006846
:106A5800BFF35F8F30B3A179012203F0B3F9E06887
:106A68000068BFF35F8FE8B1A17C012203F0AAF9A7
:106A780002200AB05DF804BBF0BD07200AB05DF83B
:106A880004BBF0BD0121B042218538BF0646002174
:106A98002046C4E90816FFF7F0FE08200AB05DF8A2
:106AA80004BBF0BD40F64C3040F6D032C2F22000B4
:106AB800C2F22002222104F0FFF9FEDEF0B503AF96
:106AC8002DE9000F8BB08346008D042826D10D4692
:106AD800E9460BF13401904648468022BBF82EA0C7
:106AE80003F055FB08AE4946304603F043FE3046F6
:106AF80003F044FEC0B208280CD108AE4FEAC8041F
:106B08008CB1F5E802010A6931469047083CC0B2E9
:106B18000828F5D00BB0BDE8000FF0BD07200BB07A
:106B2800BDE8000FF0BD08A803F0F9FE684603F0C1
:106B380035FB80281DD9DBF800000921ABF82810A7
:106B48000068BFF35F8F28B39BF80610012203F09B
:106B580039F9DBF80C000068BFF35F8FD0B19BF800
:106B68001210012203F02EF902200BB0BDE8000F2D
:106B7800F0BD01215045ABF8281038BF82460021EE
:106B88005846CBE9081AFFF778FE08200BB0BDE895
:106B9800000FF0BD40F64C3040F6D032C2F2200073
:106BA800C2F22002222104F087F9FEDEF0B503AF1D
:106BB8002DE9000B88B00446008D042830D1D1E9B6
:106BC8000056E84604F1340140468022B4F82E907D
:106BD80003F0DDFA40462946324603F009FDC0B20B
:106BE800082819D1684603F0D9FA80281DD92068E9
:106BF800092121850068BFF35F8F30B3A179012295
:106C080003F0E0F8E0680068BFF35F8FE8B1A17CAB
:106C1800012203F0D7F8022008B0BDE8000BF0BD50
:106C2800072008B0BDE8000BF0BD012148452185CB
:106C380038BF814600212046C4E90819FFF71DFE28
:106C4800082008B0BDE8000BF0BD40F64C3040F617
:106C5800D032C2F22000C2F22002222104F02CF924
:106C6800FEDEF0B503AF4DF8048D88B00446008D04
:106C780004282ED10D686E4604F134013046802276
:106C8800B4F82E8003F083FA3046294603F0D5FA8B
:106C9800C0B2082819D1684603F080FA80281DD9A7
:106CA8002068092121850068BFF35F8F30B3A1797F
:106CB800012203F087F8E0680068BFF35F8FE8B14E
:106CC800A17C012203F07EF8022008B05DF8048B55
:106CD800F0BD072008B05DF8048BF0BD01214045E8
:106CE800218538BF804600212046C4E90818FFF7EF
:106CF800C4FD082008B05DF8048BF0BD40F64C30A8
:106D080040F6D032C2F22000C2F22002222104F062
:106D1800D3F8FEDEF0B503AF2DE9000788B0824650
:106D2800008D04284CD191E850026D460AF13401D7
:106D380028468022BAF82E8003F029FA21682846CE
:106D480003F015FBC0B2082836D1B9F1000F10D0F6
:106D580006EBC9046D46D6E90001CA682946904782
:106D6800C0B2082828D1284603F069FB0836A64295
:106D7800F1D16D46284603F065FB284603F00EFA6C
:106D8800802822D9DAF800000921AAF8281000681A
:106D9800BFF35F8F50B39AF80610012203F012F880
:106DA800DAF80C000068BFF35F8FF8B19AF8121098
:106DB800012203F007F8022008B0BDE80007F0BD83
:106DC800072008B0BDE80007F0BD01214045AAF83A
:106DD800281038BF804600215046CAE90818FFF736
:106DE8004CFD082008B0BDE80007F0BD40F64C3067
:106DF80040F6D032C2F22000C2F22002222104F072
:106E08005BF8FEDED0B502AF0446008D6FF00201DC
:106E1800043808421CBF0720D0BD206809212185FD
:106E28000068BFF35F8F70B1A179012202F0CAFF39
:106E3800E0680068BFF35F8F28B1A17C012202F0EF
:106E4800C1FF0820D0BD40F64C3040F6D032C2F227
:106E58002000C2F22002222104F02EF8FEDED0B576
:106E680002AF84B00446008D062812D1E06801689C
:106E7800BFF35F8F81B10020A27C40F6E033009021
:106E880002A8C2F2200302F025FE0820208504B0E3
:106E9800D0BD072004B0D0BD40F64C3040F6D0320B
:106EA800C2F22000C2F22002222104F005F8FEDE20
:106EB800F0B503AF4DF804BD84B0044690F8340033
:106EC8000D46D8B1206800285BD14FF0FF3120462D
:106ED80040F8041B294602F02EF9CDE9020102A868
:106EE80002F076F970B302AD284602F081F928461F
:106EF80002F06EF90028F7D1012528E003F027FFFA
:106F0800064603F01AFF03F025FF2068C8BB4FF0C0
:106F1800FF31204640F8041B294602F00CF9CDE960
:106F2800020102A806F0010602F052F9B8B102AD5A
:106F3800284602F05DF9284602F04AF90028F7D100
:106F4800012511E002A802F003F980F0010520688C
:106F580001302060284604B05DF804BBF0BD02A8EB
:106F680002F0F6F880F001052068002E00F101001B
:106F7800206008BF03F0E3FE284604B05DF804BBB8
:106F8800F0BD40F6E04040F6F043C2F2200002AA0D
:106F9800009040F2AA50C2F22000C2F22003102151
:106FA80003F0E3FFFEDEF0B503AF4DF804BD84B097
:106FB800044690F834000D46E0B12068002843D11B
:106FC8004FF0FF31204640F8041B294602F0B3F881
:106FD800CDE9020102A802F02FF900281CBF0DF12B
:106FE800080002F0A9F820680130206004B05DF8BC
:106FF80004BBF0BD03F0ABFE064603F09EFE03F0B3
:10700800A9FE206800BB4FF0FF31204640F8041B62
:10701800294602F090F8CDE9020102A806F0010520
:1070280002F00AF900281CBF0DF1080002F084F8EC
:107038002068002D00F10100206008BF03F07FFEEA
:1070480004B05DF804BBF0BD40F6E04040F6F04304
:10705800C2F2200002AA009040F2AA50C2F2200018
:10706800C2F22003102103F080FFFEDEF0B503AF6B
:107078004DF804BD84B0044690F834000D46A0B124
:10708800206890BB4FF0FF3029462060201D02F099
:1070980052F8CDE9020102A802F064F82068013034
:1070A800206004B05DF804BBF0BD03F050FE064656
:1070B80003F043FE03F04EFE2068B0B94FF0FF30F6
:1070C80029462060201D02F036F8CDE9020102A809
:1070D80002F048F8206801302060F00708BF03F08C
:1070E8002EFE04B05DF804BBF0BD40F6E04040F66B
:1070F800F043C2F2200002AA009040F2AA50C2F265
:107108002000C2F22003102103F02FFFFEDE70479B
:10711800002070477047082070477047F0B503AFEC
:107128004DF8048D0546D079012802BF1646107A1D
:10713800012802D05DF8048BF0BD95F82C00884634
:10714800748803F000FCC0B28442F3D1707A21281D
:1071580004BFB088072831D0B8F828006FF00201C2
:1071680004380842E6D1D8F800000921A8F8281008
:107178000068BFF35F8FA8B198F80610012202F0EB
:1071880021FED8F80C000068BFF35F8F00281FBFEE
:1071980098F8121001225DF8048BBDE8F04018BF82
:1071A80002F010BE40F64C3040F6D032C2F2200059
:1071B800C2F22002222103F07FFEFEDEB8F828008A
:1071C8000428B7D1B8F82E00012395F8291095F8AE
:1071D8002A200728A8F8283095F828306E6A4FF03A
:1071E8000005C8F8346088F8383088F8392088F8FD
:1071F8003A1028BF0720C8E9085040465DF8048BBC
:10720800BDE8F040FFF739BBF0B503AF4DF8048D8A
:1072180084B00546D079012802BF1646107A0128A5
:1072280003D004B05DF8048BF0BD95F82C008846B7
:10723800748803F088FBC0B28442F2D1707A88B1B6
:10724800202814D022284AD13078B8F8281000F025
:10725800010285F82E20C0F3400085F82F0006298A
:10726800DFD124E0B8F828000628DAD11FE0D8F8E2
:107278002400812866D2062831D998F83800D8F831
:107288003410696200F0F0FB98F83910C0B285F844
:107298002800084600F0EDFB98F83A20C0B2B8F88C
:1072A800281085F82A0085F829200629B9D1D8F8A8
:1072B8000C000168BFF35F8FC1B398F8122000205B
:1072C80040F6E033009002A8C2F2200302F002FC6C
:1072D8000820A8F8280004B05DF8048BF0BDB8F8C1
:1072E80028006FF00201043808429AD1D8F800004B
:1072F8000921A8F828100068BFF35F8FB0B198F88B
:107308000610012202F05EFDD8F80C000068BFF3F9
:107318005F8F00281FBF98F81210012204B05DF893
:10732800048B1CBFBDE8F04002F04CBD40F64C3069
:1073380040F6D032C2F22000C2F22002222103F02D
:10734800BBFDFEDE40F674428021C2F2200204F04A
:1073580011FAFEDEF0B503AF2DE9000B84B090F80A
:107368002C60814600250220CDE900050C46084620
:1073780031460222022303F076F8C0B208286ED103
:107388002046314602220223009503F0C2F8C0B21B
:10739800082864D140F600522046C2F22002242177
:1073A800032302F0FDFEC0B2082858D140F603526C
:1073B8002046C2F220022421022302F0F1FEC0B2CC
:1073C80008284CD1304603F0BEFA99F82D800646BD
:1073D800404603F0B8FA07F81C0C0620A7F11E0275
:1073E80007F81E0C20462421032307F81D6C02F021
:1073F800D7FEC0B2082832D1404603F0A4FA07F8F5
:10740800190C0120A7F11B0227F81B0C2046242188
:10741800032302F0C5FEC0B2082820D12046494601
:1074280000F039F8C0B2082819D199F82D100020B9
:10743800009020460A22002303F06BF8C0B2082807
:107448000DD109F11801204600F025F8C0B208282E
:1074580005D109F10C01204600F01DF8C0B204B0B6
:10746800BDE8000BF0BDD0B502AF82B00446684657
:1074780000F004FBDDE90001C4E909010020E08512
:1074880002B0D0BD0A46D0E90031184604F047B929
:10749800006803F090BDF0B503AF4DF804BD8C460D
:1074A800416959B3416883698B4244D20268D0F874
:1074B80008E0D45C0134D4540EF102038B4219D88D
:1074C8000EF58074A14238BF0C469C4243D3E41A9F
:1074D800052C0FD3BCF80650BCF80440D552134411
:1074E8009CF808601E71260A9C700EF107048C42F5
:1074F800DE7007D902205DF804BBF0BD07205DF8F7
:1075080004BBF0BD8E451ED2072302F80E300EF1E3
:1075180001038B423FBF0521D154846008203CBF42
:107528005DF804BBF0BD40F68852C2F2200218464E
:1075380003F0FBFCFEDE40F69852C2F22002184629
:1075480003F0F3FCFEDE40F678527046C2F22002E9
:1075580003F0EBFCFEDE40F668521846C2F2200249
:10756800214604F02CF9FEDE7047F0B503AF4DF864
:1075780004BD84B00068802906684FF000000290BE
:1075880003D201248DF8081034E0B1F5006F09D258
:107598000224084664F39F108DF80900C02040EAD1
:1075A800911025E002200A4660F39F12B1F5803F52
:1075B8000DD28DF80A208A0960F39F12E02040EA74
:1075C80011308DF809208DF80800032412E08DF899
:1075D8000B208A0960F39F128DF80A200A0B0424F5
:1075E80060F39F12880C1E218DF8092061F3DF00DB
:1075F8008DF8080003F091FB05463068B0B94FF0EC
:10760800FF30321D306002A8214600F040F90446E0
:10761800306801303060284603F08AFBE0B2033856
:1076280018BF012004B05DF804BBF0BD40F65C60F3
:1076380040F6C053C2F2200003AA009040F2AA50BC
:10764800C2F22000C2F22003102103F08EFCFEDEFD
:10765800F0B503AF4DF804BD88B0006802AA0190E8
:1076680091E87850104640F6A851C2F2200180E80F
:10767800785001A803F0B3FC08B05DF804BBF0BD76
:10768800F0B503AF4DF8048D82B0006815460E467C
:10769800046803F042FB80462068B0B94FF0FF3021
:1076A800221D20603046294600F0F1F80546206882
:1076B80001302060404603F03BFBE8B2033818BFB6
:1076C800012002B05DF8048BF0BD40F65C6040F626
:1076D800C053C2F2200001AA009040F2AA50C2F2A0
:1076E8002000C2F22003102103F03FFCFEDEF0B5BB
:1076F80003AF2DE9000748F29C52D1F80080C2F28E
:1077080000021268904503D90020BDE80007F0BDCB
:10771800C2683AB380680025D1E9019A02EB4201B8
