:0200000460009A
:100000004643464200000156000000000101020084
:1000100000000000000000000000000000000000E0
:1000200000000000000000000000000000000000D0
:1000300000000000000000000000000000000000C0
:1000400000000000010403000000000000000000A8
:100050000000200000000000000000000000000080
:100060000000000000000000000000000000000090
:100070000000000000000000000000000000000080
:10008000EB04180A063204260000000000000000FD
:10009000050404240000000000000000000000002F
:1000A0000000000000000000000000000000000050
:1000B0000604000000000000000000000000000036
:1000C0000000000000000000000000000000000030
:1000D00020041808000000000000000000000000DC
:1000E0000000000000000000000000000000000010
:1000F0000000000000000000000000000000000000
:1001000000000000000000000000000000000000EF
:100110000204180804200000000000000000000095
:1001200000000000000000000000000000000000CF
:10013000600400000000000000000000000000005B
:1001400000000000000000000000000000000000AF
:10015000000000000000000000000000000000009F
:10016000000000000000000000000000000000008F
:10017000000000000000000000000000000000007F
:10018000000000000000000000000000000000006F
:10019000000000000000000000000000000000005F
:1001A000000000000000000000000000000000004F
:1001B000000000000000000000000000000000003F
:1001C000000100000010000001000000000000001D
:1001D000000000000000000000000000000000001F
:1001E000000000000000000000000000000000000F
:1001F00000000000000000000000000000000000FF
:10020000D4D4D4D4D4D4D4D4D4D4D4D4D4D4D4D4AE
:10100000D10020400020006000000000000000002F
:1010100020100060001000600000000000000000D0
:10102000000000601CC7000000000000EFBEADDE45
:10103000124880F3088812481249016000F036F81F
:10104000114812490022814201D004C0FBE7104838
:101050001049114A814202D008CA08C0FAE70F4875
:101060004FF47001026842EA01020260BFF34F8F41
:10107000BFF36F8F00F014F800DE00000040002086
:1010800008ED00E00040002000500020A085002076
:10109000B84200205844002028C7006088ED00E0D6
:1010A00040F6DD1CC0F2000C6047D4D41C4840F26E
:1010B000924188420CBF1B4A1B4A1C4B5360136869
:1010C00023F0800313601A481A4901BF1A480A0C1A
:1010D0008264C1F30F014164016C41F004010164B9
:1010E0001648174A824205D01649814202D008CAE2
:1010F00008C0FAE71448154A824205D014498142D3
:1011000002D008CA08C0FAE71248134A824205D042
:101110001249814202D008CA08C0FAE770470000AD
:10112000240400000080034000C00B4020C528D9E3
:1011300000C00A40AAAAFAFF00400E4000000000CA
:10114000B82200605C8B000000400020002000609E
:10115000B84200200000202020AE006008192020A6
:10116000D4D4D4D4D4D4D4D4D4D4D4D4D4D4D4D43F
:10117000D4D4D4D4D4D4D4D4D4D4D4D4D4D4D4D42F
:10118000D4D4D4D4D4D4D4D4D4D4D4D4D4D4D4D41F
:10119000D4D4D4D4D4D4D4D4D4D4D4D4D4D4D4D40F
:10200000004000203110006053240000418B00008C
:10201000532400005324000053240000000000005B
:102020000000000000000000000000005324000039
:10203000532400000000000053240000532400003B
:1020400053240000532400005324000053240000B4
:1020500053240000532400005324000053240000A4
:102060005324000053240000532400005324000094
:102070005324000053240000532400005324000084
:1020800053240000000000000000000000000000D9
:102090005324000053240000532400005324000064
:1020A0005324000053240000532400005324000054
:1020B0005324000053240000532400005324000044
:1020C0005324000053240000532400005324000034
:1020D0005324000053240000532400005324000024
:1020E0005324000053240000532400005324000014
:1020F0005324000053240000532400005324000004
:1021000053240000532400005324000053240000F3
:1021100000000000532400000000000053240000D1
:1021200053240000532400005324000053240000D3
:10213000532400005324000000000000532400003A
:1021400053240000532400005324000053240000B3
:102150005324000053240000000000000000000091
:102160005324000053240000532400005324000093
:102170005324000053240000532400005324000083
:102180005324000053240000532400005324000073
:102190005324000053240000532400005324000063
:1021A0005324000053240000532400005324000053
:1021B0005324000053240000532400005324000043
:1021C00053240000532400005324000000000000AA
:1021D0005324000053240000532400005324000023
:1021E0005324000053240000532400005324000013
:1021F0005324000053240000532400005324000003
:1022000053240000391D0000532400005324000013
:1022100053240000532400005324000053240000E2
:1022200053240000532400005324000053240000D2
:102230005324000053240000532400000000000039
:102240000000000053240000532400005324000029
:1022500053240000532400005324000053240000A2
:102260005324000053240000532400005324000092
:102270005324000053240000532400005324000082
:102280005324000053240000532400005324000072
:102290005324000053240000532400005324000062
:1022A00053240000532400005324000000000000C9
:0822B000532400005324000038
:1022B800F0B503AF2DE9000F85B00D688346686956
:1022C800C00111D499468BB128690E460821904661
:1022D80040F44070286102A804F07CFA02980228B1
:1022E80006D19DF80C00ABE00420A9E00520A7E08A
:1022F8009DF810404FF0010E9DF80C009DF80D1050
:102308009DF80E20A4049DF80F3061F30B20766829
:10231800012140EA82509DF812C044EAC3430022DA
:102328001843002340EAC65A4FF20006CFF6037658
:1023380001200BE04B454FF0000138BF01214A4511
:102348004FF0000034BF01204B456FD2C0074ED07C
:10235800604618F802C00132B2EB090408BFA6466D
:102368006C6924056BD4EC6DE40611D56C69240501
:1023780065D4EC6DE4060BD56C6924055FD4EC6D6F
:10238800E40605D56C69240559D4EC6DE406E7D458
:102398002C6EC0B24AEA0050CDF804A034405FFA6F
:1023A8008EF640EA4650204328666869000546D400
:1023B800E86DC00611D56869000540D4E86DC0060F
:1023C8000BD5686900053AD4E86DC00605D568697B
:1023D800000534D4E86DC006E7D4C5F864C04FF2F0
:1023E80000064FF0010CDDF804A0CFF60376C8070D
:1023F800A0D06869C0042CD4286F80079AD4686F6D
:10240800FF2828BFFF2008F80300013392E7E86D92
:10241800C00620D56869000511D4E86DC0061AD534
:10242800686900050BD4E86DC00614D56869000515
:1024380005D4E86DC0060ED568690005E7D500200B
:1024480000218BF80400CBF8001005B0BDE8000FA0
:10245800F0BD0120F4E7286ECBE90089304040EA5E
:102468000A00286605B0BDE8000FF0BDF0B503AF5F
:102478002DE9000FADF2EC4DCBAD0190284601F0EF
:10248800E5FB05A8294600F07DF9DDE90EA00DF56C
:102498004B7902ABDDE9101207C34846059CDDF80D
:1024A8002CB0999DDDF8708201F07CFD02AA05AB85
:1024B80007CA07C305A9484601F079FDD4F8080101
:1024C80020F00100C4F808010120C4F80C01D4F878
:1024D800080120F00400C4F80801D4F8080120F02D
:1024E8000200C4F808014AF21F10C0F20700C4F83D
:1024F8000001D4F8080140F00100C4F80801D4F83C
:102508000C01C0070CD1D4F80C01C00704BFD4F8E3
:102518000C015FEAC07003D1D4F80C01C007EED0FB
:102528004FF0010C48F20416C4F80CC1C4F21F069F
:10253800D4F8081148F22050C4F21F0021F001011C
:10254800C4F80811326C032161F303023264326C5F
:1025580042F01002326400228260F36B61F30303DD
:10256800F363F36B43F01003F3634260736C61F33E
:1025780003037364736C43F0100373640260B36BFA
:1025880061F30303B363B36B43F01003B363022334
:10259800C6F818242B612A61696229692A6922F020
:1025A80001022A612A6E22F040422A662A6961F3F2
:1025B80000024FF00F112A612A46A9654EF29021B8
:1025C800C5F810C0C0F27D01286940F44070286148
:1025D800D5F81090286920F00100286142F6001013
:1025E800C0F2DE7004F009F9286969F30000286177
:1025F8004AF21F10C0F20700C4F80001D4F808011D
:1026080040F00100C4F80801D4F80C01C0070CD14F
:10261800D4F80C01C00704BFD4F80C015FEAC070FD
:1026280003D1D4F80C01C007EED001200522C4F86C
:102638000C010423D4F808114FF0000921F001011E
:10264800C4F8081156F8401C62F3030146F8401C10
:10265800DBF8041041F00401CBF804100421CBF896
:10266800841056F8E01C62F3030146F8E01CDAF81F
:102678000410524641F01001CAF804101021CAF89B
:10268800841045F2000AC2F2000A0221AAF82000CA
:10269800CBF884308AE8200E4FF0040BCAE90623F1
:1026A80048F22053CAE9041AC4F21F03326861F3DE
:1026B80003023260326822F01002326018617268D8
:1026C80061F303027260726822F010027260D860CF
:1026D800C8F808104FF41651C8F80890D8F8180030
:1026E80040F44020C8F81800D8F81850D8F8180056
:1026F80020F44020C8F81800D8F8280040F480409A
:10270800C8F82800D8F8280040F40040C8F8280085
:1027180005A800F089FFDDE9050141F6FF72914245
:1027280038BF0A46D8F810104EF20003CEF2FD0367
:10273800202801EA030141EA02019DF81C2028BF74
:102748002020042898BF584641EA42414FF0F852E9
:1027580002EB006000F0F8500843C8F81000019937
:10276800C1E90099C1E90CA4D8F81800C1F828807B
:10277800A90C61F39340C8F818000DF2EC4DBDE8C0
:10278800000FF0BDF0B503AF2DE9000FADF5197DD1
:1027980013AD04464FF4E072284608F027FB05F114
:1027A800340005F1380105F1540200F047FF45985F
:1027B80003F0A2FF5D98016841F0010101605D9896
:1027C800016821F002010160439E0021C0F8081150
:1027D800C0F81811C0F82811C4E90000C4E90200C3
:1027E800C0F83811306820F001003060306840F4DB
:1027F800004030603068000409D53068000444BFE8
:1028080030685FEA004002D530680004F2D43F2007
:10281800B060306820F001003060DDF81081D8F831
:10282800000020F00100C8F80000D8F8000040F4CB
:102838000040C8F80000D8F8000000040CD5D8F80B
:102848000000000444BFD8F800005FEA004003D548
:10285800D8F800000004EED43F20C8F80800D8F8E3
:10286800000020F00100C8F800006A9803F03EFF5D
:10287800DDF84C90CDE9111040F26341D9F84800D9
:1028880040F00100C9F84800D9F844000843C9F8E5
:102898004400D9F84400012161F38300C9F84400D9
:1028A800D9F8440020F08000C9F84400D9F848005D
:1028B80040F02000C9F84800D9F8440040F44040EE
:1028C800C9F84400D9F8440040F44470C9F84400F9
:1028D800D9F8480040F08000C9F84800D9F85800F5
:1028E80000070CD0D9F8580000071CBFD9F85800C9
:1028F8005FEA007003D0D9F858000007EED1D9F884
:10290800480040F2634140F02000C9F84800D9F877
:10291800440020F44040C9F84400D9F84400DDF8E8
:1029280050A020F4447000F58870C9F84400DAF823
:10293800480040F00100CAF84800DAF844000843AB
:10294800CAF84400DAF84400012161F38300CAF8A8
:102958004400DAF8440020F08000CAF84400DAF8AD
:10296800480040F02000CAF84800DAF8440040F473
:102978004040CAF84400DAF8440040F44470CAF809
:102988004400DAF8480040F08000CAF84800DAF855
:10299800580000070CD0DAF8580000071CBFDAF816
:1029A80058005FEA007003D0DAF858000007EED14B
:1029B800DAF8480040F02000CAF84800DAF8440085
:1029C80020F44040CAF84400DAF8440020F4447087
:1029D80000F58870CAF84400DDF8C8B103F073FD4B
:1029E800054603F072FD034683A859462A4603F0BC
:1029F8006EFD6D9995A84FF4805203F02FFF3A9819
:102A080010903C980F903D980E903E980D907498B9
:102A18000C9077980B907998DDE92A120A9004F1C6
:102A2800340003F06AFE5F9A4FF4704102F590702B
:102A3800C4F8780202F1C000C4F8740202F1600020
:102A4800C4F870020F20C4E99A22A2F88C11A2F8E7
:102A58008E01209A0992219A0892289A07924B9AF5
:102A680006924D9A0592529A0492549A0392559A54
:102A780002925A9A0192609A589D02F59073C4F88E
:102A88008C3202F1C003DDF858B1C4F88832A2F8DC
:102A98008C11C4E99F22A2F88E016032C4F8842206
:102AA800619A02F1C003C4F89C3202F16003C4F8D1
:102AB800983202F59073C4F8A032A2F88C11C4E9D8
:102AC800A422A2F88E01629A02F16003C4F8AC3223
:102AD80002F1C003C4F8B032A2F88C1102F590716B
:102AE800C4F8B41283A9C4E9A922A2F88E0104F596
:102AF8003070482208F07AF9039895ABC4F85C0264
:102B080004F5427C0298C4F860020198C4F8640293
:102B18001198C4F834021298C4F838020998C4F815
:102B28003C020898C4F840020798C4F84402069882
:102B3800C4F848020598C4E90468109EC4F84C0219
:102B48000498A6610F9EC4F850020A98E6610E9E8A
:102B580020630FCB26620D9E66620C9EA6620B9EBA
:102B6800C4E9AE9AC4E9955BE6628CE80F000DF5FE
:102B7800197DBDE8000FF0BD0A46D0E900311846BE
:102B880007F0A9BB80B56F468EB00A4604210591AF
:102B980006A90491002102910521019140F220012A
:102BA800C2F2200100F10A03009140F6C901C0F207
:102BB8000001CDE90C0148F2E951C0F20001CDE96C
:102BC800091300F10903083006900B911046CDE96E
:102BD8000713694607F06AFB0EB080BD80B56F46E3
:102BE8008EB00A460421059106A90491002102919C
:102BF8000521019140F25401C2F2200100F10E03B7
:102C0800009140F6D501C0F20001CDE90C0148F26F
:102C1800E951C0F20001CDE9091300F10D030C30B0
:102C280006900B911046CDE90713694607F03EFB65
:102C38000EB080BD80B56F468EB00A46042105915E
:102C480006A90491002102910521019140F2540145
:102C5800C2F2200100F10A03009140F6C901C0F256
:102C68000001CDE90C0148F2E951C0F20001CDE9BB
:102C7800091300F10903083006900B911046CDE9BD
:102C88000713694607F012FB0EB080BD80B56F468A
:102C980000F001F8FEDE80B56F46AEB002A8FFF77F
:102CA800E5FB48F29F62DDE90E01C0F2010228AEA1
:102CB800C1F8002106F10809D1F8082106F10C082D
:102CC80042F00102C1F80821D1F80C21D2070CD139
:102CD800D1F80C21D20704BFD1F80C215FEAC272E7
:102CE80003D1D1F80C21D207EED0012200F108045B
:102CF800C1F80C21D1F8083123F00103C1F80831DB
:102D080048F29C51C2F200010968022916D9002034
:102D180040F27C01CDE9122040F2B402169040F254
:102D28008800C2F22000C2F22001119011A815916A
:102D3800C2F220020321002306F07DFD222040F28A
:102D48001C1A279040F2D000C2F22000C2F2200ADA
:102D5800269048F29C50C2F200000068022816D95A
:102D6800012040F22412CDE915600021CDE911A01F
:102D780040F6C900C0F200001391299026A82890B7
:102D880011A8C2F220020321002306F054FD2046B8
:102D980000F05FFA054648F29C50C2F20000006855
:102DA80065B103283CD300F03BFC0821ADF88C004A
:102DB800229140F20211C2F220010BE003282FD326
:102DC80000F02BFC0821ADF88C00229140F20A118A
:102DD800C2F22001219140F6C901C0F2000100228F
:102DE8002B9126A92A9140F68511C0F20001000C0A
:102DF800299121A92891022116910023129140F2CC
:102E08004411139240F22412C2F220018DF88E0070
:102E180011A81191C2F220020321159606F00BFDAC
:102E28001720279040F25410C2F22000269048F252
:102E38009C50C2F200000068022816D9012040F216
:102E48002412CDE915600021CDE911A040F6C90092
:102E5800C0F200001391299026A8289011A8C2F268
:102E680020020321002306F0E6FC204600F068FA61
:102E780048F29C51C2F20001096890B3032963D358
:102E880000F0CEFB08210022229140F20211C2F28A
:102E98002001ADF88C00219140F6C901C0F2000173
:102EA800000C2B9126A92A9140F68511C0F2000149
:102EB8008DF88E00299121A928910221CDE91212BD
:102EC80040F22412CDE9156140F24411C2F220010A
:102ED80011A81191C2F220020321002306F0ABFCD5
:102EE80032E003292FD300F098FB08210022229119
:102EF80040F20A11C2F22001ADF88C00219140F68F
:102F0800C901C0F20001000C2B9126A92A9140F6B4
:102F18008511C0F200018DF88E00299121A9289110
:102F28000221CDE9121240F22412CDE9156140F2D6
:102F38004411C2F2200111A81191C2F2200203210A
:102F4800002306F078FCD5B148F29C50C2F200008C
:102F5800006803284BD300F063FB0446050C00F01F
:102F68005AFBA8F80000000C88F8020015202990E8
:102F780040F2881089F80250C2F2200019E048F2A5
:102F88009C50C2F200000068032830D300F045FBD3
:102F98000446050C00F03FFBA8F80000000C88F878
:102FA80002001420299040F27410C2F2200089F81F
:102FB8000250A9F80040289040F62D10C0F20000F9
:102FC80021A922900120169040F22412129040F27A
:102FD8006C10C2F2200015910021119011A81391D4
:102FE800C2F2200203210023219606F024FCDDF81A
:102FF80030A043F20009C0F21F0917E040F27C003C
:103008000021C2F2200040F2BC122C90012029902D
:1030180040F2B410C2F220002D91289028A82A91DD
:103028000321C2F22002002306F005FCDAF814009E
:10303800DAF8281003F052FB0002F7D55020CAF83E
:103048001C00DAF81400DAF8281003F047FB000235
:10305800F7D54D20CAF81C00DAF81400DAF8281061
:1030680003F03CFB0002F7D55420CAF81C00DAF83C
:103078001400DAF8281003F031FB0002F7D54B20D2
:10308800CAF81C00DAF81400DAF8281003F026FB56
:103098000002F7D53620CAF81C00DAF81400DAF86E
:1030A800281003F01BFB0002F7D53020CAF81C00DB
:1030B800DAF81400DAF8281003F010FB0002F7D54C
:1030C8003420CAF81C00DAF81400DAF8281003F0E3
:1030D80005FB0002F7D52A20CAF81C00DAF814000C
:1030E800DAF8281003F0FAFA0002F7D53620CAF801
:1030F8001C00DAF81400DAF8281003F0EFFA0002DE
:10310800F7D54420CAF81C00DAF81400DAF82810B9
:1031180003F0E4FA0002F7D50D20CAF81C00DAF82B
:103128001400DAF8281003F0D9FA0002F7D50A20BB
:103138004021CAF81C0011A807F056FE002406E03A
:10314800019911A844540C460134402C4BD00194E9
:10315800DAF81C4003F0B4FA804603F0AEFA0546EC
:10316800DAF814B003F0ACFA03F0B3FA2BEA00066D
:1031780008EA090003F0ADFA3043CAF81400DAF897
:10318800286003F09AFA03F09FFA864305EA0900DB
:1031980003F09AFA3043CAF82800E004D8D414F4AB
:1031A800604FCDD048F29C50C2F200000068019CEC
:1031B8000328C9D3002040F2F4212D9040F2443274
:1031C8002A900120299040F20030C2F22000C2F279
:1031D8002001289028A82C910321C2F22002002364
:1031E80006F029FBB0E721A811A9402207F0E8F86A
:1031F800219840B148F29C50C2F2000000680328B0
:10320800FFF414AFFAE6DDE92201CDE9240148F222
:103218009C50C2F20000006802287FF607AF26A97A
:1032280001202C910021CDE9290140F2D8122D90DE
:1032380040F26C10C2F220000321289040F6C90029
:10324800C0F20000C2F22002279024A8269028A8E5
:10325800E9E6F0B503AF2DE900078CB0D0E90059D5
:10326800012180680DF12008062300F01F00424666
:1032780001FA00FA0020C9F888A09021CDF82100B1
:103288008DF8250002A88DF820102946FFF710F8C0
:103298000298002804BF9DF80C0004280ED102AE45
:1032A80008AC3046294622460623FFF701F8029863
:1032B800002804BF9DF80C000428F2D09DF82400D3
:1032C8009DF82510C9F884A007F8420C80F0EF009B
:1032D80007F8411C81F015010843C0B2B0FA80F12B
:1032E8004FEA511430B348F29C50C2F20000006813
:1032F80003281FD302200021CDE90301A7F14101D2
:10330800CDE9068040F22020C2F2200040F2882257
:10331800029048F28350C0F20000C2F22002CDE9C8
:10332800090103210B90A7F14200089002A800238D
:1033380006F081FA84F001000CB0BDE80007F0BD8A
:10334800F0B503AF2DE9000F8DB0D0E9004A012197
:10335800806808AA012300F01F0001FA00FB06207C
:10336800CAF888B021468DF8200002A8FEF7A0FF11
:103378000298002804BF9DF80C0004280ED102AD65
:1033880008AE2846214632460123FEF791FF0298EF
:10339800002804BF9DF80C000428F2D02020CAF8A9
:1033A80084B0CAF888B008AA089002A82146042365
:1033B800FEF77EFF0298002804BF9DF80C00042841
:1033C8000ED102AD08AE2846214632460423FEF748
:1033D8006FFF0298002804BF9DF80C000428F2D063
:1033E80002AD08AE4FF00508CAF884B0CAF888B034
:1033F800ADF820802846214632460223FEF758FFC2
:103408000298002804BF9DF80C000428F2D09DF80B
:103418002100CAF884B0C007E8D14FF03008062070
:1034280007F8498C08AACAF888B021468DF8200008
:1034380002A80123FEF73CFF0298002804BF9DF86C
:103448000C0004280ED102AD08AE284621463246AB
:103458000123FEF72DFF0298002804BF9DF80C00F9
:103468000428F2D00220CAF884B007F81D8C08AAF4
:10347800CAF888B02146089002A80423FEF718FF6E
:103488000298002804BF9DF80C0004280ED102AD54
:1034980008AE2846214632460423FEF709FF029863
:1034A800002804BF9DF80C000428F2D002A8A7F158
:1034B8001D0221460123FEF7FBFE0298002804BFE7
:1034C8009DF80C0004280FD102ADA7F11D0628466F
:1034D800214632460123FEF7EBFE0298002804BF7E
:1034E8009DF80C000428F2D002AD08AE4FF0050894
:1034F800CAF884B0CAF888B0ADF8208028462146BA
:1035080032460223FEF7D4FE0298002804BF9DF835
:103518000C000428F2D09DF82100CAF884B0C00736
:10352800E8D10020CAF888B007F81D0C03200DF177
:103538002008089002A8214642460423FEF7B8FE58
:103548000298002804BF9DF80C0004280ED102AE92
:1035580008AD304621462A460423FEF7A9FE029804
:10356800002804BF9DF80C000428F2D0A7F11D091B
:1035780002A8214601234A46FEF79AFE029800282F
:1035880004BF9DF80C0004280FD102ADA7F11D0659
:103598002846214632460123FEF78AFE0298002873
:1035A80004BF9DF80C000428F2D017F81D4CCAF887
:1035B80084B0302C07F81D4C25D048F29C50C2F23C
:1035C8000000006803281ED3022040F2D822CDE96B
:1035D8000680002004900320039040F2C020C2F22D
:1035E8002000A7F14901029048F28350C0F2000080
:1035F8000A910B90C2F22002CDE9089002A803219B
:10360800002306F018F9B4F1300018BF01200DB0FE
:10361800BDE8000FF0BD002070474FF47F407047B1
:10362800FF20C0F28000704780B56F460A4641F21D
:103638000021C0F27A0102F099FF80BDF0B503AF16
:103648004DF804BD0E4600211546044603F08FF8D8
:10365800284640F2E24103F090F8304603F072F950
:1036680040F2C0352146C2F22005002228463668BD
:1036780003F032F9A81C2146002203F02DF9281D79
:103688002146002203F028F9A81D2146002203F054
:1036980023F905F108002146002203F01DF905F180
:1036A8000A002146002203F017F905F10C00214613
:1036B800002203F011F905F10E002146002203F063
:1036C8000BF905F110002146002203F005F905F178
:1036D80012002146002203F0FFF805F114002146EC
:1036E800002203F0F9F805F116002146002203F044
:1036F800F3F805F118002146002203F0EDF805F172
:103708001A002146002203F0E7F805F11C002146C3
:10371800002203F0E1F805F11E002146002203F023
:10372800DBF820684169890107D5416921F00071FA
:103738004161204603F00CF820684169012221F01C
:10374800605141612068816962F30D3181612046D1
:1037580002F0FEFF2068416941F000714161204696
:1037680002F0F6FF4FF480503060642030604FF470
:10377800005070603068002809D4306800285CBFA9
:103788003068002803D43068B0F1FF3FF2DC2068CD
:103798000122016962F302010161204602F0D8FFAB
:1037A8002068416921F4E0514161204602F0D0FFD0
:1037B8002068816941F4402181612068416921F0D4
:1037C80000714161204602F0C3FF206840F2FA050B
:1037D800C2F220050022416941F440714161284646
:1037E800214603F079F8A81C2146002203F074F85A
:1037F800281D2146002203F06FF8A81D214600224B
:1038080003F06AF82068022640F2F2050022C2F2AC
:103818002005816B66F3D84181632068816B41F490
:10382800802181632846214603F056F8A81C2146CA
:10383800002203F051F8281D2146002203F04CF81D
:10384800A81D2146002203F047F8206840F2E03521
:103858000322C2F22005816966F30511816120689F
:10386800816962F39C61816128462146002203F048
:1038780033F8A81C2146002203F02EF8281D214603
:10388800002203F029F8A81D2146002203F024F89D
:1038980005F108002146002203F01EF820681722CF
:1038A80040F20A45C2F22005C16962F30501C1610F
:1038B80020680022C16941F04001C16128462146C3
:1038C80003F00AF8A81C2146002203F005F8281D79
:1038D8002146002203F000F8A81D2146002202F02C
:1038E800FBFF05F108002146002202F0F5FF05F173
:1038F8000A002146002202F0EFFF05F10C002146E4
:10390800002202F0E9FF05F10E002146002202F034
:10391800E3FF206840F22A45C2F220050322416AEB
:1039280041F0400141622068416A66F30501416245
:103938002846214602F0D0FFA81C2146032202F0A7
:10394800CBFF281D2146032202F0C6FFA81D2146F1
:10395800032202F0C1FF05F108002146032202F00C
:10396800BBFF05F10A002146032202F0B5FF05F16D
:103978000C002146032202F0AFFF05F10E0021469C
:10398800032202F0A9FF05F110002146032202F0EC
:10399800A3FF05F112002146032202F09DFF05F165
:1039A80014002146032202F097FF05F11600214674
:1039B800032202F091FF05F118002146032202F0CC
:1039C8008BFF05F11A002146032202F085FF05F15D
:1039D8001C002146032202F07FFF05F11E0021464C
:1039E800032202F079FF05F120002146032202F0AC
:1039F80073FF05F122002146032202F06DFF05F155
:103A080024002146032202F067FF05F12600214623
:103A1800032202F061FF05F128002146032202F08B
:103A28005BFF05F12A002146032202F055FF05F14C
:103A38002C002146032202F04FFF05F12E002146FB
:103A4800032202F049FF05F130002146032202F06B
:103A580043FF05F13200214603225DF804BBBDE8AF
:103A6800F04002F039BFF0B503AF2DE9000F87B081
:103A78000546086C002840F0AC8091F844A000206E
:103A880008640C460AF1010081F84400086800281F
:103A980040F09A804FF0FF30261D91462060FF20AD
:103AA800082103220290CDE900213046802100221E
:103AB80004F06CFC8B462168C00701F1010121600C
:103AC80040F09980206C002840F0838094F84430BE
:103AD80000200029206403F1010284F8442073D1F6
:103AE8004FF0FF31002221600221CDE900190021A9
:103AF80002903046049304F049FC2268C00702F1A2
:103B08000102226040F08C80002A03915CD14FF0C2
:103B1800FF30C846206002204FF000098DE80103FD
:103B280030468021002204F031FCC00701BF85F82F
:103B38002CA00222A5F81F20A97701BFA5F81C8098
:103B4800049885F82D004FF6037001BFA5F807000B
:103B580085F806B00820A88001BFA5F82E9085F842
:103B68002A904FF40060288501BF4FF4FA5068622C
:103B7800A5F81320206801BF0399A974A5F810803F
:103B8800013001BF44F83C0BAC612C60EC6002BF13
:103B980007B0BDE8000FF0BD206840F2704307F899
:103BA800211CC2F220030130206040F2DC40A7F162
:103BB8002102C2F22000009040F25E40C2F22000D2
:103BC8000F2105F0AEFFFEDE40F2FC50C2F22000ED
:103BD80003E040F23C60C2F2200040F24C630090E7
:103BE80040F2FA3006AAC2F22000C2F220031021E5
:103BF80005F097FFFEDE40F2EC4040F27043C2F25F
:103C08002000A7F12302009040F25E40C2F220009B
:103C1800C2F2200307F823BC0F2105F082FFFEDE65
:103C280040F2DC4040F27043C2F2200007F8221C48
:103C3800009040F25E40C2F22000C2F22003A7F1D9
:103C480022020F2105F06DFFFEDE7047F0B503AFCD
:103C58002DE9000F81B045F224014FF0010CC2F2AA
:103C68000001BFF35F8FD1E84F2FC1E843CF002B8E
:103C7800F9D1BFF35F8F002A01BF48F20001C4F2F7
:103C88000D010022C4F22F0201BF02F5542C02F5E7
:103C9800502E02F54C28A1F5004401BFA1F50035CE
:103CA80001F5F61601F5F413C0E9683601BFC0E95D
:103CB8006A54C0E96C8EC0E96EC101F5005E01BFAF
:103CC80001F5805640F2040CC4F22E0C01F50214E2
:103CD80001BF0CF5FE7501F5004300F5C07888E8D2
:103CE800380001BF00F5C67383E81210C0E9666E9C
:103CF800A1F5404C01BF01F5881E01F5861801F5B4
:103D0800841401F5821301BF01F5003602F5102570
:103D1800C0E9585600F5B47501BF85E81A41C0F8E6
:103D28007CC1A1F5804C02F51C2E01BF02F51828B4
:103D380002F51424A1F5E03301F5282601BF01F5A9
:103D4800EE15C0E9505600F5A47585E8184101BF85
:103D5800C0E9562C02F5782802F5742902F570247A
:103D680001BF02F56C234CF2000CC4F2070C0CF5F1
:103D7800004601BF01F5E03E01F58E15C0E9485E39
:103D8800C0E94A6101BF00F5987585E81802C0F8D6
:103D98003C8101F5482801BF01F5442901F5402A75
:103DA80001F53C2B01F5382301BF01F5342401F559
:103DB800302501F52C26C0E9406501BFC0E9424322
:103DC800C0E944BAC0E9469802F5302801BF02F5B7
:103DD8002C2902F5282A02F5242B02F5861301BFA7
:103DE80002F5841402F5821502F58016C0E93865DB
:103DF80001BFC0E93A43C0E93CBAC0E93E9801F5C1
:103E0800F01801BF01F59219A1F5503AA1F5403B10
:103E1800A1F5303301BF01F5901401F58C1501F5BA
:103E28008A16C0E9306501BFC0E93243C0E934BA37
:103E3800C0E9369844F2000B01BFC4F2002B0BF521
:103E480000490BF5804A4FF0844801BF01F56C2604
:103E580001F5682401F56425A1F5C03301BFC0E967
:103E6800283500F1A80383E85009C0E92EA901BF4D
:103E780001F5602801F5E61901F5E81AA1F52036E3
:103E880001BF0BF5E03301F5582401F55425C0E9CD
:103E9800205401BF00F1880484E84804C0E9259E45
:103EA800C0F89C8001BFA1F5103E01F5FE1801F590
:103EB800001902F5642A01BF02F5602302F55C26A9
:103EC80002F5582501F5A03401BF00F1600B8BE81D
:103ED8007000C0E91B3AC0E91D9801BFC0F87CE03A
:103EE80001F5803E02F540480CF5804901BF01F517
:103EF800804A01F5F21344F20806C4F2090601BF2C
:103F080006F1100506F10804C0E91064C0E912536F
:103F180001BFC0E914A9C0E9168E0CF5C03E01F531
:103F2800103801BF01F5801901F57C2401F57823CB
:103F380002F57C2601BF02F54825C0E9085600F1C4
:103F4800280585E8180201BFC0E90D81C0F83CE0EA
:103F580002F5442E02F50C2601BF01F5D21501F534
:103F6800242402F54022A1F5803301BFA1F5A03138
:103F7800C0E90013C0E9022C103001BF80E870408E
:103F880001B0BDE8000FF0BD40F2FC4040F2905295
:103F9800C2F22000C2F22002352105F069FDFEDEE2
:103FA8007047704780B56F4600F0ACFB80BD80B5A8
:103FB8006F464EF20C1C4FF4003ECEF2000C44F259
:103FC800B822CCF880E0C2F20002BFF35F8FD0E9DC
:103FD80000318068C2E900319060BFF35F8FCCF890
:103FE80000E1CCF800E080BDF0B503AF4DF804BDAA
:103FF80088B045F22806C2F20006306828B108B039
:104008005DF804BBBDE8F040004744F2B820C2F2B6
:1040180000000068062817D149F2000005A9C4F27B
:104028000D00012207900020C4F22E00CDE9050002
:1040380002A800F07CF80298002850D1039D356052
:1040480008B05DF804BBF0BD00F041FC00F03EFC98
:1040580048F278150290C2F2000505F212400122DA
:10406800BFF35F8FD0E84F1FC0E8432F002BF9D173
:104078000029BFF35F8F3ED105F110004FF4806136
:1040880006F0B2FE05F025FC44F2B8210446C2F25F
:104098000001284602F0F9F850BB49F2000048F246
:1040A8007812C4F20D0002AB07900020C4F22E0073
:1040B800C2F20002CDE9050005A8012100F083F84D
:1040C80042F26B40C0F2000002F0DFF905462046DC
:1040D80005F00AFC356008B05DF804BBF0BD02AA23
:1040E80005AB07CA07C340F2F460C2F2200010E033
:1040F800204605F0F9FB49F20000C4F20D000790D4
:104108000020C4F22E00CDE9050040F20470C2F28E
:10411800200040F28863009040F25C6005AAC2F279
:104128002000C2F220032B2105F0FBFCFEDEF0B5D7
:1041380003AF2DE9000B84B090460E46044600F00C
:10414800C6FB00F0C3FB48F278150090C2F20005E8
:1041580005F212400122BFF35F8FD0E84F1FC0E87D
:10416800432F002BF9D1BFF35F8F31B196E80700D9
:1041780007C404B0BDE8000BF0BD05F110004FF412
:10418800806106F031FE05F0A4FB8146284602F066
:104198007DF996E8070001AB07C301A86B464146C5
:1041A8002A4600F010F842F26B40C0F2000002F01C
:1041B8006CF90021C4E90010484605F095FB04B0ED
:1041C800BDE8000BF0BDF0B503AF2DE9000FC9B095
:1041D8008B4648F23411C2F200011D460A608DF880
:1041E8000BB0D0F800A0866805F090FB46F20004FA
:1041F80041F23810C2F200042118BFF35F8F51E872
:10420800000F40F0004241E80023002BF7D1B0F145
:10421800FF3FBFF35F8F40F3E18045F22C0001229E
:10422800C2F20000BFF35F8F00F5A060D0E84F1F17
:10423800C0E8432F002BF9D101950029BFF35F8F08
:1042480040F0D88045F22C004FF4A061C2F2000083
:1042580004F016FD41F23812CDE93DA60DF1F40A3D
:10426800224404F58653CDE93F01479206224FF0D8
:10427800000950460121CDE9442304F580534692B4
:104288004393CDE94142ADF8209102F081FBBAE8B1
:104298007E000DF10C0808F104007EC09AE87E004B
:1042A8007EC0012059468DF840004046CDF80C905C
:1042B80003F036FE019B0DF10B024046002100F091
:1042C80096F9414648F2000A5CC9C2F2000A0AF1AE
:1042D80004005CC07CC97CC091E87C0051467CC06D
:1042E8004FF480604FF40072AAF844004046CAE9CF
:1042F8000F99CAF80090FFF7B6FBB8E87E0048F2BD
:104308003810C2F200007EC098E87E007EC04FF0F0
:10431800485003ACCDF816010220C4F200003DAAB3
:10432800CDF812011020ADF8100145F62400C2F2B4
:10433800DD70514643900920409040F21470C2F25B
:104348002000CDF804913F902046CDF8F49000F07D
:1043580065F8039D8121284603F03DFE284601218A
:1043680003F039FE2846822103F035FE2846022153
:1043780003F031FE2846832103F02DFE2846032151
:1043880003F029FE2846842103F025FE284604214F
:1043980003F021FE2846852103F01DFE284605214D
:1043A80003F019FE2846862103F015FE284606214B
:1043B80003F011FE2846872103F00DFE2846072149
:1043C80003F009FE48F248002146C2F20000E82244
:1043D80006F00CFD49B0BDE8000FF0BD40F21D70BD
:1043E80040F2AC72C2F22000C2F220021F2105F096
:1043F800ACFAFEDE40F2A03040F29C72C2F220001D
:10440800C2F22002202105F0A0FAFEDE084640F2A2
:10441800BC71C2F22001122205F042BFF0B503AF11
:104428002DE9000F89B004460868002840F09680FE
:1044380092F821604FF0FF3001F104080860002075
:1044480091468A46CDE900060290404600210122A5
:10445800002303F09BFF0D46DAF80010C00701F1B6
:104468000101CAF800107ED1002977D14FF0FF3042
:104478008021CAF800000020CDE900060122029040
:104488004046802303F082FFDAF80020C00702F1DB
:104498000102CAF8002078D1DAF84000002840F07C
:1044A80089804FF0FF30002ACAF8400040F087802A
:1044B800CAF80000404604968B46059503F0FEFFB7
:1044C800DAF800000130CAF800007DD34FF0FF3061
:1044D8004AF83C0B201DBFF35F8FCAF80080BFF37A
:1044E8005F8FB9E86E006EC099E86E006EC0002557
:1044F80017F8230C049B37F8251C059A84F8430009
:1045080004F1600084F83220BDF81820A4F84110A6
:104518008021A38723869DF81A3084F83EB0A4F83A
:104528003F50C4F838A0A4F83350C4F82CA084F83D
:104538003730A4F8352006F057FC4FF08060C4E906
:1045480013556564A4F8545084F8E450C4F8E000A6
:10455800C4F8008009B0BDE8000FF0BD40F2FC507F
:10456800C2F2200034E040F6400040F2D073C2F2BC
:104578002000A7F12202009040F26030C2F2200031
:10458800C2F2200307F8225C10E040F6500040F227
:10459800D073C2F2200007F8211C009040F260306E
:1045A800C2F22000C2F22003A7F12102202105F067
:1045B800B8FAFEDE40F20C60C2F2200008E040F2D9
:1045C8001C60C2F2200003E040F22C60C2F220001E
:1045D80040F24C63009040F2FA3008AAC2F2200080
:1045E800C2F22003102105F09CFAFEDE7047F0B5F8
:1045F80003AF2DE9000784B0044690F834001D4647
:1046080091460E4678B32068002867D14FF0FF30F6
:1046180031462060201D03F06AFB02AECDE902019D
:10462800D5F80080304699F8005003F077FB304603
:1046380003F0BAFB002D18BF01253046294603F0C8
:10464800BFFB3046012103F081FB3046414603F0B1
:1046580089FB304603F06EFB20680130206004B00F
:10466800BDE80007F0BD05F04EF9804605F041F9B8
:1046780005F04CF9206888BB4FF0FF3031462060C8
:10468800201D03F034FB02AECDE90201D5F800A0ED
:10469800304699F8005003F041FB304603F084FBA4
:1046A800002D18BF01253046294603F089FB304606
:1046B800012103F04BFB3046514603F053FB3046D3
:1046C80003F038FB2068013020605FEAC87008BF3B
:1046D80005F011F904B0BDE80007F0BD40F6BC00D4
:1046E80040F6CC03C2F2200002AA009040F2FA3051
:1046F800C2F22000C2F22003102105F012FAFEDEF9
:104708007047FEE740F6DC020021C2F220020523D2
:10471800C0E90032816070477047F0B503AF4DF8CB
:10472800048D84B040F6DC0048F2301848F24805A1
:10473800C2F220000390C2F2000808F10800C2F299
:10474800000502A902902846012200F02DFB04462C
:104758002868002101F0C8F8064695F8E01098F896
:104768000000022933D148B9286803F0CEFD286833
:10477800002101F034F9012088F80000D8F814006D
:104788000168BFF35F8F002900F09480002098F83B
:104798001A2040F61013009002A8C2F220033443F6
:1047A80004F030F87CB1D8F804000123BFF35F8F20
:1047B80000F58261D1E84F2FC1E8463F002EF9D1BC
:1047C800BFF35F8F7AB104B05DF8048BF0BD18B108
:1047D8002868002101F066F9002088F8000004B07C
:1047E8005DF8048BF0BD0668BFF35F8F8268BFF386
:1047F8005F8F4368BFF35F8F934205D19E423EBFF0
:10480800BFF35F8F002343609E4228BF32469A421F
:1048180007D10020BFF35F8F087004B05DF8048BE8
:10482800F0BDD8F82010D8F804400968BFF35F8FAE
:1048380000293FD0D61A184498F8262000F1100312
:1048480002A83546B6F5007F28BF4FF400750095DD
:1048580003F01CFF9DF8080078B194F81004BFF32A
:104868005F8F0028AFD0201DBFF35F8F50E8001F77
:1048780040E80012002AF9D113E0039894F81014C4
:10488800BFF35F8F00299ED0211D864238BF304676
:10489800BFF35F8F51E8002F024441E80023002B4B
:1048A800F8D10020BFF35F8F84F8100404B05DF8DE
:1048B800048BF0BD40F69C1040F62022C2F2200086
:1048C800C2F22002222105F0D3F8FEDE70474FF431
:1048D8007A607047F0B503AF2DE9000F83B000F19F
:1048E8002C0B1E4688468246D4006FF00205894686
:1048F800029264B1F9E8020132464B6A5946984778
:10490800BAF85400083C04382842F2D008E0F0799C
:1049180050B1BAF854006FF00201043808422BD0A5
:1049280003B0BDE8000FF0BD317A707A02294FD08C
:10493800012961D00029ECD1002800F086800628E2
:1049480000F0A280082804BFBAF854000428E0D177
:104958009AF8E0000121AAF8541000220238BAF8A7
:104968005A10B0FA80F0002918BF01214009CAE99D
:1049780013218AF8600083E0DAF82C000921AAF8EC
:1049880054100068BFF35F8FB0B19AF8321001225B
:1049980003F0F4FFDAF838000068BFF35F8F0028EF
:1049A8001FBF9AF83E10012203B0BDE8000F1CBFDC
:1049B800BDE8F04003F0E2BF40F69C1040F620222C
:1049C800C2F22000C2F22002222105F051F8FEDED8
:1049D80000289ED17188DAF8000001F08F0104F0F8
:1049E8004FF8BAF85410042993D1AAF860000120AE
:1049F800AAF8540000201EE090B10A2804BFBAF8B3
:104A0800540004287FF485AFBAF85A100020012218
:104A18008AF86000AAF85420002918BF01210FE085
:104A2800BAF8540004287FF474AF00200121AAF8D2
:104A38006000AAF85410BAF85A10022928BF0221B7
:104A4800CAF84C00CAF850101AE0BAF85400042802
:104A58007FF45FAF9AF8E1000122AAF854200022FF
:104A68009AF8E210002818BF0120BAF85A3041EA33
:104A78004000AAF86000022B28BF0223CAE91323CA
:104A8800584600F016FC44E700960AF10400029A22
:104A980041465B4600F0D8F83BE7D4D4F0B503AF05
:104AA8002DE9000784B000F12C0A99460C4680468F
:104AB800D5006FF0020665B1F4E802014A460B6AB8
:104AC80051469847B8F85400083D04383042F2D0AF
:104AD80009E099F8070050B1B8F854006FF00201E6
:104AE800043808421ED004B0BDE80007F0BD99F8AC
:104AF800082099F80900B9F80010AAB3012A44D08F
:104B0800022AE9D103286AD0012808BF0029E3D185
:104B1800B9F802100022D8F8000001F08F0103F064
:104B28002DFF86E0D8F82C000921A8F85410006859
:104B3800BFF35F8F002846D098F83210012203F0A7
:104B48001DFFD8F838000068BFF35F8F00281FBF2B
:104B580098F83E10012204B0BDE800071CBFBDE86C
:104B6800F04003F00BBF2EE001380828B4D8DFE886
:104B780000F0060543054A0505055400ACE7012980
:104B8800AAD1002088F8E10053E00B28A4D100291D
:104B980004BFB8F8540006287FF49EAFD8F8380050
:104BA8000168BFF35F8F71B198F83E20002040F68E
:104BB8003023009002A8C2F2200303F067FD08200A
:104BC800A8F8540088E740F69C1040F62022C2F26C
:104BD8002000C2F22002222104F04AFFFEDE002952
:104BE8007FF47AAFB9F802100122D8F8000001F07A
:104BF8008F0103F0C3FE1CE001297FF46DAF012093
:104C080088F8E10015E0481E80B27F28BFF464AF41
:104C1800D8F8000003F005FC08E021B101297FF471
:104C28005BAF022003E098F8E00038B1012088F873
:104C3800E0005046494600F02EFE4DE750464946F2
:104C480000F0FCFD48E7D4D4F0B503AF2DE9000B24
:104C580088B00646B86814460D46984601960189FC
:104C680002684068ADF81010CDE9022002A804F0EF
:104C780065FC4FF0FF3252FA80F00E2800F2638094
:104C8800DFE800F008101C616161616161616161C8
:104C980061612A0001A9404600F0FFFC08B0BDE8A8
:104CA800000BF0BD01A805A905904046CDE90654C2
:104CB80000F04CFD08B0BDE8000BF0BDC8B20328F9
:104CC80013D8DFE800F002262A3A404600F0B4FB89
:104CD80008B0BDE8000BF0BD40462946224600F06A
:104CE80009FC08B0BDE8000BF0BD084604F007FC5D
:104CF8004CB38146BDF80A6005EBC404D5E9000150
:104D080032464B694946984768B90835A542F5D1F6
:104D180019E0311D306828B915E006F10C01083694
:104D2800306880B10968CDE9050105A9404600F061
:104D380059FC08B0BDE8000BF0BD06F114011036AF
:104D480030680028EED1B8F828006FF00201043866
:104D58000842A3D1D8F800000921A8F82810006853
:104D6800BFF35F8F98B198F80610012203F006FE92
:104D7800D8F80C000068BFF35F8F40B198F81210A4
:104D8800012203F0FBFD08B0BDE8000BF0BD40F6C2
:104D98009C1040F62022C2F22000C2F220022221FA
:104DA80004F066FEFEDED4D4F0B503AF2DE9000FA3
:104DB8008DB00468064605A888469246214603F049
:104DC80018FF96F8E000BDF81450032816D1002DFE
:104DD8004FF0000018BF032D03D10DB0BDE8000F40
:104DE800F0BD204603F004FF96F8E300042800F025
:104DF8000881042186F8E00086F8E31005F0070032
:104E0800DFE800F003082448030000200DB0BDE8E7
:104E1800000FF0BD306803F095FB00200421BAF1C3
:104E2800000FA6F8E000A6F8E310A6F85400ECD0AE
:104E380008EBCA04A8F1080555F8080F69688969DC
:104E4800884705F10800A042F6D1DEE7BDF8160054
:104E5800BDF81810BDF81A200290084340EA02096C
:104E6800049103925FEAC97054D00498C0071CBF2C
:104E780006F12C0000F078FA0398C00719D10298BF
:104E8800C00720D104208DF823009DF823000428B2
:104E980022D13DE0306803F0ABFE96F8E00086F8DA
:104EA800E300032086F8E00000200DB0BDE8000F05
:104EB800F0BD06F12C0107A800F045F99DF8230084
:104EC800042809D124E006F12C0107A800F0A5F870
:104ED8009DF8230004281BD09DF8220000287AD0D2
:104EE800802815D1DDE907010AABBDF82420CDE9FA
:104EF8000A013046ADF8302041465246FFF7EAFC39
:104F080029F00109B9F1000FCDE9008A07D14DE078
:104F180029F00109B9F1000FCDE9008A46D00199BD
:104F2800002953D0009801264FF0020B00EBC1086E
:104F3800A0F1080503981BEA000F0BD02C4654F883
:104F4800080F61688A6A3146904704F108004045B5
:104F5800F5D10EE002981BEA000F0AD02C4654F84F
:104F6800080F6168CA6A3146904704F10800404555
:104F7800F5D104981BEA000F0DD066F07F04AA460D
:104F88005AF8080FDAF804100A6B214690470AF11C
:104F980008004045F4D129EA0B095FEA094005D029
:104FA800701C0F2E4FEA4B0B0646C3D3019969B10B
:104FB800009800EBC104A0F1080555F8080F6968CE
:104FC800C969884705F10800A042F6D101200DB053
:104FD800BDE8000FF0BDDDE907010AABBDF82420EC
:104FE800CDE90A013046ADF8302041465246FFF778
:104FF80055FD29F00109B9F1000FCDE9008A8ED1DC
:10500800D4E740F6101040F68C12C2F22000C2F22B
:1050180020021C2104F099FCFEDEF0B503AF4DF828
:1050280004BD86B00446088D0D46411E032927D3CA
:10503800052825D0072835D1286AD5F82E30698E5D
:105048008128D5F82A20ADF80C10CDE9012372D2B9
:1050580029680968BFF35F8F002960D0C0F1800319
:10506800AA792844009300F1340304A803F0CAFB8A
:105078009DF8100000283ED09DF8110008BB34E0D0
:1050880028680168BFF35F8F002948D0AA7940F6E5
:10509800302301A80026C2F22003009603F0B2FBD9
:1050A8002E8522E028680168BFF35F8FB9B300201E
:1050B800AA7940F63023009001A8C2F2200303F039
:1050C800A1FB2868092129850068BFF35F8F30B3E9
:1050D800A979012203F052FCE8680068BFF35F8FEA
:1050E800E8B1A97C012203F049FC0420E07106B074
:1050F8005DF804BBF0BD0598D5E90812084428629C
:105108009042F2D3DDE901010623BDF80C202B857E
:1051180020606160228106B05DF804BBF0BD40F6F6
:105128009C1040F62022C2F22000C2F22002222166
:1051380004F09EFCFEDE40F694228021C2F220029A
:1051480005F0CFF8FEDEF0B503AF2DE9000B86B011
:105158000E46804656F8340B0D460168BFF35F8F44
:10516800002900F09080AA7903AC80203346009093
:10517800204603F047FB9DF80C0018B19DF80D0080
:1051880060B921E0049A812A80F08980204631465E
:1051980004F0B6F99DF8130004281CD128680921E9
:1051A80029850068BFF35F8F00286CD0A979012298
:1051B80003F0E4FBE8680068BFF35F8F002862D063
:1051C800A97C012203F0DAFB042088F8070006B066
:1051D800BDE8000BF0BDE01D9DF81240BDF8106061
:1051E800018880788DF80A002868ADF80810DDF885
:1051F8000C900068BFF35F8F002844D0A979002283
:1052080003F0BCFBE4B19DF80A000422BDF80810C5
:1052180085F83040EE85C5F82A902A85A5F8311022
:1052280085F8330088F80640A8F80460A8F8071045
:10523800C8F8009088F8090006B0BDE8000BF0BD7A
:10524800A6B1802EAAD800229DF80A00BDF8081041
:10525800072385F83020EE85C5F82A902B85C5E907
:105268000826A5F8311085F83300ADE79DF80A0047
:105278000622BDF808102A8500226A6288F80620EE
:10528800A8F80420D2E740F69C1040F62022C2F28B
:105298002000C2F22002222104F0EAFBFEDE40F6E2
:1052A800A4231046C2F2200380211A4605F03EF8D6
:1052B800FEDEB0B502AF84B00446D0E90651006AFC
:1052C800D4F824C0002D238AAE46ACEB000208BFF8
:1052D80004F1340E9A4238BF1346002D03EB000C3C
:1052E80008BF80219C4523D38C4529D8E1680968EB
:1052F800BFF35F8F61B3A27C00930EEB000302A89B
:1053080003F0C4F99DF8080008B104B0B0BD0398D3
:10531800D4E90812014421629142F6D30021228A7D
:10532800A1610321904208BF0221218504B0B0BDCC
:1053380040F6B4226146C2F2200205F01CF8FEDEF7
:1053480040F6B4226046C2F2200204F0EFFFFEDE0F
:1053580040F69C1040F62022C2F22000C2F2200241
:10536800222104F085FBFEDEB0B502AF84B004460E
:10537800008D0138072835D8DFE800F0040B253404
:105388003434344C2046FFF794FF0025284604B0F7
:10539800B0BDE0680168BFF35F8F002940D0A27CF0
:1053A80040F6302302A80025C2F22003009503F03E
:1053B8006DF99DF808000028E8D103200025208514
:1053C800284604B0B0BD20680068BFF35F8F38B3CB
:1053D800A1790022002503F0D1FA0520208528466E
:1053E80004B0B0BD2068092121850068BFF35F8F34
:1053F800B0B1A179012203F0C1FAE0680068BFF3F7
:105408005F8F68B1A17C012203F0B8FA0025284615
:1054180004B0B0BD002001252085284604B0B0BDE9
:1054280040F69C1040F62022C2F22000C2F2200270
:10543800222104F01DFBFEDEF0B503AF4DF804BDDC
:105448008AB00446008D042833D101AD04F134013B
:105458008022E68D284603F076FC40F20940A7F149
:10546800120227F8120C28460321022303F074FCC9
:10547800C0B2082819D101A803F06CFC80281DD9F6
:105488002068092121850068BFF35F8F30B3A179B7
:10549800012203F073FAE0680068BFF35F8FE8B198
:1054A800A17C012203F06AFA02200AB05DF804BB6D
:1054B800F0BD07200AB05DF804BBF0BD0121B04281
:1054C800218538BF064600212046C4E90816FFF7A3
:1054D800F0FE08200AB05DF804BBF0BD40F69C1051
:1054E80040F62022C2F22000C2F22002222104F05B
:1054F800BFFAFEDEF0B503AF2DE9000F8BB083468F
:10550800008D042826D10D46E9460BF1340190465A
:1055180048468022BBF82EA003F015FC08AE494689
:10552800304603F003FF304603F004FFC0B20828FA
:105538000CD108AE4FEAC8048CB1F5E802010A693B
:1055480031469047083CC0B20828F5D00BB0BDE8FA
:10555800000FF0BD07200BB0BDE8000FF0BD08A894
:1055680003F0B9FF684603F0F5FB80281DD9DBF886
:1055780000000921ABF828100068BFF35F8F28B33B
:105588009BF80610012203F0F9F9DBF80C0000681B
:10559800BFF35F8FD0B19BF81210012203F0EEF930
:1055A80002200BB0BDE8000FF0BD01215045ABF85B
:1055B800281038BF824600215846CBE9081AFFF761
:1055C80078FE08200BB0BDE8000FF0BD40F69C1037
:1055D80040F62022C2F22000C2F22002222104F06A
:1055E80047FAFEDEF0B503AF2DE9000B88B004469C
:1055F800008D042830D1D1E90056E84604F1340181
:1056080040468022B4F82E9003F09DFB4046294680
:10561800324603F0C9FDC0B2082819D1684603F024
:1056280099FB80281DD92068092121850068BFF3CE
:105638005F8F30B3A179012203F0A0F9E068006818
:10564800BFF35F8FE8B1A17C012203F097F9022034
:1056580008B0BDE8000BF0BD072008B0BDE8000B9E
:10566800F0BD01214845218538BF814600212046EB
:10567800C4E90819FFF71DFE082008B0BDE8000BB3
:10568800F0BD40F69C1040F62022C2F22000C2F283
:105698002002222104F0ECF9FEDEF0B503AF4DF84C
:1056A800048D88B00446008D04282ED10D686E46FE
:1056B80004F1340130468022B4F82E8003F043FB15
:1056C8003046294603F095FBC0B2082819D1684630
:1056D80003F040FB80281DD9206809212185006836
:1056E800BFF35F8F30B3A179012203F047F9E06877
:1056F8000068BFF35F8FE8B1A17C012203F03EF997
:10570800022008B05DF8048BF0BD072008B05DF8F2
:10571800048BF0BD01214045218538BF804600211A
:105728002046C4E90818FFF7C4FD082008B05DF852
:10573800048BF0BD40F69C1040F62022C2F22000F7
:10574800C2F22002222104F093F9FEDEF0B503AF85
:105758002DE9000788B08246008D04284CD191E8D5
:1057680050026D460AF1340128468022BAF82E808C
:1057780003F0E9FA2168284603F0D5FBC0B20828EF
:1057880036D1B9F1000F10D006EBC9046D46D6E941
:105798000001CA6829469047C0B2082828D128467F
:1057A80003F029FC0836A642F1D16D46284603F0DD
:1057B80025FC284603F0CEFA802822D9DAF8000022
:1057C8000921AAF828100068BFF35F8F50B39AF830
:1057D8000610012203F0D2F8DAF80C000068BFF3D3
:1057E8005F8FF8B19AF81210012203F0C7F802206F
:1057F80008B0BDE80007F0BD072008B0BDE8000705
:10580800F0BD01214045AAF8281038BF8046002184
:105818005046CAE90818FFF74CFD082008B0BDE853
:105828000007F0BD40F69C1040F62022C2F220008E
:10583800C2F22002222104F01BF9FEDED0B502AF2D
:105848000446008D6FF00201043808421CBF07208F
:10585800D0BD2068092121850068BFF35F8F70B132
:10586800A179012203F08AF8E0680068BFF35F8F2E
:1058780028B1A17C012203F081F80820D0BD40F6B0
:105888009C1040F62022C2F22000C2F220022221FF
:1058980004F0EEF8FEDED0B502AF84B00446008D09
:1058A800062812D1E0680168BFF35F8F81B100203C
:1058B800A27C40F63023009002A8C2F2200302F036
:1058C800E5FE0820208504B0D0BD072004B0D0BD77
:1058D80040F69C1040F62022C2F22000C2F22002BC
:1058E800222104F0C5F8FEDEF0B503AF4DF804BD83
:1058F80084B0044690F834000D46D8B120680028DA
:105908005BD14FF0FF31204640F8041B294602F0D6
:10591800EEF9CDE9020102A802F036FA70B302AD41
:10592800284602F041FA284602F02EFA0028F7D15C
:10593800012528E003F0E7FF064603F0DAFF03F04D
:10594800E5FF2068C8BB4FF0FF31204640F8041B34
:10595800294602F0CCF9CDE9020102A806F00106B9
:1059680002F012FAB8B102AD284602F01DFA284634
:1059780002F00AFA0028F7D1012511E002A802F086
:10598800C3F980F00105206801302060284604B082
:105998005DF804BBF0BD02A802F0B6F980F001057D
:1059A8002068002E00F10100206008BF03F0A3FF6B
:1059B800284604B05DF804BBF0BD40F6303040F630
:1059C8004033C2F2200002AA009040F2FA30C2F23C
:1059D8002000C2F22003102104F0A3F8FEDEF0B587
:1059E80003AF4DF804BD84B0044690F834000D466A
:1059F800E0B12068002843D14FF0FF31204640F83D
:105A0800041B294602F073F9CDE9020102A802F04D
:105A1800EFF900281CBF0DF1080002F069F92068B1
:105A28000130206004B05DF804BBF0BD03F06BFFEB
:105A3800064603F05EFF03F069FF206800BB4FF0E5
:105A4800FF31204640F8041B294602F050F9CDE901
:105A5800020102A806F0010502F0CAF900281CBFDD
:105A68000DF1080002F044F92068002D00F1010052
:105A7800206008BF03F03FFF04B05DF804BBF0BD31
:105A880040F6303040F64033C2F2200002AA0090BF
:105A980040F2FA30C2F22000C2F22003102104F0D2
:105AA80040F8FEDEF0B503AF4DF804BD84B00446FF
:105AB80090F834000D46A0B1206890BB4FF0FF303D
:105AC80029462060201D02F012F9CDE9020102A842
:105AD80002F024F920680130206004B05DF804BBAE
:105AE800F0BD03F010FF064603F003FF03F00EFFBE
:105AF8002068B0B94FF0FF3029462060201D02F021
:105B0800F6F8CDE9020102A802F008F92068013090
:105B18002060F00708BF03F0EEFE04B05DF804BB98
:105B2800F0BD40F6303040F64033C2F2200002AA01
:105B3800009040F2FA30C2F22000C2F22003102195
:105B480003F0EFFFFEDE7047002070477047082023
:105B580070477047F0B503AF4DF8048D0546D0790E
:105B6800012802BF1646107A012802D05DF8048B7E
:105B7800F0BD95F82C008846748803F0C0FCC0B2CC
:105B88008442F3D1707A212804BFB088072831D025
:105B9800B8F828006FF0020104380842E6D1D8F8B6
:105BA80000000921A8F828100068BFF35F8FA8B18A
:105BB80098F80610012202F0E1FED8F80C000068FF
:105BC800BFF35F8F00281FBF98F8121001225DF8FD
:105BD800048BBDE8F04018BF02F0D0BE40F69C1020
:105BE80040F62022C2F22000C2F22002222103F055
:105BF8003FFFFEDEB8F828000428B7D1B8F82E0019
:105C0800012395F8291095F82A200728A8F82830A4
:105C180095F828306E6A4FF00005C8F8346088F8A7
:105C2800383088F8392088F83A1028BF0720C8E9A2
:105C3800085040465DF8048BBDE8F040FFF739BBDB
:105C4800F0B503AF4DF8048D84B00546D07901282E
:105C580002BF1646107A012803D004B05DF8048B01
:105C6800F0BD95F82C008846748803F048FCC0B253
:105C78008442F2D1707A88B1202814D022284AD1DF
:105C88003078B8F8281000F0010285F82E20C0F30B
:105C9800400085F82F000629DFD124E0B8F8280055
:105CA8000628DAD11FE0D8F82400812866D2062811
:105CB80031D998F83800D8F83410696200F0F0FB50
:105CC80098F83910C0B285F82800084600F0EDFBB6
:105CD80098F83A20C0B2B8F8281085F82A0085F854
:105CE80029200629B9D1D8F80C000168BFF35F8FC5
:105CF800C1B398F81220002040F63023009002A883
:105D0800C2F2200302F0C2FC0820A8F8280004B060
:105D18005DF8048BF0BDB8F828006FF00201043874
:105D280008429AD1D8F800000921A8F8281000687C
:105D3800BFF35F8FB0B198F80610012202F01EFE83
:105D4800D8F80C000068BFF35F8F00281FBF98F8D1
:105D58001210012204B05DF8048B1CBFBDE8F040AE
:105D680002F00CBE40F69C1040F62022C2F2200041
:105D7800C2F22002222103F07BFEFEDE40F6C4229E
:105D88008021C2F2200204F0D1FAFEDEF0B503AFA2
:105D98002DE9000B84B090F82C6081460025022084
:105DA800CDE900050C46084631460222022303F0DD
:105DB80036F9C0B208286ED12046314602220223A5
:105DC800009503F082F9C0B2082864D140F6503239
:105DD8002046C2F220022421032302F0BDFFC0B2F4
:105DE800082858D140F653322046C2F22002242116
:105DF800022302F0B1FFC0B208284CD1304603F0AC
:105E08007EFB99F82D800646404603F078FB07F89C
:105E18001C0C0620A7F11E0207F81E0C20462421A0
:105E2800032307F81D6C02F097FFC0B2082832D18F
:105E3800404603F064FB07F8190C0120A7F11B0288
:105E480027F81B0C20462421032302F085FFC0B24B
:105E5800082820D12046494600F039F8C0B2082861
:105E680019D199F82D100020009020460A2200230D
:105E780003F02BF9C0B208280DD109F1180120460A
:105E880000F025F8C0B2082805D109F10C01204618
:105E980000F01DF8C0B204B0BDE8000BF0BDD0B5ED
:105EA80002AF82B00446684600F004FBDDE9000159
:105EB800C4E909010020E08502B0D0BD0A46D0E956
:105EC8000031184604F007BA006803F050BEF0B578
:105ED80003AF4DF804BD8C46416959B341688369E5
:105EE8008B4244D20268D0F808E0D45C0134D45420
:105EF8000EF102038B4219D80EF58074A14238BF07
:105F08000C469C4243D3E41A052C0FD3BCF8065028
:105F1800BCF80440D55213449CF808601E71260A48
:105F28009C700EF107048C42DE7007D902205DF8E0
:105F380004BBF0BD07205DF804BBF0BD8E451ED242
:105F4800072302F80E300EF101038B423FBF0521F3
:105F5800D154846008203CBF5DF804BBF0BD40F616
:105F6800D832C2F22002184603F0BBFDFEDE40F62E
:105F7800E832C2F22002184603F0B3FDFEDE40F616
:105F8800C8327046C2F2200203F0ABFDFEDE40F6D6
:105F9800B8321846C2F22002214604F0ECF9FEDEBF
:105FA8007047F0B503AF4DF804BD84B00068802990
:105FB80006684FF00000029003D201248DF8081003
:105FC80034E0B1F5006F09D20224084664F39F104B
:105FD8008DF80900C02040EA911025E002200A4609
:105FE80060F39F12B1F5803F0DD28DF80A208A091F
:105FF80060F39F12E02040EA11308DF809208DF8F7
:106008000800032412E08DF80B208A0960F39F1220
:106018008DF80A200A0B042460F39F12880C1E21B5
:106028008DF8092061F3DF008DF8080003F051FCBA
:1060380005463068B0B94FF0FF30321D306002A815
:10604800214600F040F904463068013030602846A7
:1060580003F04AFCE0B2033818BF012004B05DF831
:1060680004BBF0BD40F6AC4040F61043C2F220003D
:1060780003AA009040F2FA30C2F22000C2F22003D4
:10608800102103F04EFDFEDEF0B503AF4DF804BD60
:1060980088B0006802AA019091E87850104640F64E
:1060A800F831C2F2200180E8785001A803F073FDAE
:1060B80008B05DF804BBF0BDF0B503AF4DF8048D32
:1060C80082B0006815460E46046803F002FC80465C
:1060D8002068B0B94FF0FF30221D206030462946B5
:1060E80000F0F1F80546206801302060404603F0D2
:1060F800FBFBE8B2033818BF012002B05DF8048B3F
:10610800F0BD40F6AC4040F61043C2F2200001AAB0
:10611800009040F2FA30C2F22000C2F220031021AF
:1061280003F0FFFCFEDEF0B503AF2DE9000748F2EF
:106138009C52D1F80080C2F200021268904503D93F
:106148000020BDE80007F0BDC2683AB380680025AA
:10615800D1E9019A02EB4201061D8C0005E00C3CD6
:1061680006F10C0605F10105EAD030685045F6D174
:1061780056F8040C4946524604F06EFC0028EED14D
:10618800706800218045A0F10600B0FA80F098BF41
:10619800012140090843BDE80007F0BD0120BDE822
:1061A8000007F0BDF0B503AF2DE9000F93B00090E4
:1061B80048F29C50C2F20000D1F800900068814576
:1061C80023D88A460099C86818B3896800EB40004C
:1061D800DAE901B54FF000080C1D860005E00C3E19
:1061E80004F10C0408F101080FD02068A842F6D188
:1061F80054F8040C59462A4604F02EFC0028EED127
:106208006068062818BF814505D913B0BDE8000F9E
:10621800F0BDDAE901B5009840F6F831019043F68F
:106228001940C0F200000DAA07900BA8069043F68B
:106238000D40C0F20000C2F22001059009A80490A8
:1062480047F2D140C0F20000CDF82090039008A892
:1062580002900AF10C000B9001A80C9003201290F8
:1062680002A8119000200F9004200E9040F62840BC
:10627800C2F22000CDE909B50D900CA803F08BFC03
:1062880013B0BDE8000FF0BD7047D0B502AF48F2BB
:1062980068120C46D1E901C3C2F200020021C2E92A
:1062A80002C3C2E9001040F6C841C2F220011046FC
:1062B80003F078FA002801BF216848F29C52C2F224
:1062C80000021160D0BDF0B503AF2DE9000780468C
:1062D800106892460D4600F211430122BFF35F8F0A
:1062E800D3E84F1FC3E8462F002EF9D1BFF35F8FC5
:1062F80019B10120BDE80007F0BD0168BFF35F8F49
:106308004268BFF35F8F8A4204D9CE4312EB060975
:106318000BD172E0B1F5806F05D1012A6DD9A2F1D8
:106328000109002101E0C1F580692E46A94538BF61
:106338004E467218BFF35F8FC26008444146103062
:106348003246DAF8004004F04DFD94F81104BFF32A
:106358005F8F40B3206804F10C01BFF35F8FBFF378
:106368005F8F51E8002F41E80023002BF9D1BFF3DC
:106378005F8FB0F5806FA268BFF35F8FE168BFF3EE
:106388005F8F01D0814203D3914204D94FF48060DA
:10639800BFF35F8FA060BFF35F8F21600020BFF362
:1063A8005F8F84F81104A9456BD2DAF80000AA1BA4
:1063B80008EB0601012500F21143BFF35F8FD3E814
:1063C8004F6FC3E8445F002CF9D1002EBFF35F8FF5
:1063D8008FD10668BFF35F8F4568BFF35F8FB54203
:1063E80003D9F4432D1912D107E0B6F5806F0CD10B
:1063F800012D02D9013D002609E000200021BFF34C
:106408005F8F1970BDE80007F0BDC6F5806595423D
:1064180038BF2A469319BFF35F8FC36030441030EA
:10642800DAF8004004F0DEFC94F81104BFF35F8F43
:1064380038B3206804F2114304F10C01BFF35F8FF5
:10644800BFF35F8F51E8002F41E80026002EF9D1F5
:10645800BFF35F8FB0F5806FA268BFF35F8FE1680D
:10646800BFF35F8F01D0814203D3914204D94FF427
:106478008060BFF35F8FA0600320BFF35F8F216050
:10648800BCE70320BDE80007F0BD704748F28C5117
:10649800C2F2000188600120BFF35F8F0870704767
:1064A800C1B2032928BF00207047C1B2052928BFFF
:1064B80000207047002181714FF4006181804FF402
:1064C800FA5101607047022070470F207047B0B53D
:1064D80002AF054608680C4640F48030086008683A
:1064E80040F040000860222063F31340486040F207
:1064F8006850C0F20C10086240F29510C0F2B20069
:106508004862DC20C0F27A0088627D20C0F2580020
:10651800C8624B20C0F2400008632F20C0F22E0052
:106528004863886346F62010C86040F6A310886068
:106538004FF4C840C8614FF4C860886140F6C41081
:10654800C0F6804008613F204861086862F3010096
:106558000860086820F480300860C86F4021281D52
:1065680004F042FC10202C606864B0BDF0B503AFA5
:106578002DE9000F85B0019001204FF0080C4FF075
:10658800000E4FF0FF334FF0200900254FF0010AAD
:1065980009E00CF1010C09F104094FF4005A00203C
:1065A800BCF1210F6FD0C007F3D00AF101000AFB3C
:1065B8000CFB4FF000080CFB00F004900AF10200FD
:1065C8000CFB00F003900AF103000CFB00F00290B2
:1065D8001BEB080065D0B1FBF0F00446824238BFDF
:1065E800144688BF1046001B98423EBFE6465546F3
:1065F80003460AF10100B0F5005FCAD0049C14EB11
:1066080008044ED0B1FBF4F42646A24238BF164621
:1066180088BF1446A41B9C423EBFE6460546234657
:106628000130B0F5005FB4D0039C14EB080438D0F7
:10663800B1FBF4F42646A24238BF164688BF14467A
:10664800A41B9C423EBFE646054623460130B0F5F2
:10665800005F9ED0029C14EB080422D0B1FBF4F436
:10666800C8442646A24238BF164688BF1446A41B13
:1066780000F1010A9C423EBFE64605462346BAF5AC
:10668800005FA5D185E72EF0030001990438B0FA20
:1066980080F0C1E900E54009087205B0BDE8000FC7
:1066A800F0BD40F6405040F65C52C2F22000C2F203
:1066B8002002192103F0DCF9FEDE4FF44050704748
:1066C8000020C0F2FF1070474FF4403101EA00107B
:1066D80070470021C0F2FF110840704740EA1110CE
:1066E80043F20001C0F2FF110840704700F1340284
:1066F80000F15001104670477047F0B503AF2DE91F
:10670800000B84B04FF40071044604F06DFB44F2B2
:10671800C429103CC2F2000909F108060025E84620
:10672800D9E9000103960291CDE90050404602F0F4
:1067380051FF9DE80F0001350C3644F8100F202D4D
:1067480004F104000EC0EBD104B0BDE8000BF0BDAD
:10675800006803E0816C002908BF7047816C29B18B
:10676800816C00291CBF816C0029F3D17047006837
:10677800426D61F301024265704740F2276291421F
:1067880038BF0A46B2F5487F98BF4FF44872A2F561
:10679800487144F2AF7300688AB25A43C368A1EBE8
:1067A800124189B2490801EB124123F01F0242EA63
:1067B8001111C16004E00168B1F1FF3FD8BF704713
:1067C8000168002905D4016800295CBF0168002917
:1067D800F1D57047A1F1080240F6F87392B29A42D7
:1067E80021BF022101600171704700220139C0F800
:1067F8000620818002608272704780B56F46C1B101
:1068080081421FD8B0FBF1F3B0FBF3F0884288BF98
:106818000133981E38BF0020FF2828BFFF2000F052
:10682800FE0140EAC11040F0F85040F4F81010643E
:1068380080BD40F6E05040F6C852C2F22000C2F2D5
:10684800200207E040F6E05040F6FC52C2F2200079
:10685800C2F22002192103F00BF9FEDEF0B503AFF6
:106868002DE9000B44F2E043C4F21F031B68C3F395
:106878000B2E4FEA135CE6451FBF0124C1F888417F
:10688800DBB24FF47A781FBF03FB08F9ACEB0E04B8
:10689800D1F8906149F658651FBFCFF6FF7513FB15
:1068A800085393FBF4F3C2EA06021FBFC1F8902114
:1068B80080E80A40C0F80C90BDE8000B18BFF0BD96
:1068C80040F6806040F67062C2F22000C2F22002F8
:1068D800192103F0CDF8FEDE90F800C0DFE80CF0D7
:1068E80004080C1014181C20096801F1680C1AE03F
:1068F800096801F16C0C16E0096801F1700C12E0EE
:10690800096801F1740C0EE0096801F1780C0AE0DD
:10691800096801F17C0C06E0096801F1800C02E0CD
:10692800096801F1840C40780321DCF8003040004C
:10693800C0B2824001FA00F023EA00001043CCF80C
:106948000000704780B56F4600684FF400514FF45F
:1069580080524FF0400C4FF4803E00E041610369E3
:106968009B04FBD50369DB0401D44261F7E70369A3
:10697800B3F1FF3FF3DC0369DB0306D403695B066D
:1069880048BF80BDC0F814C0E9E7C0F818E0E6E7E2
:1069980080B56F46D0E9002E4FF0004C4FF0804391
:1069A800CEF834C0CEF838C0CEF838300023CEF850
:1069B80000300223C2F84031D2F840319B070CD591
:1069C800D2F840319B0744BFD2F840315FEA837365
:1069D80003D5D2F840319B07EED44FF0000C0A23C0
:1069E800C2F840C10029C2F8A831D2F8843123F096
:1069F800807308BF03F18073C2F88431D2F8441160
:106A08000069C2F84411C2F848C1C2F8580180BDF3
:106A180080B56F4602464369C8B2490041EAD011C1
:106A2800C8B2834216D9936A01F00F011B68BFF3FD
:106A38005F8F9BB223FA01F1C9070BD0516A8142DB
:106A480084BF012080BD41F27002C2F2200203F02F
:106A580048F8FEDE002080BDF0B503AF2DE9000F39
:106A680083B08046486900281FBF886A0068BFF362
:106A78005F8F5FEAC0700BD140F6F66040F6247273
:106A8800C2F22000C2F220022B2102F0F1FFFEDE4A
:106A9800486A002800F01581086A01260C6890F9F8
:106AA80010E0D4F8AC510EF01F0C06FA0CF62E428A
:106AB80018BF072B06D845686D6815F0680F6CD0AD
:106AC800072074E0D0F800C0C4F8AC61D4F84031B5
:106AD80043F40053C4F84031DCE90A36D4F8405195
:106AE800AD0425D4D4F8403143F40053C4F8403100
:106AF800DCE90A36D4F84051AD045FBFD4F8403120
:106B080043F40053C4F84031DCE90A365CBFD4F8DA
:106B180040515FEA85450BD4D4F8403143F4005323
:106B2800C4F84031DCE90A36D4F84051AD04CDD57B
:106B3800D4F8405125F40055C4F840515660012559
:106B48001360027CD4F8B86153B202F01F02002B24
:106B580048BF360C95402E40360614D14FF4803687
:106B6800B3F1FF3FC8BF01264FF47F0306FA02F2D4
:106B7800C8BFFF231A40C4F8782102681268C2F31C
:106B88000A4200F01CFE0820C8F80400002088F81B
:106B9800000003B0BDE8000FF0BDD4F8B851BEF155
:106BA800000F48BF2D0C35402D0609D0002088F86D
:106BB8000100012088F8000003B0BDE8000FF0BD17
:106BC8004FF48036BEF1FF3FC8BF01264FF47F0562
:106BD80006FA0CF6C8BFFF252E40C4F8BC6190F930
:106BE80010604FF480394FF47F0EB6F1FF3F06F086
:106BF8001F06C4BF4FF0FF0E4FF0010909FA06F651
:106C080006EA0E06C4F87861D0E900C5DCF8004051
:106C18006E68ED69C4F30A44C6F30E469C42A5EBC0
:106C2800060628BF1C46B44228BF34469C4251D8A9
:106C3800D0F80CA0544538BFA246BAF1000F18BFCF
:106C4800002C35D0AAF10406D0F808B00196AAF1B4
:106C580003061319AAF10109AAF1020E02960026E9
:106C68001BF806509419B14504F8015B1ED09C42EC
:106C78001FBF0BEB060C9CF8015004F8015BB645EE
:106C880014D09C421FBF9CF8025004F8015B029D7F
:106C9800B5420BD09C421FBF9CF8035004F8015B1F
:106CA800019DB54202D004369C42D9D1D0F800C02B
:106CB800DCF80020C2F30A4200F081FDC8F804A005
:106CC80064E741F280020020C2F22002002102F0B3
:106CD80008FFFEDE41F204022046C2F220021946F5
:106CE80003F024FBFEDEF0B503AF2DE9000F83B0FF
:106CF800824648690228C0F03981886A0D460068D2
:106D0800BFF35F8F800740F13181696A012940F242
:106D18001C81D5F820E0DEF81810496811F0680FDA
:106D280001D0072012E09EF824600120D5F800C0A9
:106D380074B206F01F06DCF8B811002C00FA06F051
:106D480048BF090C0840000609D000208AF8010055
:106D580001208AF8000003B0BDE8000FF0BD0EF175
:106D6800140000904FF48030B4F1FF3FC8BF0120F9
:106D78004FF47F0100FA06F0C8BFFF210840CCF8A5
:106D88007801DEF81400DEF820100068C0F30A402D
:106D9800984238BF03468B4238BF194600290191F3
:106DA80018BF002B40F09280DDF804B0BBF1000F53
:106DB8002ED0ABF101060120DEF81C9000EB561432
:106DC80004F0030802F099FD4EF6707029F01F01D7
:106DD800CEF20000602E0FD324F0030201F120034D
:106DE8000160036001F14003036001F16003043AAC
:106DF80001F180010360F1D1B8F1000F1CBF0160FF
:106E0800B8F1010F40F0988002F077FD02F078FDAC
:106E1800009829465A4600F0D2FC686900281FBF2E
:106E2800A86A0068BFF35F8F5FEAC0700BD140F6B5
:106E3800F66040F63472C2F22000C2F220022B2122
:106E480002F016FEFEDE686A002800F08680286AD6
:106E580001242968027CD1F8B86153B202F01F02FC
:106E6800002B48BF360C94402640360625D1B3F196
:106E7800FF3F4FF48033C8BF01234FF47F0603FA66
:106E880002F2C8BFFF263240C1F8BC2190F9102099
:106E98004FF4803C4FF47F04B2F1FF3F02F01F0231
:106EA800C4BFFF244FF0010C0CFA02F22240C1F8D3
:106EB80078212946002200F082FCCAF804B000209C
:106EC8008AF8000003B0BDE8000FF0BD0198D118A2
:106ED8000026031F0293DEF81C30A0F1010B841E6C
:106EE800A0F1030C02EB0608B34518F8010B9855FE
:106EF8003FF45AAF88451FBF03EB060918F8010B8A
:106F080089F80100B4423FF44FAF88451EBF18F816
:106F1800010B89F80200B4453FF446AF88451FBF0E
:106F280018F8010B89F803000298B0423FF43CAF0F
:106F380004368845D6D137E701F120020260B8F15E
:106F4800020F1CBF403101605EE741F28002012060
:106F5800C2F2200202F0C5FDFEDE41F280020020EE
:106F6800C2F22002002102F0BCFDFEDE40F6F6600F
:106F780040F64472C2F22000C2F220022B2102F035
:106F880077FDFEDEF0B503AF2DE9000F83B0804634
:106F9800387A4D69460046EAD016F0B2854240F28A
:106FA800CA808D6A06F00F062D68BFF35F8FADB2F9
:106FB80025FA06F6F60700F0BE804C6A844240F2D5
:106FC800B2800E6A00EB800006EB800046687668A7
:106FD80016F0680F01D0072011E0047CD1F800C03A
:106FE80004F01F0E65B20124DCF8B86104FA0EF44F
:106FF800002D48BF360C3440240609D0002088F8FC
:107008000100012088F8000003B0BDE8000FF0BDC2
:107018008C8D05F00F06F440E407EFD0B5F1FF3F83
:107028004FF48035C8BF01254FF47F0405FA0EF5EB
:10703800C8BFFF242540CCF8BC5190F910504FF43C
:1070480080394FF47F06B5F1FF3F05F01F05C4BF37
:10705800FF264FF0010909FA05F52E40CCF87861B2
:10706800D0E900C5DCF800406E68ED69C4F30A4455
:10707800C6F30E469C42A5EB060628BF1C46B44242
:1070880028BF34469C4262D8D0F80CA0544538BF7B
:10709800A246BAF1000F18BF002C35D0AAF1040699
:1070A800D0F808B00196AAF103061319AAF101094C
:1070B800AAF1020E029600261BF806509419B14553
:1070C80004F8015B1ED09C421FBF0BEB060C9CF81A
:1070D800015004F8015BB64514D09C421FBF9CF8D0
:1070E800025004F8015B029DB5420BD09C421FBFC1
:1070F8009CF8035004F8015B019DB54202D00436A8
:107108009C42D9D1D0F800C0DCF80020C2F30A4272
:1071180000F055FBC8F804A0002088F8000003B070
:10712800BDE8000FF0BD41F280022146C2F2200204
:1071380002F0D7FCFEDE40F6F66040F65472C2F26A
:107148002000C2F220022B2102F092FCFEDE41F266
:1071580004022046C2F22002194603F0E7F8FEDED8
:10716800F0B503AF2DE9000F83B08346387A0D469A
:107178004E69410041EAD011C8B2864240F2DD8032
:10718800AE6A01F00F013668BFF35F8FB6B226FA18
:1071980001F1C90700F0D180696A814240F2C680D6
:1071A800296A00EB800001EB8009D9F804004068E7
:1071B80010F0680F01D0072012E099F81010012094
:1071C800D5F800C04CB201F01F01DCF8B861002C02
:1071D80000FA01F048BF360C3040000609D0002004
:1071E8008BF8010001208BF8000003B0BDE8000F08
:1071F800F0BD4FF48030B4F1FF3FC8BF01204FF419
:107208007F0600FA01F0C8BFFF263040CCF87801AD
:10721800D9F80000D9F80C800068C0F30A409842F9
:1072280038BF0346434538BF9846B8F1000F18BF2A
:10723800002B3FD1B8F1000F2ED0A8F1010A012090
:10724800D9F8086000EB5A1404F00300029002F029
:1072580054FB4EF6707026F01F01CEF20000BAF112
:10726800600F0FD324F0030201F1200301600360D3
:1072780001F14003036001F16003043A01F1800168
:107288000360F1D1029B002B1CBF0160012B45D18B
:1072980002F033FB02F034FB48462946424600F030
:1072A8008EFACBF8048000208BF8000003B0BDE80C
:1072B800000FF0BDA8F104010191A8F103010291AA
:1072C800D9F80810D018A8F1010AA8F1020E002375
:1072D800D4189A4514F8016BCE54ABD084421FBF22
:1072E80001EB030C14F8016B8CF801609E45A1D0EA
:1072F80084421FBF14F8016B8CF80260029E9E4204
:1073080098D084421FBF14F8016B8CF80360019E6B
:107318009E428FD004338442DAD18BE701F12002F8
:107328000260022B1CBF40310160B1E741F28002CC
:10733800C2F2200202F0D5FBFEDE40F6F66040F60F
:107348006472C2F22000C2F220022B2102F090FBEC
:10735800FEDEF0B503AF4DF8048D15460E46044623
:107368004269E8B2690041EAD011C8B2824242D902
:10737800A26A01F00F011268BFF35F8F92B222FA7E
:1073880001F1C90737D0616A81422DD9216A00EB22
:107398008000324601EB80082146404600F094FA0E
:1073A80096B968B200280FD420680122D0F8B80135
:1073B80098F91010002901F01F0148BF000C02FACB
:1073C80001F10840000602D05DF8048BF0BDD8F842
:1073D800000021460068C0F30A4240465DF8048B6D
:1073E800BDE8F04000F0EBB941F28002C2F22002A1
:1073F80002F077FBFEDE40F6F66040F67472C2F2E9
:107408002000C2F220022B2102F032FBFEDED4D48F
:10741800F0B503AF2DE90007A2B0002600F1100A6D
:107428000446082001ADCDE90260012005F13009CC
:107438000DF16808019000200F960D96CDF830A048
:107448000896049609E0284641464A4600F056FB4D
:1074580090B1214600F0C2FA0D9801281A9507D17B
:107468000E980E9600281CBF017C5FEA4161F0D19E
:1074780001980D960228E6D10F980D96012807D19C
:107488001098109600281CBF017C5FEA4161E0D18A
:1074980000260820CDE9026001200DF1680801905E
:1074A80000200F96CDE90CA60896049601281A9597
:1074B8000CD103E00D9801281A9507D10E980E9665
:1074C80000281CBF017C11F07F021AD101980D968B
:1074D80002280AD0284641464A4600F00FFB20B150
:1074E800017C11F07F020CD13AE00F980D9601282B
:1074F80047D11098109600281CBF017C11F07F021C
:107508003FD01192013A062A3FD8DFE802F004087A
:107518000C1014181C00226802F5E27216E02268AA
:1075280002F5E47212E0226802F5E6720EE02268C3
:1075380002F5E8720AE0226802F5EA7206E02268BB
:1075480002F5EC7202E0226802F5EE724BB21268A4
:10755800B3F1FF3F4FF40003C8BF80231A42A9D0FC
:1075680049B2B1F1FF3FA5DD01680968C1F30A42DC
:10757800214600F024F90D9801281A953FF49EAF92
:10758800A4E722B0BDE80007F0BD18A901201691B4
:107598000021179041F2A012CDE91301C2F2200296
:1075A8001F9020A81E9002201B9041F2CC10C2F21E
:1075B800200012921A9048F26160C0F2000047F66B
:1075C800BF02219011A81C9141F23821209012A8E5
:1075D800C0F20002C2F22001CDE9188202F032FAAC
:1075E800FEDEF0B503AF2DE9000F91B080460868C4
:1075F8000D46D0F844A15FEA4A6149D45FEA4A716E
:107608003CD504210024C0F8441105F110000B906A
:107618000820CDE9014001206E4606F1300B0DF13E
:107628004009009000200E940C940794039403E002
:10763800294600F059F80C980128109607D10D98A2
:107648000D9400281CBF017C5FEA4161F0D10098CD
:107658000C94022806D0304649465A4600F04EFAA5
:107668000028E5D10E980C94012807D10F980F94A3
:1076780000281CBF017C5FEA4161D9D15FEACA706A
:1076880010D10020A8F8000011B0BDE8000FF0BD2F
:107698004021C0F844110120A8F8000011B0BDE84D
:1076A800000FF0BD28680121C0F844112868D0F8FF
:1076B800BC11C9B2A985D0F8BC11C1F307410A04AD
:1076C800C0F8BC212868D0F8AC01A8F80600A88D3D
:1076D800A8F802000220A8F80410A8F8000011B0C9
:1076E800BDE8000FF0BDD4D480B56F4692B0007CE1
:1076F80010F07F0234D00192013A062A32D8DFE82E
:1077080002F004080C1014181C00096801F5E27155
:1077180016E0096801F5E47112E0096801F5E671FF
