:0200000460009A
:100000004643464200000156000000000101020084
:1000100000000000000000000000000000000000E0
:1000200000000000000000000000000000000000D0
:1000300000000000000000000000000000000000C0
:1000400000000000010403000000000000000000A8
:100050000000200000000000000000000000000080
:100060000000000000000000000000000000000090
:100070000000000000000000000000000000000080
:10008000EB04180A063204260000000000000000FD
:10009000050404240000000000000000000000002F
:1000A0000000000000000000000000000000000050
:1000B0000604000000000000000000000000000036
:1000C0000000000000000000000000000000000030
:1000D00020041808000000000000000000000000DC
:1000E0000000000000000000000000000000000010
:1000F0000000000000000000000000000000000000
:1001000000000000000000000000000000000000EF
:100110000204180804200000000000000000000095
:1001200000000000000000000000000000000000CF
:10013000600400000000000000000000000000005B
:1001400000000000000000000000000000000000AF
:10015000000000000000000000000000000000009F
:10016000000000000000000000000000000000008F
:10017000000000000000000000000000000000007F
:10018000000000000000000000000000000000006F
:10019000000000000000000000000000000000005F
:1001A000000000000000000000000000000000004F
:1001B000000000000000000000000000000000003F
:1001C000000100000010000001000000000000001D
:1001D000000000000000000000000000000000001F
:1001E000000000000000000000000000000000000F
:1001F00000000000000000000000000000000000FF
:10020000D4D4D4D4D4D4D4D4D4D4D4D4D4D4D4D4AE
:10100000D10020400020006000000000000000002F
:1010100020100060001000600000000000000000D0
:101020000000006024C8000000000000EFBEADDE3C
:10103000124880F3088812481249016000F036F81F
:10104000114812490022814201D004C0FBE7104838
:101050001049114A814202D008CA08C0FAE70F4875
:101060004FF47001026842EA01020260BFF34F8F41
:10107000BFF36F8F00F014F800DE00000040002086
:1010800008ED00E00040002000500020A085002076
:10109000B84200205844002028C8006088ED00E0D5
:1010A00041F2D51CC0F2000C6047D4D41C4840F279
:1010B000924188420CBF1B4A1B4A1C4B5360136869
:1010C00023F0800313601A481A4901BF1A480A0C1A
:1010D0008264C1F30F014164016C41F004010164B9
:1010E0001648174A824205D01649814202D008CAE2
:1010F00008C0FAE71448154A824205D014498142D3
:1011000002D008CA08C0FAE71248134A824205D042
:101110001249814202D008CA08C0FAE770470000AD
:10112000240400000080034000C00B4020C528D9E3
:1011300000C00A40AAAAFAFF00400E4000000000CA
:10114000B8220060448E00000040002000200060B3
:10115000B84200200000202000B1006028172020A5
:10116000D4D4D4D4D4D4D4D4D4D4D4D4D4D4D4D43F
:10117000D4D4D4D4D4D4D4D4D4D4D4D4D4D4D4D42F
:10118000D4D4D4D4D4D4D4D4D4D4D4D4D4D4D4D41F
:10119000D4D4D4D4D4D4D4D4D4D4D4D4D4D4D4D40F
:1020000000400020311000608F2A00002B8E00005D
:102010008F2A00008F2A00008F2A00000000000095
:102020000000000000000000000000008F2A0000F7
:102030008F2A0000000000008F2A00008F2A000075
:102040008F2A00008F2A00008F2A00008F2A0000AC
:102050008F2A00008F2A00008F2A00008F2A00009C
:102060008F2A00008F2A00008F2A00008F2A00008C
:102070008F2A00008F2A00008F2A00008F2A00007C
:102080008F2A000000000000000000000000000097
:102090008F2A00008F2A00008F2A00008F2A00005C
:1020A0008F2A00008F2A00008F2A00008F2A00004C
:1020B0008F2A00008F2A00008F2A00008F2A00003C
:1020C0008F2A00008F2A00008F2A00008F2A00002C
:1020D0008F2A00008F2A00008F2A00008F2A00001C
:1020E0008F2A00008F2A00008F2A00008F2A00000C
:1020F0008F2A00008F2A00008F2A00008F2A0000FC
:102100008F2A00008F2A00008F2A00008F2A0000EB
:10211000000000008F2A0000000000008F2A00004D
:102120008F2A00008F2A00008F2A00008F2A0000CB
:102130008F2A00008F2A0000000000008F2A000074
:102140008F2A00008F2A00008F2A00008F2A0000AB
:102150008F2A00008F2A000000000000000000000D
:102160008F2A00008F2A00008F2A00008F2A00008B
:102170008F2A00008F2A00008F2A00008F2A00007B
:102180008F2A00008F2A00008F2A00008F2A00006B
:102190008F2A00008F2A00008F2A00008F2A00005B
:1021A0008F2A00008F2A00008F2A00008F2A00004B
:1021B0008F2A00008F2A00008F2A00008F2A00003B
:1021C0008F2A00008F2A00008F2A000000000000E4
:1021D0008F2A00008F2A00008F2A00008F2A00001B
:1021E0008F2A00008F2A00008F2A00008F2A00000B
:1021F0008F2A00008F2A00008F2A00008F2A0000FB
:102200008F2A0000752300008F2A00008F2A00000B
:102210008F2A00008F2A00008F2A00008F2A0000DA
:102220008F2A00008F2A00008F2A00008F2A0000CA
:102230008F2A00008F2A00008F2A00000000000073
:10224000000000008F2A00008F2A00008F2A000063
:102250008F2A00008F2A00008F2A00008F2A00009A
:102260008F2A00008F2A00008F2A00008F2A00008A
:102270008F2A00008F2A00008F2A00008F2A00007A
:102280008F2A00008F2A00008F2A00008F2A00006A
:102290008F2A00008F2A00008F2A00008F2A00005A
:1022A0008F2A00008F2A00008F2A00000000000003
:0822B0008F2A00008F2A0000B4
:1022B800F0B503AF4DF8048D84B004680646606934
:1022C800C00113D41546B2B120698846082140F4EC
:1022D8004070206101A804F0DBFC019802280FD1AE
:1022E8009DF8080004B05DF8048BF0BD042004B02C
:1022F8005DF8048BF0BD052004B05DF8048BF0BDDB
:102308009DF8080008EB050C9DF809109DF80A20B7
:102318009DF80C3061F30B209DF80EE0766840EADA
:1023280082504FF2000240EA83404FEA0E55CFF642
:102338000372F105464608F1010863691B0553D489
:10234800E36DDB0611D563691B054DD4E36DDB0630
:102358000BD563691B0547D4E36DDB0605D56369B7
:102368001B0541D4E36DDB06E7D4236E0543134018
:102378000B432B4343F42013236663691B0533D4B3
:10238800E36DDB0611D563691B052DD4E36DDB0610
:102398000BD563691B0527D4E36DDB0605D5636997
:1023A8001B0521D4E36DDB06E7D433784FF48015A1
:1023B800E0456366BED10EE0E36DDB0619D56369BF
:1023C8001B0511D4E36DDB0613D563691B050BD41C
:1023D800E36DDB060DD563691B0505D4E36DDB06EC
:1023E80007D563691B05E7D5002004B05DF8048BA9
:1023F800F0BD236E1A401143084340F400202066C4
:10240800062004B05DF8048BF0BDF0B503AF2DE9EC
:10241800000F85B00D6883466869C00111D49946DC
:102428008BB128690E460821904640F44070286117
:1024380002A804F02DFC0298022806D19DF80C0091
:10244800ABE00420A9E00520A7E09DF810404FF07C
:10245800010E9DF80C009DF80D109DF80E20A404A7
:102468009DF80F3061F30B207668012140EA825015
:102478009DF812C044EAC34300221843002340EAEF
:10248800C65A4FF20006CFF6037601200BE04B4503
:102498004FF0000138BF01214A454FF0000034BF1A
:1024A80001204B456FD2C0074ED0604618F802C0D5
:1024B8000132B2EB090408BFA6466C6924056BD447
:1024C800EC6DE40611D56C69240565D4EC6DE40661
:1024D8000BD56C6924055FD4EC6DE40605D56C69F1
:1024E800240559D4EC6DE406E7D42C6EC0B24AEA50
:1024F8000050CDF804A034405FFA8EF640EA46500A
:10250800204328666869000546D4E86DC00611D5E1
:102518006869000540D4E86DC0060BD568690005F8
:102528003AD4E86DC00605D56869000534D4E86D6D
:10253800C006E7D4C5F864C04FF200064FF0010C9E
:10254800DDF804A0CFF60376C807A0D06869C004F8
:102558002CD4286F80079AD4686FFF2828BFFF20E3
:1025680008F80300013392E7E86DC00620D56869D2
:10257800000511D4E86DC0061AD5686900050BD4AA
:10258800E86DC00614D56869000505D4E86DC00675
:102598000ED568690005E7D5002000218BF80400F6
:1025A800CBF8001005B0BDE8000FF0BD0120F4E73E
:1025B800286ECBE90089304040EA0A00286605B059
:1025C800BDE8000FF0BDF0B503AF2DE9000FADF584
:1025D800197D13AD04464FF4E072284608F07BFDE0
:1025E80005F1340005F1380105F1540201F044FB0E
:1025F800459804F0DFFA5D98016841F00101016037
:102608005D98016821F002010160439E0021C0F835
:102618000811C0F81811C0F82811C4E90000C4E96D
:102628000200C0F83811306820F0010030603068CE
:1026380040F4004030603068000409D53068000478
:1026480044BF30685FEA004002D530680004F2D425
:102658003F20B060306820F001003060DDF8108164
:10266800D8F8000020F00100C8F80000D8F80000F1
:1026780040F40040C8F80000D8F8000000040CD569
:10268800D8F80000000444BFD8F800005FEA004012
:1026980003D5D8F800000004EED43F20C8F808009D
:1026A800D8F8000020F00100C8F800006A9804F08B
:1026B8007BFADDF84C90CDE9111040F26341D9F86E
:1026C800480040F00100C9F84800D9F84400084320
:1026D800C9F84400D9F84400012161F38300C9F81E
:1026E8004400D9F8440020F08000C9F84400D9F823
:1026F800480040F02000C9F84800D9F8440040F4E8
:102708004040C9F84400D9F8440040F44470C9F87E
:102718004400D9F8480040F08000C9F84800D9F8CA
:10272800580000070CD0D9F8580000071CBFD9F88A
:1027380058005FEA007003D0D9F858000007EED1BE
:10274800D9F8480040F2634140F02000C9F8480039
:10275800D9F8440020F44040C9F84400D9F84400AE
:10276800DDF850A020F4447000F58870C9F84400E2
:10277800DAF8480040F00100CAF84800DAF84400E6
:102788000843CAF84400DAF84400012161F38300E1
:10279800CAF84400DAF8440020F08000CAF844007F
:1027A800DAF8480040F02000CAF84800DAF8440097
:1027B80040F44040CAF84400DAF8440040F4447059
:1027C800CAF84400DAF8480040F08000CAF8480027
:1027D800DAF8580000070CD0DAF8580000071CBFD8
:1027E800DAF858005FEA007003D0DAF858000007FA
:1027F800EED1DAF8480040F02000CAF84800DAF8CC
:10280800440020F44040CAF84400DAF8440020F4B8
:10281800447000F58870CAF84400DDF8C8B104F0C7
:1028280070F9054604F06FF9034683A859462A460D
:1028380004F06BF96D9995A84FF4805204F06CFA86
:102848003A9810903C980F903D980E903E980D90B5
:1028580074980C9077980B907998DDE92A120A9071
:1028680004F1340004F0A7F95F9A4FF4704102F5BF
:102878009070C4F8780202F1C000C4F8740202F142
:102888006000C4F870020F20C4E99A22A2F88C11E3
:10289800A2F88E01209A0992219A0892289A079202
:1028A8004B9A06924D9A0592529A0492549A039220
:1028B800559A02925A9A0192609A589D02F590731D
:1028C800C4F88C3202F1C003DDF858B1C4F888327C
:1028D800A2F88C11C4E99F22A2F88E016032C4F8D4
:1028E8008422619A02F1C003C4F89C3202F16003A9
:1028F800C4F8983202F59073C4F8A032A2F88C118B
:10290800C4E9A422A2F88E01629A02F16003C4F815
:10291800AC3202F1C003C4F8B032A2F88C1102F54F
:102928009071C4F8B41283A9C4E9A922A2F88E014F
:1029380004F53070482208F0CEFB039895ABC4F834
:102948005C0204F5427C0298C4F860020198C4F85D
:1029580064021198C4F834021298C4F8380209982D
:10296800C4F83C020898C4F840020798C4F8440226
:102978000698C4F848020598C4E90468109EC4F88B
:102988004C020498A6610F9EC4F850020A98E661AA
:102998000E9E20630FCB26620D9E66620C9EA66279
:1029A8000B9EC4E9AE9AC4E9955BE6628CE80F0019
:1029B8000DF5197DBDE8000FF0BD80B56F468EB0EE
:1029C8000A460421059106A90491002102910521D6
:1029D800019140F22001C2F2200100F10A030091A6
:1029E80040F61301C0F20001CDE90C0148F6D3010D
:1029F800C0F20001CDE9091300F10903083006907F
:102A08000B911046CDE90713694607F0ADFE0EB0ED
:102A180080BD80B56F468EB00A460421059106A98F
:102A28000491002102910521019140F25401C2F262
:102A3800200100F10E03009140F20B71C0F2000179
:102A4800CDE90C0148F6D301C0F20001CDE9091324
:102A580000F10D030C3006900B911046CDE90713D9
:102A6800694607F081FE0EB080BD80B56F468EB016
:102A78000A460421059106A9049100210291052125
:102A8800019140F25401C2F2200100F10A030091C1
:102A980040F61301C0F20001CDE90C0148F6D3015C
:102AA800C0F20001CDE9091300F1090308300690CE
:102AB8000B911046CDE90713694607F055FE0EB095
:102AC80080BD0A46D0E90031184607F062BEF0B56D
:102AD80003AF2DE9000B82B00C68804668461D469E
:102AE80016462146FFF791FC009868B9E9469DF81B
:102AF800040004280ED14846214632462B46FFF7EB
:102B080084FC00980028F2D0C8E9006502B0BDE84E
:102B1800000BF0BD002188F80400C8F8001002B0CE
:102B2800BDE8000BF0BDF0B503AF2DE9000FADF225
:102B3800E44DC9AC204601F0A7FB03A82146FFF7E6
:102B480042FDDDE90C80C9AEDDE90E128DE8070013
:102B58003046039CDDF82490979D01F041FD9DE8E7
:102B6800070003AB07C303A9304601F03EFDD4F8C4
:102B780008014AF21F1AC0F2070A20F00100C4F83F
:102B880008010120C4F80C01D4F8080120F0040061
:102B9800C4F80801D4F8080120F00200C4F80801BC
:102BA800C4F800A1D4F8080140F00100C4F80801F5
:102BB800D4F80C01C0070CD1D4F80C01C00704BF2D
:102BC800D4F80C015FEAC07003D1D4F80C01C00737
:102BD800EED04FF0010C48F23C16C4F80CC1C4F218
:102BE8001F06D4F8081148F22053C4F21F0321F03D
:102BF8000101C4F80811B268032161F30302B2604D
:102C0800B26842F01002B26000229A60706861F304
:102C180003007060706840F0100070605A60F068DF
:102C280061F30300F060F06840F01000F0601A6093
:102C3800306861F303003060306840F010003060A5
:102C48000220C6F8E02328612A612A4669622869B9
:102C5800296921F001012961296E21F04041296685
:102C6800296960F300014FF00F1029614EF290219D
:102C7800A865C0F27D01C5F810C0286940F440700D
:102C88002861D5F810B0286920F00100286142F6C3
:102C98000010C0F2DE7004F00EF828696BF3000033
:102CA8002861C4F800A1D4F8080140F00100C4F874
:102CB8000801D4F80C01C0070CD1D4F80C01C007E6
:102CC80004BFD4F80C015FEAC07003D1D4F80C013A
:102CD800C007EED04FF0010C0522C4F80CC1042344
:102CE800D4F8080120F00100C4F8080156F8780C5F
:102CF80062F3030046F8780CD9F8040040F00400A9
:102D0800C9F804004FF6E860C9F88430CFF6FF70C0
:102D1800315862F3030131500221D8F8040000222F
:102D280040F01000C8F804001020C8F8840045F2EC
:102D38000000C2F20000A0F820C0C9F88430C0E941
:102D480004102146C0E90052C0E90209C0E906831F
:102D58000DF2E44DBDE8000FF0BDF0B503AF2DE96D
:102D6800000B84B08046007B48B1404600F0B3FABF
:102D7800C2B2072A09D004B0BDE8000BF0BD404636
:102D880000F000FBC2B2072AF5D1D8E90190012171
:102D980000F01F0002AE01FA00F448F28100C9F801
:102DA8008840D8F80050ADF808002846314602227D
:102DB800FFF77EFAC1B20429F7D0062940F009814D
:102DC800C9F884400022D8E9010102AE01F01F01D0
:102DD80088F80D20012202FA01F1C0F888104EF29D
:102DE8008640D8F80050ADF808002846314602223F
:102DF800FFF75EFAC1B20429F7D0062940F0E9804E
:102E0800D8E90101012201F01F0102AE02FA01F125
:102E1800C0F88410D8E9010101F01F0102FA01F19C
:102E2800C0F888104CF28700D8F80050ADF80800B8
:102E3800284631460222FFF73BFAC1B20429F7D0EF
:102E4800062940F0C680D8E90101012201F01F01DE
:102E580002AE02FA01F1C0F88410D8E9010101F0CC
:102E68001F0102FA01F1C0F888108820D8F8005034
:102E7800ADF80800284631460222FFF719FAC1B218
:102E88000429F7D0062940F0A480D8E901010122DD
:102E980001F01F0102AE02FA01F1C0F88410D8E96E
:102EA800010101F01F0102FA01F1C0F888108E201B
:102EB800D8F80050ADF80800284631460222FFF73E
:102EC800F7F9C1B20429F7D0062940F08280D8E981
:102ED8000101012201F01F0102AE02FA01F1C0F85E
:102EE8008410D8E9010101F01F0102FA01F1C0F8CC
:102EF80088108F20D8F80050ADF8080028463146D1
:102F08000222FFF7D5F9C1B20429F7D0062960D10A
:102F1800D8E90101012401F01F01A7F122020223CF
:102F280004FA01F1C0F88410D8E9010101F01F0189
:102F380004FA01F1C0F888100C2027F8220C02A826
:102F48004146FFF7C4FD0298002847D0D8E901237D
:102F580003F01F03039904FA03F30129C2F884302C
:102F680043D9D8E90112012302F01F02407802AECA
:102F780003FA02F240F00300C1F88820D8F80050A4
:102F88008DF809008C208DF8080028463146022269
:102F9800FFF78EF9C1B20429F7D0062919D1D8E96B
:102FA8000101012201F01F0102FA01F10422C0F817
:102FB80084104046262100F03CFAC2B2072A7FF46A
:102FC800DAAE4046012100F042F904B0BDE8000B3A
:102FD800F0BD042004B0BDE8000BF0BD9DF80C1056
:102FE800032004B0BDE8000BF0BD40F2A4020120AC
:102FF800C2F2200206F0D3FFFEDEF0B503AF2DE9E2
:10300800000F85B08346D0E9005A806889460121BF
:10301800019200F01F00A7F12602022301FA00F82E
:1030280003A8CAF8888027F8261C2946FFF7EDF977
:10303800039878B903AEA7F126049DF81010042967
:103048003FD13046294622460223FFF7DEF903988E
:103058000028F2D017F8250CCAF8848080072AD4F3
:103068001220CAF8888027F8260C03A8A7F12602A0
:1030780029460223FFF7C9F9039878B903AEA7F1E7
:1030880026049DF8101004291BD1304629462246F3
:103098000223FFF7BAF903980028F2D0CAF884800F
:1030A8009BF80C0098B1584600F015F90546C0B2D7
:1030B800072814D0A1E00525284605B0BDE8000F73
:1030C800F0BD0325284605B0BDE8000FF0BD584601
:1030D80000F058F90546C0B2072840F08E80DBF8AA
:1030E80008000121DBE9005803AC00F01F0001FAD9
:1030F80000F648F28110C8F88860ADF80C00284640
:1031080021460222FFF7D4F8C1B20429F7D00629D4
:1031180078D1C8F8846001219BF80C008BF80D1059
:1031280038B1584600F0D7F80546C0B2072864D130
:1031380006E0584600F026F90546C0B207285CD1DB
:10314800DBF808000121DBE9006803AC00F01F0090
:1031580001FA00FA9220C8F888A0ADF80C003046B1
:1031680021460222FFF7A4F8C1B20429F7D00629A4
:1031780048D103AC8D20C8F884A0C8F888A0ADF861
:103188000C00304621460222FFF792F8C1B204290A
:10319800F7D0062936D1584622210022C8F884A043
:1031A80000F047F90546C0B2072826D101988145A5
:1031B8002ED003AD00248021A0EB0900009019F85F
:1031C800010BC8F888A08DF80D008DF80C1030465A
:1031D80029460222FFF76CF8C1B20429F7D0062964
:1031E80010D1FF2CC8F884A02ED00198013480217A
:1031F8008145E4D10725009A0CE0284605B0BDE8D2
:10320800000FF0BD0425284605B0BDE8000FF0BD4D
:10321800072500225846222100F00BF9C2B2072ADE
:103228000CD15846032100F012F8C2B2072A18BF81
:103238000546284605B0BDE8000FF0BD05462846FE
:1032480005B0BDE8000FF0BD0625FF22E2E7F0B5A6
:1032580003AF2DE9000782B00546007B884648B1D8
:10326800284600F038F8C2B2072A09D002B0BDE8F3
:103278000007F0BD284600F085F8C2B2072AF5D14C
:10328800A8680121D5E90069A7F11A0400F01F0018
:1032980001FA00FA48F08000C9F888A007F8190C6C
:1032A800812007F81A0C304621460222FFF700F861
:1032B800C1B20429F7D0062908D10720C9F884A08B
:1032C80085F80D8002B0BDE80007F0BD042002B00B
:1032D800BDE80007F0BDF0B503AF2DE9000784B0E5
:1032E8008046D0E900598068012101AA022300F034
:1032F8001F0001FA00FA1D20C9F888A02946ADF878
:10330800040002A8FFF781F8029870B902AE01AC78
:103318009DF80C10042930D1304629462246022354
:10332800FFF773F802980028F2D09DF80500A7F17E
:103338002204C9F884A000F0FE00C9F888A007F8A4
:10334800210C9D2007F8220C284621460222FEF770
:10335800AFFFC1B20429F7D0062909D10120C9F865
:1033680084A088F80C00072004B0BDE80007F0BD71
:10337800042004B0BDE80007F0BD032004B0BDE898
:103388000007F0BDF0B503AF2DE9000784B0804613
:10339800D0E900598068012101AA022300F01F002A
:1033A80001FA00FA1D20C9F888A02946ADF80400E2
:1033B80002A8FFF72AF8029870B902AE01AC9DF88E
:1033C8000C10042930D13046294622460223FFF743
:1033D8001CF802980028F2D09DF80500A7F12204F5
:1033E800C9F884A000F00100C9F888A007F8210CEA
:1033F8009D2007F8220C284621460222FEF758FF96
:10340800C1B20429F7D0062909D10020C9F884A03F
:1034180088F80C00072004B0BDE80007F0BD0420C0
:1034280004B0BDE80007F0BD032004B0BDE8000704
:10343800F0BDF0B503AF4DF8048D82B0D0E9004877
:1034480001238068A7F1120500F01F0003FA00F6B7
:1034580041F08000C8F8886007F8112C07F8120CB2
:10346800204629460222FEF723FFC1B20429F7D0DD
:10347800062906BFC8F884600720042002B05DF85A
:10348800048BF0BD80B56F4600F001F8FEDE80B514
:103498006F4692B0FFF747FB054648F29F60C0F2BF
:1034A80001000DF12009C1F8000109F1080BD1F85C
:1034B800080105F108080C4640F00100C1F80801B0
:1034C80009F10C000290D4F80C01C0070CD1D4F813
:1034D8000C01C00704BFD4F80C015FEAC07003D127
:1034E800D4F80C01C007EED00120C4F80C01D4F8C0
:1034F800081121F00101C4F8081148F29C51C2F2E8
:1035080000010968022916D9002140F2B402CDE968
:103518000D0140F2C000C2F22002C2F22000109257
:1035280040F2EC020C900CA81191C2F22002032187
:10353800002306F0DEFB222040F2541A049040F2E9
:103548000810C2F22000C2F2200A039048F29C50F0
:10355800C2F200000068022816D9012040F25C126D
:10356800CDE910900021CDE90CA040F61300C0F27F
:1035780000000E91099003A808900CA8C2F220023E
:103588000321002306F0B5FB404600F08AF9064601
:1035980048F29C50C2F20000006866B103283DD38F
:1035A80000F066FB0821ADF81C00069140F23A11C4
:1035B800C2F220010BE0032830D300F056FB0821AB
:1035C800ADF81C00069140F24211C2F220010591AB
:1035D80040F61301C0F2000100220B9103A90A91E1
:1035E80040F2BB71C0F20001000C099105A90891D5
:1035F8000221119100230D9140F27C110E9240F2AC
:103608005C12C2F220018DF81E000CA80C91C2F2C7
:1036180020020321CDF8409006F06BFB17201435EB
:10362800049040F28C10C2F22000039048F29C50A3
:10363800C2F200000068022816D9012040F25C128C
:10364800CDE910900021CDE90CA040F61300C0F29E
:1036580000000E91099003A808900CA8C2F220025D
:103668000321002306F045FB404600F091F948F29B
:103678009C51C2F20001096890B3032963D300F09A
:10368800F7FA08210022069140F23A11C2F220010D
:10369800ADF81C00059140F61301C0F20001000CC2
:1036A8000B9103A90A9140F2BB71C0F200018DF899
:1036B8001E00099105A908910221CDE90D1240F2D9
:1036C8005C12CDE9109140F27C11C2F220010CA8E5
:1036D8000C91C2F220020321002306F00AFB32E01B
:1036E80003292FD300F0C1FA08210022069140F2E5
:1036F8004211C2F22001ADF81C00059140F61301F9
:10370800C0F20001000C0B9103A90A9140F2BB71B1
:10371800C0F200018DF81E00099105A90891022147
:10372800CDE90D1240F25C12CDE9109140F27C1106
:10373800C2F220010CA80C91C2F22002032100233E
:1037480006F0D7FAE6B148F29C50C2F200000068D1
:1037580003284ED300F08CFA06464FEA104800F0D2
:1037680082FA02998BF80280ABF800600880000C9E
:1037780088701520099040F2C010C2F220001BE0AA
:1037880048F29C50C2F200000068032831D300F0D0
:103798006CFA06464FEA104800F065FA02998BF871
:1037A8000280ABF800600880000C88701420099033
:1037B80040F2AC10C2F22000089040F26370C0F2F0
:1037C800000005A906900120119040F25C120D90AE
:1037D80040F2A410C2F22000109100210C900CA815
:1037E8000E91C2F2200203210023CDF8149006F0B6
:1037F80080FA2846FFF7B1FA40F2B4064AF21F18D9
:103808000DF130094FF0000B4FF0010AC2F220060B
:10381800C0F2070807E0C4F80CA1D4F8080120F0AA
:103828000100C4F8080148F29C50C2F20000006888
:10383800022816D940F2B40040F2F412C2F2200075
:103848000321109040F2EC10C2F22000C2F22002D4
:103858000C9048460023CDF844B0CDE90DAB06F0F6
:1038680048FA06F10C0228463146FFF7C6FBC4F8B1
:103878000081D4F8080140F00100C4F80801D4F828
:103888000C01C007C7D1D4F80C01C00704BFD4F895
:103898000C015FEAC070BED1D4F80C01C007EED0AD
:1038A800B9E7F0B503AF2DE900078CB0D0E90059AE
:1038B800012180680DF12008062300F01F00424610
:1038C80001FA00FA0020C9F888A09021CDF821005B
:1038D8008DF8250002A88DF820102946FEF795FDE1
:1038E8000298002804BF9DF80C0004280ED102AEEF
:1038F80008AC3046294622460623FEF786FD029884
:10390800002804BF9DF80C000428F2D09DF824007C
:103918009DF82510C9F884A007F8420C80F0EF0044
:1039280007F8411C81F015010843C0B2B0FA80F1D4
:103938004FEA511430B348F29C50C2F200000068BC
:1039480003281FD302200021CDE90301A7F141017B
:10395800CDE9068040F23C20C2F2200040F2A422C9
:10396800029048F66D00C0F20000C2F22002CDE9D4
:10397800090103210B90A7F14200089002A8002337
:1039880006F0B7F984F001000CB0BDE80007F0BDFF
:10399800F0B503AF2DE9000F8DB0D0E9004A012141
:1039A800806808AA012300F01F0001FA00FB062026
:1039B800CAF888B021468DF8200002A8FEF725FD38
:1039C8000298002804BF9DF80C0004280ED102AD0F
:1039D80008AE2846214632460123FEF716FD029816
:1039E800002804BF9DF80C000428F2D02020CAF853
:1039F80084B0CAF888B008AA089002A8214604230F
:103A0800FEF703FD0298002804BF9DF80C00042867
:103A18000ED102AD08AE2846214632460423FEF7F1
:103A2800F4FC0298002804BF9DF80C000428F2D08A
:103A380002AD08AE4FF00508CAF884B0CAF888B0DD
:103A4800ADF820802846214632460223FEF7DDFCE9
:103A58000298002804BF9DF80C000428F2D09DF8B5
:103A68002100CAF884B0C007E8D14FF0300806201A
:103A780007F8498C08AACAF888B021468DF82000B2
:103A880002A80123FEF7C1FC0298002804BF9DF894
:103A98000C0004280ED102AD08AE28462146324655
:103AA8000123FEF7B2FC0298002804BF9DF80C0021
:103AB8000428F2D00220CAF884B007F81D8C08AA9E
:103AC800CAF888B02146089002A80423FEF79DFC96
:103AD8000298002804BF9DF80C0004280ED102ADFE
:103AE80008AE2846214632460423FEF78EFC02988B
:103AF800002804BF9DF80C000428F2D002A8A7F102
:103B08001D0221460123FEF780FC0298002804BF0D
:103B18009DF80C0004280FD102ADA7F11D06284618
:103B2800214632460123FEF770FC0298002804BFA4
:103B38009DF80C000428F2D002AD08AE4FF005083D
:103B4800CAF884B0CAF888B0ADF820802846214663
:103B580032460223FEF759FC0298002804BF9DF85C
:103B68000C000428F2D09DF82100CAF884B0C007E0
:103B7800E8D10020CAF888B007F81D0C03200DF121
:103B88002008089002A8214642460423FEF73DFC7F
:103B98000298002804BF9DF80C0004280ED102AE3C
:103BA80008AD304621462A460423FEF72EFC02982B
:103BB800002804BF9DF80C000428F2D0A7F11D09C5
:103BC80002A8214601234A46FEF71FFC0298002856
:103BD80004BF9DF80C0004280FD102ADA7F11D0603
:103BE8002846214632460123FEF70FFC029800289A
:103BF80004BF9DF80C000428F2D017F81D4CCAF831
:103C080084B0302C07F81D4C25D048F29C50C2F2E5
:103C18000000006803281ED3022040F2F422CDE9F8
:103C28000680002004900320039040F2DC20C2F2BA
:103C38002000A7F14901029048F66D00C0F200008B
:103C48000A910B90C2F22002CDE9089002A8032144
:103C5800002306F04EF8B4F1300018BF01200DB073
:103C6800BDE8000FF0BD002070474FF47F4070475B
:103C7800FF20C0F280007047F0B503AF4DF804BDD7
:103C88000E4600211546044602F0CFFF284640F2B2
:103C9800E24102F0D0FF304603F0B2F840F270354E
:103CA8002146C2F2200500222846366803F072F841
:103CB800A81C2146002203F06DF8281D2146002289
:103CC80003F068F8A81D2146002203F063F805F107
:103CD80008002146002203F05DF805F10A0021469C
:103CE800002203F057F805F10C002146002203F0EA
:103CF80051F805F10E002146002203F04BF805F1BA
:103D080010002146002203F045F805F11200214673
:103D1800002203F03FF805F114002146002203F0C9
:103D280039F805F116002146002203F033F805F1B1
:103D380018002146002203F02DF805F11A0021464B
:103D4800002203F027F805F11C002146002203F0A9
:103D580021F805F11E002146002203F01BF8206817
:103D68004169890107D5416921F000714161204607
:103D780002F04CFF20684169012221F06051416145
:103D88002068816962F30D318161204602F03EFFAF
:103D98002068416941F000714161204602F036FF18
:103DA8004FF480503060642030604FF400507060F1
:103DB8003068002809D4306800285CBF30680028C3
:103DC80003D43068B0F1FF3FF2DC206801220169BA
:103DD80062F302010161204602F018FF2068416980
:103DE80021F4E0514161204602F010FF206881690A
:103DF80041F4402181612068416921F000714161ED
:103E0800204602F003FF206840F23215C2F2200576
:103E18000022416941F4407141612846214602F07F
:103E2800B9FFA81C2146002202F0B4FF281D214634
:103E3800002202F0AFFFA81D2146002202F0AAFFCF
:103E48002068022640F22A150022C2F22005816B62
:103E580066F3D84181632068816B41F480218163D6
:103E68002846214602F096FFA81C2146002202F0AF
:103E780091FF281D2146002202F08CFFA81D214633
:103E8800002202F087FF206840F290350322C2F238
:103E98002005816966F3051181612068816962F3F3
:103EA8009C61816128462146002202F073FFA81C0C
:103EB8002146002202F06EFF281D2146002202F052
:103EC80069FFA81D2146002202F064FF05F10800E1
:103ED8002146002202F05EFF2068172240F2BA3520
:103EE800C2F22005C16962F30501C16120680022A0
:103EF800C16941F04001C1612846214602F04AFFEC
:103F0800A81C2146002202F045FF281D2146002258
:103F180002F040FFA81D2146002202F03BFF05F1F8
:103F280008002146002202F035FF05F10A0021466B
:103F3800002202F02FFF05F10C002146002202F0BA
:103F480029FF05F10E002146002202F023FF206818
:103F580040F2DA35C2F220050322416A41F04001FD
:103F680041622068416A66F305014162284621469C
:103F780002F010FFA81C2146032202F00BFF281DA7
:103F88002146032202F006FFA81D2146032202F063
:103F980001FF05F108002146032202F0FBFE05F1AE
:103FA8000A002146032202F0F5FE05F10C00214625
:103FB800032202F0EFFE05F10E002146032202F073
:103FC800E9FE05F110002146032202F0E3FE05F1A7
:103FD80012002146032202F0DDFE05F114002146FD
:103FE800032202F0D7FE05F116002146032202F053
:103FF800D1FE05F118002146032202F0CBFE05F19F
:104008001A002146032202F0C5FE05F11C002146D4
:10401800032202F0BFFE05F11E002146032202F032
:10402800B9FE05F120002146032202F0B3FE05F196
:1040380022002146032202F0ADFE05F124002146AC
:10404800032202F0A7FE05F126002146032202F012
:10405800A1FE05F128002146032202F09BFE05F18E
:104068002A002146032202F095FE05F12C00214684
:10407800032202F08FFE05F12E002146032202F0F2
:1040880089FE05F130002146032202F083FE05F186
:104098003200214603225DF804BBBDE8F04002F07F
:1040A80079BEF0B503AF2DE9000F87B00546086C5F
:1040B800002840F0AC8091F844A0002008640C4629
:1040C8000AF1010081F844000868002840F09A804D
:1040D8004FF0FF30261D91462060FF200821032263
:1040E8000290CDE9002130468021002204F0ACFB8B
:1040F8008B462168C00701F10101216040F09980D9
:10410800206C002840F0838094F844300020002977
:10411800206403F1010284F8442073D14FF0FF3189
:10412800002221600221CDE90019002102903046C9
:10413800049304F089FB2268C00702F1010222609F
:1041480040F08C80002A03915CD14FF0FF30C846C4
:10415800206002204FF000098DE8010330468021DD
:10416800002204F071FBC00701BF85F82CA00222D1
:10417800A5F81F20A97701BFA5F81C80049885F829
:104188002D004FF6037001BFA5F8070085F806B0AB
:104198000820A88001BFA5F82E9085F82A904FF432
:1041A8000060288501BF4FF4FA506862A5F8132013
:1041B800206801BF0399A974A5F81080013001BFD8
:1041C80044F83C0BAC612C60EC6002BF07B0BDE862
:1041D800000FF0BD206840F2204307F8211CC2F20E
:1041E80020030130206040F28C40A7F12102C2F286
:1041F8002000009040F20E40C2F220000F2105F08E
:10420800EEFEFEDE40F2AC50C2F2200003E040F2C7
:10421800EC50C2F2200040F2FC53009040F2AA3069
:1042280006AAC2F22000C2F22003102105F0D7FE30
:10423800FEDE40F29C4040F22043C2F22000A7F18B
:104248002302009040F20E40C2F22000C2F2200386
:1042580007F823BC0F2105F0C2FEFEDE40F28C40B9
:1042680040F22043C2F2200007F8221C009040F2DE
:104278000E40C2F22000C2F22003A7F122020F2151
:1042880005F0ADFEFEDE7047F0B503AF2DE9000F77
:1042980081B045F224014FF0010CC2F20001BFF3D6
:1042A8005F8FD1E84F2FC1E843CF002BF9D1BFF37F
:1042B8005F8F002A01BF48F20001C4F20D010022FD
:1042C800C4F22F0201BF02F5542C02F5502E02F55C
:1042D8004C28A1F5004401BFA1F5003501F5F616FB
:1042E80001F5F413C0E9683601BFC0E96A54C0E9B2
:1042F8006C8EC0E96EC101F5005E01BF01F5805604
:1043080040F2040CC4F22E0C01F5021401BF0CF5A6
:10431800FE7501F5004300F5C07888E8380001BF54
:1043280000F5C67383E81210C0E9666EA1F5404C2B
:1043380001BF01F5881E01F5861801F5841401F501
:10434800821301BF01F5003602F51025C0E9585661
:1043580000F5B47501BF85E81A41C0F87CC1A1F524
:10436800804C02F51C2E01BF02F5182802F5142412
:10437800A1F5E03301F5282601BF01F5EE15C0E9E6
:10438800505600F5A47585E8184101BFC0E9562CC0
:1043980002F5782802F5742902F5702401BF02F5A8
:1043A8006C234CF2000CC4F2070C0CF5004601BF5C
:1043B80001F5E03E01F58E15C0E9485EC0E94A61A5
:1043C80001BF00F5987585E81802C0F83C8101F531
:1043D800482801BF01F5442901F5402A01F53C2B85
:1043E80001F5382301BF01F5342401F5302501F525
:1043F8002C26C0E9406501BFC0E94243C0E944BA80
:10440800C0E9469802F5302801BF02F52C2902F5CB
:10441800282A02F5242B02F5861301BF02F584141D
:1044280002F5821502F58016C0E9386501BFC0E9BA
:104438003A43C0E93CBAC0E93E9801F5F01801BF1B
:1044480001F59219A1F5503AA1F5403BA1F5303399
:1044580001BF01F5901401F58C1501F58A16C0E924
:10446800306501BFC0E93243C0E934BAC0E93698C3
:1044780044F2000B01BFC4F2002B0BF500490BF509
:10448800804A4FF0844801BF01F56C2601F5682485
:1044980001F56425A1F5C03301BFC0E9283500F155
:1044A800A80383E85009C0E92EA901BF01F56028D7
:1044B80001F5E61901F5E81AA1F5203601BF0BF55B
:1044C800E03301F5582401F55425C0E9205401BF13
:1044D80000F1880484E84804C0E9259EC0F89C805F
:1044E80001BFA1F5103E01F5FE1801F5001902F50E
:1044F800642A01BF02F5602302F55C2602F55825FF
:1045080001F5A03401BF00F1600B8BE87000C0E931
:104518001B3AC0E91D9801BFC0F87CE001F5803E58
:1045280002F540480CF5804901BF01F5804A01F5C4
:10453800F21344F20806C4F2090601BF06F1100599
:1045480006F10804C0E91064C0E9125301BFC0E9CC
:1045580014A9C0E9168E0CF5C03E01F5103801BF4C
:1045680001F5801901F57C2401F5782302F57C26F4
:1045780001BF02F54825C0E9085600F1280585E87D
:10458800180201BFC0E90D81C0F83CE002F5442ED5
:1045980002F50C2601BF01F5D21501F5242402F518
:1045A8004022A1F5803301BFA1F5A031C0E9001375
:1045B800C0E9022C103001BF80E8704001B0BDE8AE
:1045C800000FF0BD40F2AC4040F24052C2F2200071
:1045D800C2F22002352105F0A9FCFEDE70477047C3
:1045E80080B56F4600F0ACFB80BD80B56F464EF2DB
:1045F8000C1C4FF4003ECEF2000C44F2B822CCF86A
:1046080080E0C2F20002BFF35F8FD0E9003180681A
:10461800C2E900319060BFF35F8FCCF800E1CCF8BD
:1046280000E080BDF0B503AF4DF804BD88B045F299
:104638002806C2F20006306828B108B05DF804BB4D
:10464800BDE8F040004744F2B820C2F2000000681C
:10465800062817D149F2000005A9C4F20D0001226D
:1046680007900020C4F22E00CDE9050002A800F052
:104678007CF80298002850D1039D356008B05DF899
:1046880004BBF0BD00F041FC00F03EFC48F2781598
:104698000290C2F2000505F212400122BFF35F8FBB
:1046A800D0E84F1FC0E8432F002BF9D10029BFF3F2
:1046B8005F8F3ED105F110004FF4806106F009FDCF
:1046C80005F065FB44F2B8210446C2F20001284611
:1046D80002F0F9F850BB49F2000048F27812C4F22F
:1046E8000D0002AB07900020C4F22E00C2F20002B7
:1046F800CDE9050005A8012100F083F842F6A720BE
:10470800C0F2000002F0DFF90546204605F04AFB3A
:10471800356008B05DF804BBF0BD02AA05AB07CA56
:1047280007C340F2A460C2F2200010E0204605F062
:1047380039FB49F20000C4F20D0007900020C4F2D2
:104748002E00CDE9050040F2B460C2F2200040F22C
:104758003863009040F20C6005AAC2F22000C2F251
:1047680020032B2105F03BFCFEDEF0B503AF2DE95D
:10477800000B84B090460E46044600F0C6FB00F0DD
:10478800C3FB48F278150090C2F2000505F212400A
:104798000122BFF35F8FD0E84F1FC0E8432F002BE3
:1047A800F9D1BFF35F8F31B196E8070007C404B0B1
:1047B800BDE8000BF0BD05F110004FF4806106F074
:1047C80088FC05F0E4FA8146284602F07DF996E86F
:1047D800070001AB07C301A86B4641462A4600F013
:1047E80010F842F6A720C0F2000002F06CF9002190
:1047F800C4E90010484605F0D5FA04B0BDE8000B3E
:10480800F0BDF0B503AF2DE9000FC9B08B4648F2F3
:104818003411C2F200011D460A608DF80BB0D0F8C1
:1048280000A0866805F0D0FA46F2000441F238107C
:10483800C2F200042118BFF35F8F51E8000F40F067
:10484800004241E80023002BF7D1B0F1FF3FBFF34E
:104858005F8F40F3E18045F22C000122C2F2000094
:10486800BFF35F8F00F5A060D0E84F1FC0E8432F6B
:10487800002BF9D101950029BFF35F8F40F0D88054
:1048880045F22C004FF4A061C2F2000004F056FC7F
:1048980041F23812CDE93DA60DF1F40A224404F59F
:1048A8008653CDE93F01479206224FF00009504652
:1048B8000121CDE9442304F5805346924393CDE981
:1048C8004142ADF8209102F0C1FABAE87E000DF13C
:1048D8000C0808F104007EC09AE87E007EC0012022
:1048E80059468DF840004046CDF80C9003F076FD0F
:1048F800019B0DF10B024046002100F096F941465C
:1049080048F2000A5CC9C2F2000A0AF104005CC05D
:104918007CC97CC091E87C0051467CC04FF4806023
:104928004FF40072AAF844004046CAE90F99CAF841
:104938000090FFF7B6FBB8E87E0048F23810C2F2E4
:1049480000007EC098E87E007EC04FF0485003AC5F
:10495800CDF816010220C4F200003DAACDF81201DC
:104968001020ADF8100145F62400C2F2DD70514662
:1049780043900920409040F2C460C2F22000CDF874
:1049880004913F902046CDF8F49000F065F8039D1F
:104998008121284603F07DFD2846012103F079FD99
:1049A8002846822103F075FD2846022103F071FD97
:1049B8002846832103F06DFD2846032103F069FD95
:1049C8002846842103F065FD2846042103F061FD93
:1049D8002846852103F05DFD2846052103F059FD91
:1049E8002846862103F055FD2846062103F051FD8F
:1049F8002846872103F04DFD2846072103F049FD8D
:104A080048F248002146C2F20000E82206F063FBA3
:104A180049B0BDE8000FF0BD40F2CD6040F25C72D5
:104A2800C2F22000C2F220021F2105F0ECF9FEDEDE
:104A380040F2503040F24C72C2F22000C2F2200222
:104A4800202105F0E0F9FEDE084640F26C71C2F262
:104A58002001122205F082BEF0B503AF2DE9000F48
:104A680089B004460868002840F0968092F82160D2
:104A78004FF0FF3001F104080860002091468A4693
:104A8800CDE900060290404600210122002303F0F0
:104A9800DBFE0D46DAF80010C00701F10101CAF883
:104AA80000107ED1002977D14FF0FF308021CAF85D
:104AB80000000020CDE90006012202904046802334
:104AC80003F0C2FEDAF80020C00702F10102CAF8BA
:104AD800002078D1DAF84000002840F089804FF0B3
:104AE800FF30002ACAF8400040F08780CAF800006A
:104AF800404604968B46059503F03EFFDAF8000021
:104B08000130CAF800007DD34FF0FF304AF83C0B63
:104B1800201DBFF35F8FCAF80080BFF35F8FB9E82D
:104B28006E006EC099E86E006EC0002517F8230C61
:104B3800049B37F8251C059A84F8430004F16000AB
:104B480084F83220BDF81820A4F841108021A387EA
:104B580023869DF81A3084F83EB0A4F83F50C4F874
:104B680038A0A4F83350C4F82CA084F83730A4F83F
:104B7800352006F0AEFA4FF08060C4E9135565643D
:104B8800A4F8545084F8E450C4F8E000C4F8008055
:104B980009B0BDE8000FF0BD40F2AC50C2F22000F1
:104BA80034E040F2F07040F28073C2F22000A7F1C6
:104BB8002202009040F21030C2F22000C2F220031C
:104BC80007F8225C10E040F6000040F28073C2F261
:104BD800200007F8211C009040F21030C2F220009B
:104BE800C2F22003A7F12102202105F0F8F9FEDE28
:104BF80040F2BC50C2F2200008E040F2CC50C2F2B1
:104C0800200003E040F2DC50C2F2200040F2FC53E6
:104C1800009040F2AA3008AAC2F22000C2F2200393
:104C2800102105F0DCF9FEDE7047F0B503AF2DE981
:104C3800000784B0044690F834001D4691460E469D
:104C480078B32068002867D14FF0FF3031462060E4
:104C5800201D03F0AAFA02AECDE90201D5F80080C2
:104C6800304699F8005003F0B7FA304603F0FAFAE4
:104C7800002D18BF01253046294603F0FFFA3046BB
:104C8800012103F0C1FA3046414603F0C9FA304623
:104C980003F0AEFA20680130206004B0BDE80007D8
:104CA800F0BD05F08EF8804605F081F805F08CF827
:104CB800206888BB4FF0FF3031462060201D03F08C
:104CC80074FA02AECDE90201D5F800A0304699F891
:104CD800005003F081FA304603F0C4FA002D18BFE3
:104CE80001253046294603F0C9FA3046012103F070
:104CF8008BFA3046514603F093FA304603F078FABF
:104D08002068013020605FEAC87008BF05F051F8DC
:104D180004B0BDE80007F0BD40F66C0040F67C0327
:104D2800C2F2200002AA009040F2AA30C2F220008B
:104D3800C2F22003102105F052F9FEDE7047FEE7AB
:104D480040F68C020021C2F220020523C0E900329D
:104D5800816070477047F0B503AF4DF8048D84B09B
:104D680040F68C0048F2301848F24805C2F220009C
:104D78000390C2F2000808F10800C2F2000502A977
:104D880002902846012200F02DFB044628680021E5
:104D980001F0C8F8064695F8E01098F800000229D6
:104DA80033D148B9286803F00EFD2868002101F0C6
:104DB80034F9012088F80000D8F814000168BFF31E
:104DC8005F8F002900F09480002098F81A2040F6A0
:104DD800C003009002A8C2F22003344303F070FF1E
:104DE8007CB1D8F804000123BFF35F8F00F582611E
:104DF800D1E84F2FC1E8463F002EF9D1BFF35F8FAE
:104E08007AB104B05DF8048BF0BD18B128680021B0
:104E180001F066F9002088F8000004B05DF8048B02
:104E2800F0BD0668BFF35F8F8268BFF35F8F43688A
:104E3800BFF35F8F934205D19E423EBFBFF35F8FA2
:104E4800002343609E4228BF32469A4207D1002081
:104E5800BFF35F8F087004B05DF8048BF0BDD8F81D
:104E68002010D8F804400968BFF35F8F00293FD0AD
:104E7800D61A184498F8262000F1100302A83546DF
:104E8800B6F5007F28BF4FF40075009503F05CFE6F
:104E98009DF8080078B194F81004BFF35F8F0028DC
:104EA800AFD0201DBFF35F8F50E8001F40E800120D
:104EB800002AF9D113E0039894F81014BFF35F8F18
:104EC80000299ED0211D864238BF3046BFF35F8F30
:104ED80051E8002F024441E80023002BF8D10020BC
:104EE800BFF35F8F84F8100404B05DF8048BF0BD45
:104EF80040F64C1040F6D012C2F22000C2F2200256
:104F0800222105F013F8FEDE70474FF47A607047EF
:104F1800F0B503AF2DE9000F83B000F12C0B1E464E
:104F280088468246D4006FF002058946029264B131
:104F3800F9E8020132464B6A59469847BAF85400D4
:104F4800083C04382842F2D008E0F07950B1BAF8A9
:104F580054006FF00201043808422BD003B0BDE8BA
:104F6800000FF0BD317A707A02294FD0012961D043
:104F78000029ECD1002800F08680062800F0A280E5
:104F8800082804BFBAF854000428E0D19AF8E000D1
:104F98000121AAF8541000220238BAF85A10B0FABF
:104FA80080F0002918BF01214009CAE913218AF8B5
:104FB800600083E0DAF82C000921AAF85410006890
:104FC800BFF35F8FB0B19AF83210012203F034FFBB
:104FD800DAF838000068BFF35F8F00281FBF9AF81F
:104FE8003E10012203B0BDE8000F1CBFBDE8F04031
:104FF80003F022BF40F64C1040F6D012C2F2200057
:10500800C2F22002222104F091FFFEDE00289ED188
:105018007188DAF8000001F08F0103F08FFFBAF809
:105028005410042993D1AAF860000120AAF854006A
:1050380000201EE090B10A2804BFBAF854000428E2
:105048007FF485AFBAF85A10002001228AF8600070
:10505800AAF85420002918BF01210FE0BAF854001B
:1050680004287FF474AF00200121AAF86000AAF890
:105078005410BAF85A10022928BF0221CAF84C0065
:10508800CAF850101AE0BAF8540004287FF45FAF49
:105098009AF8E1000122AAF8542000229AF8E210B6
:1050A800002818BF0120BAF85A3041EA4000AAF88F
:1050B8006000022B28BF0223CAE91323584600F0D8
:1050C80016FC44E700960AF10400029A41465B4642
:1050D80000F0D8F83BE7D4D4F0B503AF2DE90007CA
:1050E80084B000F12C0A99460C468046D5006FF032
:1050F800020665B1F4E802014A460B6A5146984730
:10510800B8F85400083D04383042F2D009E099F864
:10511800070050B1B8F854006FF002010438084293
:105128001ED004B0BDE80007F0BD99F8082099F832
:105138000900B9F80010AAB3012A44D0022AE9D11B
:1051480003286AD0012808BF0029E3D1B9F8021062
:105158000022D8F8000001F08F0103F06DFE86E010
:10516800D8F82C000921A8F854100068BFF35F8F05
:10517800002846D098F83210012203F05DFED8F8D6
:1051880038000068BFF35F8F00281FBF98F83E10F3
:10519800012204B0BDE800071CBFBDE8F04003F0E1
:1051A8004BBE2EE001380828B4D8DFE800F0060529
:1051B80043054A0505055400ACE70129AAD100209A
:1051C80088F8E10053E00B28A4D1002904BFB8F8FF
:1051D800540006287FF49EAFD8F838000168BFF362
:1051E8005F8F71B198F83E20002040F6E0130090E0
:1051F80002A8C2F2200303F0A7FC0820A8F8540074
:1052080088E740F64C1040F6D012C2F22000C2F2F5
:105218002002222104F08AFEFEDE00297FF47AAF04
:10522800B9F802100122D8F8000001F08F0103F04C
:1052380003FE1CE001297FF46DAF012088F8E1002E
:1052480015E0481E80B27F28BFF464AFD8F800008C
:1052580003F045FB08E021B101297FF45BAF022090
:1052680003E098F8E00038B1012088F8E0005046E3
:10527800494600F02EFE4DE75046494600F0FCFD39
:1052880048E7D4D4F0B503AF2DE9000B88B0064643
:10529800B86814460D469846019601890268406828
:1052A800ADF81010CDE9022002A804F0A5FB4FF0DC
:1052B800FF3252FA80F00E2800F26380DFE800F037
:1052C80008101C61616161616161616161612A004D
:1052D80001A9404600F0FFFC08B0BDE8000BF0BD96
:1052E80001A805A905904046CDE9065400F04CFDFB
:1052F80008B0BDE8000BF0BDC8B2032813D8DFE83A
:1053080000F002262A3A404600F0B4FB08B0BDE897
:10531800000BF0BD40462946224600F009FC08B0C3
:10532800BDE8000BF0BD084604F047FB4CB38146CE
:10533800BDF80A6005EBC404D5E9000132464B69A3
:105348004946984768B90835A542F5D119E0311D95
:10535800306828B915E006F10C010836306880B1CC
:105368000968CDE9050105A9404600F059FC08B0D7
:10537800BDE8000BF0BD06F11401103630680028B6
:10538800EED1B8F828006FF0020104380842A3D122
:10539800D8F800000921A8F828100068BFF35F8F2B
:1053A80098B198F80610012203F046FDD8F80C00D1
:1053B8000068BFF35F8F40B198F81210012203F024
:1053C8003BFD08B0BDE8000BF0BD40F64C1040F6C0
:1053D800D012C2F22000C2F22002222104F0A6FD5F
:1053E800FEDED4D4F0B503AF2DE9000F8DB004680C
:1053F800064605A888469246214603F058FE96F8C8
:10540800E000BDF81450032816D1002D4FF000001D
:1054180018BF032D03D10DB0BDE8000FF0BD204625
:1054280003F044FE96F8E300042800F00881042104
:1054380086F8E00086F8E31005F00700DFE800F0E2
:1054480003082448030000200DB0BDE8000FF0BD9C
:10545800306803F0D5FA00200421BAF1000FA6F84D
:10546800E000A6F8E310A6F85400ECD008EBCA0454
:10547800A8F1080555F8080F69688969884705F192
:105488000800A042F6D1DEE7BDF81600BDF81810F6
:10549800BDF81A200290084340EA020904910392D9
:1054A8005FEAC97054D00498C0071CBF06F12C00ED
:1054B80000F078FA0398C00719D10298C00720D1E4
:1054C80004208DF823009DF82300042822D13DE014
:1054D800306803F0EBFD96F8E00086F8E30003205F
:1054E80086F8E00000200DB0BDE8000FF0BD06F121
:1054F8002C0107A800F045F99DF82300042809D1DC
:1055080024E006F12C0107A800F0A5F89DF8230077
:1055180004281BD09DF8220000287AD0802815D1B5
:10552800DDE907010AABBDF82420CDE90A013046C0
:10553800ADF8302041465246FFF7EAFC29F0010950
:10554800B9F1000FCDE9008A07D14DE029F0010932
:10555800B9F1000FCDE9008A46D00199002953D04E
:10556800009801264FF0020B00EBC108A0F10805D6
:1055780003981BEA000F0BD02C4654F8080F6168FB
:105588008A6A3146904704F108004045F5D10EE09B
:1055980002981BEA000F0AD02C4654F8080F6168DD
:1055A800CA6A3146904704F108004045F5D104988D
:1055B8001BEA000F0DD066F07F04AA465AF8080FC0
:1055C800DAF804100A6B214690470AF108004045B2
:1055D800F4D129EA0B095FEA094005D0701C0F2EA7
:1055E8004FEA4B0B0646C3D3019969B1009800EB0B
:1055F800C104A0F1080555F8080F6968C96988470A
:1056080005F10800A042F6D101200DB0BDE8000F59
:10561800F0BDDDE907010AABBDF82420CDE90A0198
:105628003046ADF8302041465246FFF755FD29F087
:105638000109B9F1000FCDE9008A8ED1D4E740F60F
:10564800C00040F63C12C2F22000C2F220021C2127
:1056580004F0D9FBFEDEF0B503AF4DF804BD86B00B
:105668000446088D0D46411E032927D3052825D059
:10567800072835D1286AD5F82E30698E8128D5F8C3
:105688002A20ADF80C10CDE9012372D229680968E7
:10569800BFF35F8F002960D0C0F18003AA79284446
:1056A800009300F1340304A803F00AFB9DF81000EE
:1056B80000283ED09DF8110008BB34E02868016836
:1056C800BFF35F8F002948D0AA7940F6E01301A8FC
:1056D8000026C2F22003009603F0F2FA2E8522E09B
:1056E80028680168BFF35F8FB9B30020AA7940F634
:1056F800E013009001A8C2F2200303F0E1FA286841
:10570800092129850068BFF35F8F30B3A979012289
:1057180003F092FBE8680068BFF35F8FE8B1A97CEB
:10572800012203F089FB0420E07106B05DF804BB98
:10573800F0BD0598D5E90812084428629042F2D3D2
:10574800DDE901010623BDF80C202B85206061608E
:10575800228106B05DF804BBF0BD40F64C1040F65F
:10576800D012C2F22000C2F22002222104F0DEFB95
:10577800FEDE40F644228021C2F2200205F00FF836
:10578800FEDEF0B503AF2DE9000B86B00E4680466D
:1057980056F8340B0D460168BFF35F8F002900F0FF
:1057A8009080AA7903AC802033460090204603F00D
:1057B80087FA9DF80C0018B19DF80D0060B921E03A
:1057C800049A812A80F089802046314604F0F6F850
:1057D8009DF8130004281CD1286809212985006830
:1057E800BFF35F8F00286CD0A979012203F024FB56
:1057F800E8680068BFF35F8F002862D0A97C0122A7
:1058080003F01AFB042088F8070006B0BDE8000B77
:10581800F0BDE01D9DF81240BDF810600188807849
:105828008DF80A002868ADF80810DDF80C900068BB
:10583800BFF35F8F002844D0A979002203F0FCFA57
:10584800E4B19DF80A000422BDF8081085F830403C
:10585800EE85C5F82A902A85A5F8311085F8330019
:1058680088F80640A8F80460A8F80710C8F800905F
:1058780088F8090006B0BDE8000BF0BDA6B1802E7F
:10588800AAD800229DF80A00BDF80810072385F859
:105898003020EE85C5F82A902B85C5E90826A5F89D
:1058A800311085F83300ADE79DF80A000622BDF8EF
:1058B80008102A8500226A6288F80620A8F80420C1
:1058C800D2E740F64C1040F6D012C2F22000C2F2E5
:1058D8002002222104F02AFBFEDE40F65423104663
:1058E800C2F2200380211A4604F07EFFFEDEB0B526
:1058F80002AF84B00446D0E90651006AD4F824C047
:10590800002D238AAE46ACEB000208BF04F1340E2A
:105918009A4238BF1346002D03EB000C08BF8021C4
:105928009C4523D38C4529D8E1680968BFF35F8F6C
:1059380061B3A27C00930EEB000302A803F004F904
:105948009DF8080008B104B0B0BD0398D4E9081266
:10595800014421629142F6D30021228AA1610321E8
:10596800904208BF0221218504B0B0BD40F66422F0
:105978006146C2F2200204F05CFFFEDE40F66422BB
:105988006046C2F2200204F02FFFFEDE40F64C1003
:1059980040F6D012C2F22000C2F22002222104F006
:1059A800C5FAFEDEB0B502AF84B00446008D0138FA
:1059B800072835D8DFE800F0040B25343434344C9C
:1059C8002046FFF794FF0025284604B0B0BDE068E4
:1059D8000168BFF35F8F002940D0A27C40F6E01336
:1059E80002A80025C2F22003009503F0ADF89DF847
:1059F80008000028E8D1032000252085284604B0A7
:105A0800B0BD20680068BFF35F8F38B3A17900226A
:105A1800002503F011FA05202085284604B0B0BD02
:105A28002068092121850068BFF35F8FB0B1A17993
:105A3800012203F001FAE0680068BFF35F8F68B1E4
:105A4800A17C012203F0F8F90025284604B0B0BD76
:105A5800002001252085284604B0B0BD40F64C1032
:105A680040F6D012C2F22000C2F22002222104F035
:105A78005DFAFEDEF0B503AF4DF804BD8AB004460A
:105A8800008D042833D101AD04F134018022E68D64
:105A9800284603F0B6FB40F20940A7F1120227F8A6
:105AA800120C28460321022303F0B4FBC0B20828D5
:105AB80019D101A803F0ACFB80281DD92068092161
:105AC80021850068BFF35F8F30B3A179012203F00D
:105AD800B3F9E0680068BFF35F8FE8B1A17C0122E9
:105AE80003F0AAF902200AB05DF804BBF0BD072054
:105AF8000AB05DF804BBF0BD0121B042218538BF72
:105B0800064600212046C4E90816FFF7F0FE0820E3
:105B18000AB05DF804BBF0BD40F64C1040F6D01258
:105B2800C2F22000C2F22002222104F0FFF9FEDEB8
:105B3800F0B503AF2DE9000F8BB08346008D042824
:105B480026D10D46E9460BF134019046484680229D
:105B5800BBF82EA003F055FB08AE4946304603F0CB
:105B680043FE304603F044FEC0B208280CD108AE0C
:105B78004FEAC8048CB1F5E802010A69314690473A
:105B8800083CC0B20828F5D00BB0BDE8000FF0BD46
:105B980007200BB0BDE8000FF0BD08A803F0F9FE20
:105BA800684603F035FB80281DD9DBF80000092181
:105BB800ABF828100068BFF35F8F28B39BF8061076
:105BC800012203F039F9DBF80C000068BFF35F8F9E
:105BD800D0B19BF81210012203F02EF902200BB06D
:105BE800BDE8000FF0BD01215045ABF8281038BFC3
:105BF800824600215846CBE9081AFFF778FE0820AC
:105C08000BB0BDE8000FF0BD40F64C1040F6D012C6
:105C1800C2F22000C2F22002222104F087F9FEDE3F
:105C2800F0B503AF2DE9000B88B00446008D0428B9
:105C380030D1D1E90056E84604F1340140468022CB
:105C4800B4F82E9003F0DDFA40462946324603F0B8
:105C580009FDC0B2082819D1684603F0D9FA80288E
:105C68001DD92068092121850068BFF35F8F30B3F3
:105C7800A179012203F0E0F8E0680068BFF35F8FC4
:105C8800E8B1A17C012203F0D7F8022008B0BDE8F2
:105C9800000BF0BD072008B0BDE8000BF0BD0121E6
:105CA8004845218538BF814600212046C4E90819A6
:105CB800FFF71DFE082008B0BDE8000BF0BD40F658
:105CC8004C1040F6D012C2F22000C2F2200222216B
:105CD80004F02CF9FEDEF0B503AF4DF8048D88B062
:105CE8000446008D04282ED10D686E4604F1340157
:105CF80030468022B4F82E8003F083FA30462946D5
:105D080003F0D5FAC0B2082819D1684603F080FA22
:105D180080281DD92068092121850068BFF35F8F7D
:105D280030B3A179012203F087F8E0680068BFF377
:105D38005F8FE8B1A17C012203F07EF8022008B051
:105D48005DF8048BF0BD072008B05DF8048BF0BD4A
:105D580001214045218538BF804600212046C4E9FD
:105D68000818FFF7C4FD082008B05DF8048BF0BDE3
:105D780040F64C1040F6D012C2F22000C2F22002C7
:105D8800222104F0D3F8FEDEF0B503AF2DE90007B9
:105D980088B08246008D04284CD191E850026D46A7
:105DA8000AF1340128468022BAF82E8003F029FA35
:105DB8002168284603F015FBC0B2082836D1B9F18E
:105DC800000F10D006EBC9046D46D6E90001CA6879
:105DD80029469047C0B2082828D1284603F069FB15
:105DE8000836A642F1D16D46284603F065FB2846E1
:105DF80003F00EFA802822D9DAF800000921AAF85F
:105E080028100068BFF35F8F50B39AF8061001227C
:105E180003F012F8DAF80C000068BFF35F8FF8B1EE
:105E28009AF81210012203F007F8022008B0BDE822
:105E38000007F0BD072008B0BDE80007F0BD01214C
:105E48004045AAF8281038BF804600215046CAE9C4
:105E58000818FFF74CFD082008B0BDE80007F0BDA2
:105E680040F64C1040F6D012C2F22000C2F22002D6
:105E7800222104F05BF8FEDED0B502AF0446008DA7
:105E88006FF00201043808421CBF0720D0BD20680B
:105E9800092121850068BFF35F8F70B1A1790122C4
:105EA80002F0CAFFE0680068BFF35F8F28B1A17CE9
:105EB800012202F0C1FF0820D0BD40F64C1040F688
:105EC800D012C2F22000C2F22002222104F02EF8E1
:105ED800FEDED0B502AF84B00446008D062812D18C
:105EE800E0680168BFF35F8F81B10020A27C40F6B3
:105EF800E013009002A8C2F2200302F025FE082059
:105F0800208504B0D0BD072004B0D0BD40F64C10A9
:105F180040F6D012C2F22000C2F22002222104F080
:105F280005F8FEDEF0B503AF4DF804BD84B00446B5
:105F380090F834000D46D8B1206800285BD14FF0A6
:105F4800FF31204640F8041B294602F02EF9CDE91E
:105F5800020102A802F076F970B302AD284602F0F9
:105F680081F9284602F06EF90028F7D1012528E0CA
:105F780003F027FF064603F01AFF03F025FF206809
:105F8800C8BB4FF0FF31204640F8041B294602F0F9
:105F98000CF9CDE9020102A806F0010602F052F957
:105FA800B8B102AD284602F05DF9284602F04AF978
:105FB8000028F7D1012511E002A802F003F980F0CA
:105FC8000105206801302060284604B05DF804BB54
:105FD800F0BD02A802F0F6F880F001052068002E56
:105FE80000F10100206008BF03F0E3FE284604B07A
:105FF8005DF804BBF0BD40F6E02040F6F023C2F2A5
:10600800200002AA009040F2AA30C2F22000C2F298
:106018002003102103F0E3FFFEDEF0B503AF4DF8D7
:1060280004BD84B0044690F834000D46E0B1206801
:10603800002843D14FF0FF31204640F8041B294681
:1060480002F0B3F8CDE9020102A802F02FF9002806
:106058001CBF0DF1080002F0A9F82068013020608B
:1060680004B05DF804BBF0BD03F0ABFE064603F0D8
:106078009EFE03F0A9FE206800BB4FF0FF312046CA
:1060880040F8041B294602F090F8CDE9020102A865
:1060980006F0010502F00AF900281CBF0DF10800FE
:1060A80002F084F82068002D00F10100206008BF8C
:1060B80003F07FFE04B05DF804BBF0BD40F6E020BD
:1060C80040F6F023C2F2200002AA009040F2AA3063
:1060D800C2F22000C2F22003102103F080FFFEDE8E
:1060E800F0B503AF4DF804BD84B0044690F8340011
:1060F8000D46A0B1206890BB4FF0FF3029462060C4
:10610800201D02F052F8CDE9020102A802F064F85D
:1061180020680130206004B05DF804BBF0BD03F0D6
:1061280050FE064603F043FE03F04EFE2068B0B969
:106138004FF0FF3029462060201D02F036F8CDE9E7
:10614800020102A802F048F8206801302060F00738
:1061580008BF03F02EFE04B05DF804BBF0BD40F6A6
:10616800E02040F6F023C2F2200002AA009040F29C
:10617800AA30C2F22000C2F22003102103F02FFF40
:10618800FEDE704700207047704708207047704750
:10619800F0B503AF4DF8048D0546D079012802BF4C
:1061A8001646107A012802D05DF8048BF0BD95F8E8
:1061B8002C008846748803F000FCC0B28442F3D1F6
:1061C800707A212804BFB088072831D0B8F8280091
:1061D8006FF0020104380842E6D1D8F8000009211E
:1061E800A8F828100068BFF35F8FA8B198F80610C8
:1061F800012202F021FED8F80C000068BFF35F8F7F
:1062080000281FBF98F8121001225DF8048BBDE822
:10621800F04018BF02F010BE40F64C1040F6D01205
:10622800C2F22000C2F22002222103F07FFEFEDE2D
:10623800B8F828000428B7D1B8F82E00012395F83B
:10624800291095F82A200728A8F8283095F828302A
:106258006E6A4FF00005C8F8346088F8383088F85E
:10626800392088F83A1028BF0720C8E90850404666
:106278005DF8048BBDE8F040FFF739BBF0B503AF1C
:106288004DF8048D84B00546D079012802BF164622
:10629800107A012803D004B05DF8048BF0BD95F89E
:1062A8002C008846748803F088FBC0B28442F2D17F
:1062B800707A88B1202814D022284AD13078B8F8CA
:1062C800281000F0010285F82E20C0F3400085F860
:1062D8002F000629DFD124E0B8F828000628DAD1F3
:1062E8001FE0D8F82400812866D2062831D998F80A
:1062F8003800D8F83410696200F0F0FB98F83910CB
:10630800C0B285F82800084600F0EDFB98F83A205E
:10631800C0B2B8F8281085F82A0085F8292006297F
:10632800B9D1D8F80C000168BFF35F8FC1B398F8F2
:106338001220002040F6E013009002A8C2F22003C9
:1063480002F002FC0820A8F8280004B05DF8048BCD
:10635800F0BDB8F828006FF00201043808429AD15D
:10636800D8F800000921A8F828100068BFF35F8F4B
:10637800B0B198F80610012202F05EFDD8F80C00C2
:106388000068BFF35F8F00281FBF98F81210012222
:1063980004B05DF8048B1CBFBDE8F04002F04CBDB2
:1063A80040F64C1040F6D012C2F22000C2F2200291
:1063B800222103F0BBFDFEDE40F674228021C2F2EA
:1063C800200204F011FAFEDEF0B503AF2DE9000B50
:1063D80084B090F82C60814600250220CDE90005A4
:1063E8000C46084631460222022303F076F8C0B272
:1063F80008286ED12046314602220223009503F078
:10640800C2F8C0B2082864D140F600322046C2F271
:1064180020022421032302F0FDFEC0B2082858D12F
:1064280040F603322046C2F220022421022302F061
:10643800F1FEC0B208284CD1304603F0BEFA99F8F4
:106448002D800646404603F0B8FA07F81C0C0620D3
:10645800A7F11E0207F81E0C20462421032307F883
:106468001D6C02F0D7FEC0B2082832D1404603F0B6
:10647800A4FA07F8190C0120A7F11B0227F81B0C36
:1064880020462421032302F0C5FEC0B2082820D1EB
:106498002046494600F039F8C0B2082819D199F8C1
:1064A8002D100020009020460A22002303F06BF8EC
:1064B800C0B208280DD109F11801204600F025F8CE
:1064C800C0B2082805D109F10C01204600F01DF8DA
:1064D800C0B204B0BDE8000BF0BDD0B502AF82B0C9
:1064E8000446684600F004FBDDE90001C4E909013F
:1064F8000020E08502B0D0BD0A46D0E90031184638
:1065080004F047B9006803F090BDF0B503AF4DF84B
:1065180004BD8C46416959B3416883698B4244D2B2
:106528000268D0F808E0D45C0134D4540EF10203B8
:106538008B4219D80EF58074A14238BF0C469C4294
:1065480043D3E41A052C0FD3BCF80650BCF804401A
:10655800D55213449CF808601E71260A9C700EF1EF
:1065680007048C42DE7007D902205DF804BBF0BD39
:1065780007205DF804BBF0BD8E451ED2072302F844
:106588000E300EF101038B423FBF0521D1548460C8
:1065980008203CBF5DF804BBF0BD40F68832C2F26B
:1065A8002002184603F0FBFCFEDE40F69832C2F2E9
:1065B8002002184603F0F3FCFEDE40F678327046FF
:1065C800C2F2200203F0EBFCFEDE40F66832184609
:1065D800C2F22002214604F02CF9FEDE7047F0B525
:1065E80003AF4DF804BD84B00068802906684FF0F9
:1065F8000000029003D201248DF8081034E0B1F5B0
:10660800006F09D20224084664F39F108DF8090030
:10661800C02040EA911025E002200A4660F39F124C
:10662800B1F5803F0DD28DF80A208A0960F39F12D8
:10663800E02040EA11308DF809208DF80800032485
:1066480012E08DF80B208A0960F39F128DF80A205A
:106658000A0B042460F39F12880C1E218DF8092070
:1066680061F3DF008DF8080003F091FB0546306800
:10667800B0B94FF0FF30321D306002A8214600F05B
:1066880040F90446306801303060284603F08AFB40
:10669800E0B2033818BF012004B05DF804BBF0BDB8
:1066A80040F65C4040F6C033C2F2200003AA0090D6
:1066B80040F2AA30C2F22000C2F22003102103F0F7
:1066C8008EFCFEDEF0B503AF4DF804BD88B000685F
:1066D80002AA019091E87850104640F6A831C2F21B
:1066E800200180E8785001A803F0B3FC08B05DF8F9
:1066F80004BBF0BDF0B503AF4DF8048D82B000685F
:1067080015460E46046803F042FB80462068B0B97F
:106718004FF0FF30221D20603046294600F0F1F886
:106728000546206801302060404603F03BFBE8B294
:10673800033818BF012002B05DF8048BF0BD40F6A5
:106748005C4040F6C033C2F2200001AA009040F23B
:10675800AA30C2F22000C2F22003102103F03FFC4D
:10676800FEDEF0B503AF2DE9000748F29C52D1F8E0
:106778000080C2F200021268904503D90020BDE8EB
:106788000007F0BDC2683AB380680025D1E9019AD4
:1067980002EB4201061D8C0005E00C3C06F10C06DC
:1067A80005F10105EAD030685045F6D156F8040CD9
:1067B8004946524604F0C5FA0028EED17068002117
:1067C8008045A0F10600B0FA80F098BF0121400989
:1067D8000843BDE80007F0BD0120BDE80007F0BD93
:1067E800F0B503AF2DE9000F93B0009048F29C502C
:1067F800C2F20000D1F800900068814523D88A468B
:106808000099C86818B3896800EB4000DAE901B557
:106818004FF000080C1D860005E00C3E04F10C0446
:1068280008F101080FD02068A842F6D154F8040CEA
:1068380059462A4604F085FA0028EED160680628F1
:1068480018BF814505D913B0BDE8000FF0BDDAE9DE
:1068580001B5009840F6A831019044F25520C0F2E5
:1068680000000DAA07900BA8069044F24920C0F238
:106878000000C2F22001059009A8049047F68D1087
:10688800C0F20000CDF82090039008A802900AF109
:106898000C000B9001A80C900320129002A81190F4
:1068A80000200F9004200E9040F6D830C2F220004D
:1068B800CDE909B50D900CA803F0CBFB13B0BDE8EA
:1068C800000FF0BD7047D0B502AF48F268120C4611
:1068D800D1E901C3C2F200020021C2E902C3C2E940
:1068E800001040F67841C2F22001104603F0B8F9D2
:1068F800002801BF216848F29C52C2F200021160D0
:10690800D0BDF0B503AF2DE9000780461068924668
:106918000D4600F211430122BFF35F8FD3E84F1FEA
:10692800C3E8462F002EF9D1BFF35F8F19B10120BC
:10693800BDE80007F0BD0168BFF35F8F4268BFF391
:106948005F8F8A4204D9CE4312EB06090BD172E05D
:10695800B1F5806F05D1012A6DD9A2F10109002195
:1069680001E0C1F580692E46A94538BF4E46721828
:10697800BFF35F8FC2600844414610303246DAF8F0
:10698800004004F0A4FB94F81104BFF35F8F40B3F8
:10699800206804F10C01BFF35F8FBFF35F8F51E8EC
:1069A800002F41E80023002BF9D1BFF35F8FB0F52A
:1069B800806FA268BFF35F8FE168BFF35F8F01D07C
:1069C800814203D3914204D94FF48060BFF35F8FB3
:1069D800A060BFF35F8F21600020BFF35F8F84F852
:1069E8001104A9456BD2DAF80000AA1B08EB0601CE
:1069F800012500F21143BFF35F8FD3E84F6FC3E85F
:106A0800445F002CF9D1002EBFF35F8F8FD1066849
:106A1800BFF35F8F4568BFF35F8FB54203D9F44377
:106A28002D1912D107E0B6F5806F0CD1012D02D9CE
:106A3800013D002609E000200021BFF35F8F197097
:106A4800BDE80007F0BDC6F58065954238BF2A4607
:106A58009319BFF35F8FC36030441030DAF80040F9
:106A680004F035FB94F81104BFF35F8F38B3206846
:106A780004F2114304F10C01BFF35F8FBFF35F8F82
:106A880051E8002F41E80026002EF9D1BFF35F8FAF
:106A9800B0F5806FA268BFF35F8FE168BFF35F8FC7
:106AA80001D0814203D3914204D94FF48060BFF3EF
:106AB8005F8FA0600320BFF35F8F2160BCE70320D6
:106AC800BDE80007F0BD704748F28C51C2F20001E2
:106AD80088600120BFF35F8F08707047C1B2032937
:106AE80028BF00207047C1B2052928BF0020704781
:106AF800002181714FF4006181804FF4FA510160E7
:106B08007047022070470F207047B0B502AF0546A6
:106B180008680C4640F480300860086840F040007F
:106B28000860222063F31340486040F26850C0F2C6
:106B38000C10086240F29510C0F2B2004862DC20E6
:106B4800C0F27A0088627D20C0F25800C8624B20EB
:106B5800C0F2400008632F20C0F22E00486388630B
:106B680046F62010C86040F6A31088604FF4C8406D
:106B7800C8614FF4C860886140F6C410C0F6804010
:106B880008613F204861086862F3010008600868EE
:106B980020F480300860C86F4021281D04F099FA5D
:106BA80010202C606864B0BD00F1340200F150017F
:106BB800104670477047F0B503AF2DE9000B84B05D
:106BC8004FF40071044604F084FA44F2C429103CDE
:106BD800C2F2000909F108060025E846D9E90001D2
:106BE80003960291CDE90050404602F051FF9DE81E
:106BF8000F0001350C3644F8100F202D04F1040065
:106C08000EC0EBD104B0BDE8000BF0BD006803E096
:106C1800816C002908BF7047816C29B1816C0029FB
:106C28001CBF816C0029F3D170470068426D61F385
:106C380001024265704740F22762914238BF0A4616
:106C4800B2F5487F98BF4FF44872A2F5487144F2F4
:106C5800AF7300688AB25A43C368A1EB124189B284
:106C6800490801EB124123F01F0242EA1111C160E9
:106C780004E00168B1F1FF3FD8BF704701680029FF
:106C880005D4016800295CBF01680029F1D5704767
:106C9800A1F1080240F6F87392B29A4221BF02218C
:106CA80001600171704700220139C0F80620818017
:106CB80002608272704780B56F46C1B181421FD8A9
:106CC800B0FBF1F3B0FBF3F0884288BF0133981EA4
:106CD80038BF0020FF2828BFFF2000F0FE0140EA4F
:106CE800C11040F0F85040F4F810106480BD40F630
:106CF800005040F6F042C2F22000C2F2200207E043
:106D080040F6005040F61C52C2F22000C2F22002A7
:106D1800192103F00BF9FEDEF0B503AF2DE9000BE6
:106D280044F2E043C4F21F031B68C3F30B2E4FEA7F
:106D3800135CE6451FBF0124C1F88841DBB24FF45C
:106D48007A781FBF03FB08F9ACEB0E04D1F8906109
:106D580049F658651FBFCFF6FF7513FB085393FB21
:106D6800F4F3C2EA06021FBFC1F8902180E80A4086
:106D7800C0F80C90BDE8000B18BFF0BD40F6A0505D
:106D880040F69052C2F22000C2F22002192103F00C
:106D9800CDF8FEDE90F800C0DFE80CF004080C1017
:106DA80014181C20096801F1680C1AE0096801F13F
:106DB8006C0C16E0096801F1700C12E0096801F129
:106DC800740C0EE0096801F1780C0AE0096801F119
:106DD8007C0C06E0096801F1800C02E0096801F109
:106DE800840C40780321DCF800304000C0B28240B7
:106DF80001FA00F023EA00001043CCF800007047C5
:106E080080B56F4600684FF400514FF480524FF040
:106E1800400C4FF4803E00E0416103699B04FBD5C0
:106E28000369DB0401D44261F7E70369B3F1FF3F6B
:106E3800F3DC0369DB0306D403695B0648BF80BD46
:106E4800C0F814C0E9E7C0F818E0E6E780B56F4677
:106E5800D0E9002E4FF0004C4FF08043CEF834C0FC
:106E6800CEF838C0CEF838300023CEF800300223F0
:106E7800C2F84031D2F840319B070CD5D2F84031E6
:106E88009B0744BFD2F840315FEA837303D5D2F839
:106E980040319B07EED44FF0000C0A23C2F840C1E2
:106EA8000029C2F8A831D2F8843123F0807308BFD2
:106EB80003F18073C2F88431D2F844110069C2F832
:106EC8004411C2F848C1C2F8580180BD80B56F4668
:106ED80002464369C8B2490041EAD011C8B28342A8
:106EE80016D9936A01F00F011B68BFF35F8F9BB23D
:106EF80023FA01F1C9070BD0516A814284BF0120EE
:106F080080BD40F69072C2F2200203F048F8FEDE1F
:106F1800002080BDF0B503AF2DE9000F83B0804697
:106F2800486900281FBF886A0068BFF35F8F5FEA5F
:106F3800C0700BD140F6166040F64462C2F22000E1
:106F4800C2F220022B2102F0F1FFFEDE486A00287F
:106F580000F01581086A01260C6890F910E0D4F851
:106F6800AC510EF01F0C06FA0CF62E4218BF072B78
:106F780006D845686D6815F0680F6CD0072074E076
:106F8800D0F800C0C4F8AC61D4F8403143F40053E1
:106F9800C4F84031DCE90A36D4F84051AD0425D4B0
:106FA800D4F8403143F40053C4F84031DCE90A36E0
:106FB800D4F84051AD045FBFD4F8403143F40053D6
:106FC800C4F84031DCE90A365CBFD4F840515FEAC6
:106FD80085450BD4D4F8403143F40053C4F840310C
:106FE800DCE90A36D4F84051AD04CDD5D4F8405187
:106FF80025F40055C4F84051566001251360027C01
:10700800D4F8B86153B202F01F02002B48BF360C07
:1070180095402E40360614D14FF48036B3F1FF3F29
:10702800C8BF01264FF47F0306FA02F2C8BFFF2348
:107038001A40C4F8782102681268C2F30A4200F0C4
:107048001CFE0820C8F80400002088F8000003B0DF
:10705800BDE8000FF0BDD4F8B851BEF1000F48BF2D
:107068002D0C35402D0609D0002088F8010001209C
:1070780088F8000003B0BDE8000FF0BD4FF480367B
:10708800BEF1FF3FC8BF01264FF47F0506FA0CF694
:10709800C8BFFF252E40C4F8BC6190F910604FF4BA
:1070A80080394FF47F0EB6F1FF3F06F01F06C4BFCC
:1070B8004FF0FF0E4FF0010909FA06F606EA0E0630
:1070C800C4F87861D0E900C5DCF800406E68ED6965
:1070D800C4F30A44C6F30E469C42A5EB060628BF35
:1070E8001C46B44228BF34469C4251D8D0F80CA064
:1070F800544538BFA246BAF1000F18BF002C35D04E
:10710800AAF10406D0F808B00196AAF103061319EB
:10711800AAF10109AAF1020E029600261BF80650F0
:107128009419B14504F8015B1ED09C421FBF0BEBBC
:10713800060C9CF8015004F8015BB64514D09C423B
:107148001FBF9CF8025004F8015B029DB5420BD0AA
:107158009C421FBF9CF8035004F8015B019DB54297
:1071680002D004369C42D9D1D0F800C0DCF8002007
:10717800C2F30A4200F081FDC8F804A064E740F6B3
:10718800A0720020C2F22002002102F008FFFEDEF9
:1071980040F624722046C2F22002194603F024FB6E
:1071A800FEDEF0B503AF2DE9000F83B082464869D3
:1071B8000228C0F03981886A0D460068BFF35F8FE6
:1071C800800740F13181696A012940F21C81D5F8B4
:1071D80020E0DEF81810496811F0680F01D0072088
:1071E80012E09EF824600120D5F800C074B206F0C1
:1071F8001F06DCF8B811002C00FA06F048BF090C8D
:107208000840000609D000208AF8010001208AF809
:10721800000003B0BDE8000FF0BD0EF114000090AF
:107228004FF48030B4F1FF3FC8BF01204FF47F0115
:1072380000FA06F0C8BFFF210840CCF87801DEF854
:107248001400DEF820100068C0F30A40984238BFE6
:1072580003468B4238BF19460029019118BF002BFD
:1072680040F09280DDF804B0BBF1000F2ED0ABF1F6
:1072780001060120DEF81C9000EB561404F0030808
:1072880002F099FD4EF6707029F01F01CEF2000051
:10729800602E0FD324F0030201F120030160036084
:1072A80001F14003036001F16003043A01F1800138
:1072B8000360F1D1B8F1000F1CBF0160B8F1010FF4
:1072C80040F0988002F077FD02F078FD009829469A
:1072D8005A4600F0D2FC686900281FBFA86A0068F7
:1072E800BFF35F8F5FEAC0700BD140F6166040F6BF
:1072F8005462C2F22000C2F220022B2102F016FED4
:10730800FEDE686A002800F08680286A0124296861
:10731800027CD1F8B86153B202F01F02002B48BFBB
:10732800360C94402640360625D1B3F1FF3F4FF482
:107338008033C8BF01234FF47F0603FA02F2C8BFA7
:10734800FF263240C1F8BC2190F910204FF4803C50
:107358004FF47F04B2F1FF3F02F01F02C4BFFF24C5
:107368004FF0010C0CFA02F22240C1F878212946AC
:10737800002200F082FCCAF804B000208AF800005D
:1073880003B0BDE8000FF0BD0198D1180026031F17
:107398000293DEF81C30A0F1010B841EA0F1030C4F
:1073A80002EB0608B34518F8010B98553FF45AAF9D
:1073B80088451FBF03EB060918F8010B89F801007F
:1073C800B4423FF44FAF88451EBF18F8010B89F847
:1073D8000200B4453FF446AF88451FBF18F8010BBB
:1073E80089F803000298B0423FF43CAF0436884560
:1073F800D6D137E701F120020260B8F1020F1CBFB5
:10740800403101605EE740F6A0720120C2F220021E
:1074180002F0C5FDFEDE40F6A0720020C2F2200296
:10742800002102F0BCFDFEDE40F6166040F6646204
:10743800C2F22000C2F220022B2102F077FDFEDE0C
:10744800F0B503AF2DE9000F83B08046387A4D6957
:10745800460046EAD016F0B2854240F2CA808D6AEC
:1074680006F00F062D68BFF35F8FADB225FA06F65A
:10747800F60700F0BE804C6A844240F2B2800E6A81
:1074880000EB800006EB80004668766816F0680F0F
:1074980001D0072011E0047CD1F800C004F01F0ED1
:1074A80065B20124DCF8B86104FA0EF4002D48BF77
:1074B800360C3440240609D0002088F80100012049
:1074C80088F8000003B0BDE8000FF0BD8C8D05F012
:1074D8000F06F440E407EFD0B5F1FF3F4FF48035D5
:1074E800C8BF01254FF47F0405FA0EF5C8BFFF2475
:1074F8002540CCF8BC5190F910504FF480394FF426
:107508007F06B5F1FF3F05F01F05C4BFFF264FF00A
:10751800010909FA05F52E40CCF87861D0E900C5D3
:10752800DCF800406E68ED69C4F30A44C6F30E4601
:107538009C42A5EB060628BF1C46B44228BF344629
:107548009C4262D8D0F80CA0544538BFA246BAF184
:10755800000F18BF002C35D0AAF10406D0F808B0E7
:107568000196AAF103061319AAF10109AAF1020E5C
:10757800029600261BF806509419B14504F8015BE1
:107588001ED09C421FBF0BEB060C9CF8015004F860
:10759800015BB64514D09C421FBF9CF8025004F80A
:1075A800015B029DB5420BD09C421FBF9CF8035063
:1075B80004F8015B019DB54202D004369C42D9D142
:1075C800D0F800C0DCF80020C2F30A4200F055FBF6
:1075D800C8F804A0002088F8000003B0BDE8000F38
:1075E800F0BD40F6A0722146C2F2200202F0D7FC9C
:1075F800FEDE40F6166040F67462C2F22000C2F267
:1076080020022B2102F092FCFEDE40F62472204676
:10761800C2F22002194603F0E7F8FEDEF0B503AF28
:107628002DE9000F83B08346387A0D464E69410034
:1076380041EAD011C8B2864240F2DD80AE6A01F05C
:107648000F013668BFF35F8FB6B226FA01F1C9079A
:1076580000F0D180696A814240F2C680296A00EB55
:10766800800001EB8009D9F80400406810F0680F29
:1076780001D0072012E099F810100120D5F800C0B9
:107688004CB201F01F01DCF8B861002C00FA01F0DF
:1076980048BF360C3040000609D000208BF80100A6
:1076A80001208BF8000003B0BDE8000FF0BD4FF4D7
:1076B8008030B4F1FF3FC8BF01204FF47F0600FAC5
:1076C80001F0C8BFFF263040CCF87801D9F8000097
:1076D800D9F80C800068C0F30A40984238BF0346C6
:1076E800434538BF9846B8F1000F18BF002B3FD16B
:1076F800B8F1000F2ED0A8F1010A0120D9F80860CE
:1077080000EB5A1404F00300029002F054FB4EF60A
:10771800707026F01F01CEF20000BAF1600F0FD38F
